:020000040800F2
:10000000A84E0020890100083D1D0008991900082C
:10001000311D000825050008C1230008000000006C
:100020000000000000000000000000009B0100082C
:100030009D010008000000009F010008451E000807
:10004000A3010008A3010008A3010008A301000800
:10005000A3010008A3010008A3010008A3010008F0
:10006000A3010008A3010008A3010008A3010008E0
:10007000A3010008A3010008A3010008A3010008D0
:10008000A3010008A3010008A3010008A3010008C0
:10009000A3010008A3010008A3010008A3010008B0
:1000A000A3010008A3010008A3010008A3010008A0
:1000B000BD1E0008C51E0008CD1E0008A3010008D3
:1000C000A3010008A3010008A3010008A301000880
:1000D000A3010008B1230008B9230008A301000808
:1000E000A3010008A3010008A301000800F002F822
:1000F00000F03AF80AA090E8000C82448344AAF188
:100100000107DA4501D100F02FF8AFF2090EBAE885
:100110000F0013F0010F18BFFB1A43F0010318473B
:1001200058A4000078A40000103A24BF78C878C111
:10013000FAD8520724BF30C830C144BF04680C60ED
:10014000704700000023002400250026103A28BF35
:1001500078C1FBD8520728BF30C148BF0B60704739
:100160001FB51FBD10B510BD00F0A2F91146FFF775
:10017000F7FF05F001FE00F0C0F903B4FFF7F2FF4E
:1001800003BC00F0C7F90000094880470948004750
:10019000FEE7FEE7FEE7FEE7FEE7FEE7FEE7FEE737
:1001A000FEE7FEE704480549034A054B7047000097
:1001B000B91E0008ED000008A8460020A84E002047
:1001C000A846002040EA010310B59B070FD1042A7E
:1001D0000DD310C808C9121F9C42F8D020BA19BA12
:1001E000884201D9012010BD4FF0FF3010BD1AB177
:1001F000D30703D0521C07E0002010BD10F8013BCC
:1002000011F8014B1B1B07D110F8013B11F8014BF2
:100210001B1B01D1921EF1D1184610BD032A40F2DA
:10022000308010F0030C00F0158011F8013BBCF198
:10023000020F624498BF11F801CB00F8013B38BFB0
:1002400011F8013BA2F1040298BF00F801CB38BFBE
:1002500000F8013B11F0030300F0BB80083AC0F046
:10026000088051F8043B083A51F804CBA0E8081084
:10027000F5E7121D5CBF51F8043B40F8043BAFF3B7
:100280000080D20724BF11F8013B11F801CB48BF11
:1002900011F8012B24BF00F8013B00F801CB48BF47
:1002A00000F8012B7047431A28BF9A427FF6B6AF79
:1002B00010441144032A40F2268010F0030F1EBFA1
:1002C00011F8013D521E00F8013D10F0030F7FF4BC
:1002D000F6AF11F0030300F0C180083AC0F00B80C4
:1002E00051F8043D083A51F804CD40F8043D40F877
:1002F00004CDFFF7F3BF121D5CBF51F8043D40F879
:10030000043DAFF30080D20724BF11F8013D11F87E
:1003100001CD48BF11F8012C24BF00F8013D00F8C1
:1003200001CD48BF00F8012C704702F0FF0343EAFB
:10033000032242EA024200F024B84FF000020429EE
:10034000C0F0128010F0030C00F01B80CCF1040C04
:10035000BCF1020F18BF00F8012BA8BF20F8022B38
:10036000A1EB0C0100F00DB85FEAC17C24BF00F8DE
:10037000012B00F8012B48BF00F8012B70474FF00C
:10038000000200B5134694469646203922BFA0E8E5
:100390000C50A0E80C50B1F12001BFF4F7AF0907F1
:1003A00028BFA0E80C5048BF0CC05DF804EB8900E2
:1003B00028BF40F8042B08BF704748BF20F8022B25
:1003C00011F0804F18BF00F8012B7047704770473D
:1003D000704710B5203AC0F00B80B1E81850A0E883
:1003E0001850B1E81850A0E81850203ABFF4F5AF03
:1003F0005FEA027C24BFB1E81850A0E8185044BF5F
:1004000018C918C0BDE810405FEA827C24BF51F8CB
:10041000043B40F8043B08BF7047D20728BF31F8BF
:10042000023B48BF11F8012B28BF20F8023B48BF10
:1004300000F8012B7047431A28BF9A427FF6C9AFD4
:100440001044114410F0030F1EBF11F8013D521E5D
:1004500000F8013D10F0030F7FF4F6AF103AC0F042
:100460000A8010B531E9185020E91850103ABFF44D
:10047000F9AFBDE81040530724BF31E9081020E967
:10048000081044BF51F8043D40F8043D12F0030F3A
:1004900008BF7047D20728BF31F8023D48BF11F8A6
:1004A000012C28BF20F8023D48BF00F8012C7047FE
:1004B000754600F02BF8AE4605006946534620F01D
:1004C0000700854618B020B5FFF76CFEBDE8204058
:1004D0004FF000064FF000074FF000084FF0000B00
:1004E000AC46ACE8C009ACE8C009ACE8C009ACE86F
:1004F000C00921F007018D46704710B50446AFF3DF
:1005000000802046BDE81040FFF737BE0048704726
:100510001000002001491820ABBEFEE726000200B3
:100520007047000080B507F071FEFFE7FEE70000AE
:1005300080B582B007F06AFEEFF3108072B60190CA
:10054000FFE7FEE790B00F900E9100200D9009900C
:10055000FFE70E9800680D99C840002800F07F81E1
:10056000FFE70D99012088400C900E9800680C99C7
:1005700008400B900B980C99884240F06C81FFE783
:100580000E9840680590002851D0FFE70598012893
:100590003AD0FFE7059802283FD0FFE705980328E7
:1005A0005FD0FFE70598112832D0FFE705981228A1
:1005B00038D0FFE705980021C1F21101884236D0FA
:1005C000FFE705980021C1F2120188422FD0FFE712
:1005D00005980021C1F22101884228D0FFE7059843
:1005E0000021C1F22201884221D0FFE705980021B5
:1005F000C1F2310188421AD0FFE705980021C1F20B
:100600003201884213D02FE00E98C06809902CE088
:100610000E98C0680430099027E00E98C068083032
:10062000099022E00E98C0680C3009901DE00E98E9
:10063000806818B9FFE70420099011E00E988068DF
:10064000012806D1FFE7082009900C980F9908614E
:1006500005E0082009900C980F994861FFE7FFE733
:1006600003E00020099000E0FFE70B98FF2803D883
:10067000FFE70F98049003E00F9804300490FFE721
:10068000049808900B98FF2804D8FFE70D98800085
:10069000039006E00D996FF01F0000EB81000390BE
:1006A000FFE70398079008980068079A0F21914088
:1006B0008843099991400843089908600E98C079C9
:1006C000C006002840F1C680FFE7FFE741F21800AE
:1006D000C4F20200016841F001010160006800F00D
:1006E000010006900698FFE70D9820F0030008210E
:1006F000C4F2010140580A900D9800F003008100F7
:100700000F2000FA01F10A9888430A900F9840F6EA
:100710000001C4F20101884203D1FFE700200290EA
:1007200026E00F9840F60041C4F20101884203D14F
:10073000FFE70120019018E00F9841F20001C4F298
:100740000101884203D1FFE7022000900AE00F99DF
:1007500041F20042C4F201020420914208BF03208A
:100760000090FFE700980190FFE701980290FFE7F3
:1007700002980D9901F00301890000FA01F10A982D
:1007800008430A900A980D9921F003010822C4F247
:10079000010288500E988079C006002809D5FFE72D
:1007A0000B9A40F20841C4F2010108681043086046
:1007B00008E00B9A40F20841C4F201010868904336
:1007C0000860FFE70E9880798006002809D5FFE7CA
:1007D0000B9A40F20C41C4F2010108681043086012
:1007E00008E00B9A40F20C41C4F201010868904302
:1007F0000860FFE70E9880798007002809D5FFE799
:100800000B9A40F20441C4F20101086810430860E9
:1008100008E00B9A40F20441C4F2010108689043D9
:100820000860FFE70E988079C00748B1FFE70B9A90
:1008300040F20041C4F2010108681043086008E07A
:100840000B9A40F20041C4F201010868904308602D
:10085000FFE7FFE7FFE70D9801300D9079E610B054
:100860007047000082B00190ADF802108DF80120B1
:100870009DF8010028B1FFE7BDF802000199086169
:1008800005E0BDF80200000401990861FFE702B02D
:100890007047000044F2A060C2F200000068704798
:1008A00040F20500C2F20000027844F2A061C2F2F8
:1008B00000010868104408607047000080B542F2EB
:1008C0000001C4F20201086840F010000860032033
:1008D00000F096F8042000F005F800F03BF8002046
:1008E00080BD000080B582B0009040F20000C2F2EE
:1008F0000000006840F20501C2F200010A784FF4DE
:100900007A71B1FBF2F1B0FBF1F000F073FD20B1B0
:10091000FFE701208DF8070018E000980F280DD898
:10092000FFE700994FF0FF30002200F04FF80098E9
:1009300040F20801C2F20001086003E001208DF8D6
:10094000070003E000208DF80700FFE79DF807008F
:1009500002B080BD83B0FFE741F21800C4F202008C
:10096000016841F001010160006800F0010002909F
:100970000298FFE7FFE741F21C00C4F202000168A1
:1009800041F080510160006800F0805001900198B2
:10099000FFE7FFE70421C4F2010108680090009816
:1009A00020F0E0600090009840F000700090009807
:1009B0000860FFE703B0704780B582B08DF807008C
:1009C0009DF9070001F002FD02B080BD80B586B040
:1009D0008DF81700049103920020029001F00EFDA3
:1009E00002909DF91700019002980499039A01F072
:1009F000ABF90146019801F009FD06B080BD000089
:100A000080B582B00190019801F022FD02B080BD56
:100A100080B584B002900191029820B9FFE70120CF
:100A20008DF80F001BE1019842F20001C4F20201AF
:100A3000096801F00701884216D9FFE742F2000079
:100A4000C4F20200016821F00701019A114301601C
:100A5000006800F007000199884204D0FFE70120F8
:100A60008DF80F00FBE0FFE7029800788007002870
:100A70002AD5FFE7029800784007002809D5FFE74C
:100A800041F20401C4F20201086840F4E060086029
:100A9000FFE7029800780007002809D5FFE741F238
:100AA0000401C4F20201086840F460500860FFE7E6
:100AB00041F20401C4F20201086820F0F000029A39
:100AC000926810430860FFE702980078C00700288A
:100AD00060D0FFE70298406801280ED1FFE741F29D
:100AE0000000C4F2020000688003002804D4FFE77D
:100AF00001208DF80F00B2E021E002984068022842
:100B00000ED1FFE741F20000C4F20200006880014C
:100B1000002804D4FFE701208DF80F009FE00DE0CE
:100B200041F20000C4F2020000688007002804D4EB
:100B3000FFE701208DF80F0091E0FFE7FFE741F2AA
:100B40000401C4F20201086820F00300029A52680E
:100B500010430860FFF79EFE0090FFE741F204009B
:100B6000C4F20200006800F00C0002994968B0EB82
:100B7000810F0ED0FFE7FFF78DFE0099401A41F27A
:100B80008931884204D3FFE703208DF80F0066E027
:100B9000E4E7FFE7019842F20001C4F202010968AC
:100BA00001F00701884216D2FFE742F20000C4F2CA
:100BB0000200016821F00701019A114301600068F9
:100BC00000F007000199884204D0FFE701208DF86A
:100BD0000F0044E0FFE702980078400700280CD59A
:100BE000FFE741F20401C4F20201086820F4E0606A
:100BF000029AD26810430860FFE702980078000765
:100C000000280DD5FFE741F20401C4F20201086893
:100C100020F46050029A126940EAC2000860FFE7BF
:100C200000F04CF841F20401C4F202010968C9B2B3
:100C30000A094AF2AE31C0F60001895CC84040F2B0
:100C40000001C2F20001086040F20800C2F2000098
:100C50000068FFF747FE00208DF80F00FFE79DF8C2
:100C60000F0004B080BD000040F20000C2F200009E
:100C70000068704780B5FFF7F7FF41F20401C4F246
:100C800002010968C1F302224AF2BE31C0F6000136
:100C9000895CC84080BD000080B5FFF7E5FF41F2E8
:100CA0000401C4F202010968C1F3C2224AF2BE3152
:100CB000C0F60001895CC84080BD000086B00020FD
:100CC0000590049003900290019041F20400C4F258
:100CD000020000680590059800F00C0001460091A4
:100CE00000283FD0FFE70098042804D0FFE70098D1
:100CF000082806D037E041F20020C0F27A000190C7
:100D000037E00598C0F383414AF2C630C0F60000D0
:100D1000405C02909DF81600C007C0B1FFE741F2A9
:100D20000400C4F202000068C0F340414AF2D63029
:100D3000C0F60000405C0490029841F20021C0F22D
:100D40007A0148430499B0FBF1F0039007E0029860
:100D500040F60011C0F23D0148430390FFE70398BD
:100D6000019006E0FFE741F20020C0F27A00019016
:100D7000FFE7019806B0704780B586B004900498EC
:100D800020B9FFE701208DF817002EE304980078C2
:100D9000C007002800F0AE80FFE741F20400C4F273
:100DA0000200006800F00C00042813D0FFE741F2B5
:100DB0000400C4F20200006800F00C0008281BD1F7
:100DC000FFE741F20400C4F202000068C0030028FB
:100DD00012D5FFE741F20000C4F202000068800370
:100DE000002808D5FFE70498406820B9FFE70120F4
:100DF0008DF81700F9E27CE0FFE704984068B0F551
:100E0000803F09D1FFE741F20001C4F20201086806
:100E100040F48030086032E00498406868B9FFE729
:100E200041F20001C4F20201086820F48030086039
:100E3000086820F48020086020E004984068B0F53D
:100E4000A02F0DD1FFE741F20001C4F202010868B2
:100E500040F480200860086840F4803008600CE0AE
:100E600041F20001C4F20201086820F480300860F9
:100E7000086820F480200860FFE7FFE7FFE7FFE74E
:100E800004984068D0B1FFE7FFF704FD0390FFE747
:100E900041F20000C4F202000068800300280CD474
:100EA000FFE7FFF7F7FC0399401A652804D3FFE733
:100EB00003208DF8170098E2EAE719E0FFF7EAFC53
:100EC0000390FFE741F20000C4F2020000688003D3
:100ED00000280CD5FFE7FFF7DDFC0399401A6528D1
:100EE00004D3FFE703208DF817007EE2EAE7FFE76F
:100EF000FFE7FFE7049800788007002840F18D8025
:100F0000FFE741F20400C4F20200006810F00C0F89
:100F100013D0FFE741F20400C4F20200006800F0C1
:100F20000C00082829D1FFE741F20400C4F20200B6
:100F30000068C003002820D4FFE741F20000C4F29B
:100F4000020000688007002809D5FFE704980069BF
:100F5000012804D0FFE701208DF8170045E241F297
:100F60000001C4F20201086820F0F800049A5269F6
:100F700040EAC2000860FFE74EE00498006958B3F9
:100F8000FFE70021C4F2422101200860FFF782FC44
:100F90000390FFE741F20000C4F2020000688007FE
:100FA00000280CD4FFE7FFF775FC0399401A0328CB
:100FB00004D3FFE703208DF8170016E2EAE741F2B9
:100FC0000001C4F20201086820F0F800049A526996
:100FD00040EAC20008601EE00021C4F24221002065
:100FE0000860FFF757FC0390FFE741F20000C4F2EE
:100FF00002000068800700280CD5FFE7FFF74AFCD5
:101000000399401A032804D3FFE703208DF8170043
:10101000EBE1EAE7FFE7FFE7FFE704980078000766
:10102000002848D5FFE70498806918B3FFE740F22D
:101030008041C4F2422101200860FFF72BFC03909D
:10104000FFE741F22400C4F2020000688007002894
:101050000CD4FFE7FFF71EFC0399401A032804D3C2
:10106000FFE703208DF81700BFE1EAE7012000F059
:10107000A1FE1FE040F28041C4F24221002008603E
:10108000FFF708FC0390FFE741F22400C4F20200DE
:101090000068800700280CD5FFE7FFF7FBFB0399EA
:1010A000401A032804D3FFE703208DF817009CE1C2
:1010B000EAE7FFE7FFE7049800784007002840F1DF
:1010C000D880FFE700208DF8070041F21C00C4F231
:1010D00002000068C000002813D4FFE7FFE741F2D8
:1010E0001C00C4F20200016841F0805101600068F8
:1010F00000F0805000900098FFE701208DF8070075
:10110000FFE747F20000C4F200000068C0050028B5
:1011100022D4FFE747F20001C4F20001086840F45E
:1011200080700860FFF7B6FB0390FFE747F200000E
:10113000C4F200000068C00500280CD4FFE7FFF7E8
:10114000A9FB0399401A652804D3FFE703208DF813
:1011500017004AE1EAE7FFE7FFE70498C0680128C3
:1011600009D1FFE741F22001C4F20201086840F012
:101170000100086031E00498C06868B9FFE741F2F7
:101180002001C4F20201086820F00100086008682C
:1011900020F0040008601FE00498C06805280DD105
:1011A000FFE741F22001C4F20201086840F00400A8
:1011B0000860086840F0010008600CE041F220017E
:1011C000C4F20201086820F001000860086820F0FD
:1011D00004000860FFE7FFE7FFE7FFE70498C06847
:1011E000E0B1FFE7FFF756FB0390FFE741F2200075
:1011F000C4F202000068800700280ED4FFE7FFF762
:1012000049FB0399401A41F28931884204D3FFE730
:1012100003208DF81700E8E0E8E71BE0FFF73AFB52
:101220000390FFE741F22000C4F20200006880074B
:1012300000280ED5FFE7FFF72DFB0399401A41F276
:101240008931884204D3FFE703208DF81700CCE0F2
:10125000E8E7FFE79DF80700012809D1FFE741F221
:101260001C01C4F20201086820F080500860FFE70A
:10127000FFE70498C069002800F0B380FFE741F25F
:101280000400C4F20200006800F00C00082800F01E
:101290008280FFE70498C06902285CD1FFE76021E3
:1012A000C4F2422100200860FFF7F4FA0390FFE740
:1012B00041F20000C4F202000068800100280CD551
:1012C000FFE7FFF7E7FA0399401A032804D3FFE783
:1012D00003208DF8170088E0EAE70498006AB0F56B
:1012E000803F0CD1FFE741F20401C4F2020108681B
:1012F00020F40030049A926810430860FFE741F23E
:101300000401C4F20201086820F47410049B1A6AF4
:101310005B6A1A43104308606021C4F24221012035
:101320000860FFF7B7FA0390FFE741F20000C4F24C
:1013300002000068800100280CD4FFE7FFF7AAFA3A
:101340000399401A032804D3FFE703208DF8170000
:101350004BE0EAE71EE06021C4F242210020086071
:10136000FFF798FA0390FFE741F20000C4F2020091
:101370000068800100280CD5FFE7FFF78BFA03997E
:10138000401A032804D3FFE703208DF817002CE050
:10139000EAE7FFE724E00498C069012804D1FFE7E9
:1013A00001208DF8170020E041F20400C4F2020091
:1013B00000680290029800F480300499096A88421B
:1013C00008D1FFE7029800F470100499496A884236
:1013D00004D0FFE701208DF8170006E0FFE7FFE7E4
:1013E000FFE700208DF81700FFE79DF8170006B013
:1013F00080BD000080B582B00190019800F0F8FC3B
:1014000002B080BD85B003900291FFE7039890F889
:101410003C00012804D1FFE702208DF813005BE0B7
:101420000399012081F83C00FFE7FFE703990220C0
:1014300081F83D00039800684068019003980068B7
:1014400080680090019820F0700001900298016877
:10145000019808430190019803990968486003982E
:10146000006842F60041C4F20101884218D0FFE74B
:1014700003980068B0F1804F12D0FFE7039800682E
:1014800040F20041C4F20001884209D0FFE703980E
:10149000006840F60001C4F2000188420ED1FFE767
:1014A000009820F08000009002984168009808435E
:1014B00000900098039909688860FFE7039901206C
:1014C00081F83D00FFE70399002081F83C00FFE729
:1014D00000208DF81300FFE79DF8130005B070475A
:1014E00080B58CB00B9000200A900990089007906E
:1014F0000B980068B0F1804F50D1FFE7FFE741F251
:101500001800C4F20200016841F00801016000689F
:1015100000F0080006900698FFE7FFE741F2180088
:10152000C4F20200016841F004010160006800F0AB
:10153000040005900598FFE74FF4806007900220B3
:10154000009008900A9040F60040C4F2010007A9FC
:101550000191FEF7F7FF009801994FF400420792BE
:1015600008900A9040F60000C4F20100FEF7EAFF7E
:10157000FFE70421C4F2010108680490049820F4F4
:1015800040700490049840F0E0600490049840F4A7
:101590004070049004980860FFE74BE00B980068E7
:1015A00040F20041C4F2000188421CD1FFE7FFE78E
:1015B00041F21800C4F20200016841F00401016028
:1015C000006800F0040003900398FFE7C020079034
:1015D000022008900A9040F60000C4F2010007A91A
:1015E000FEF7B0FF25E00B98006840F60001C4F25A
:1015F000000188421CD1FFE7FFE741F21800C4F266
:101600000200016841F008010160006800F0080074
:1016100002900298FFE7C0200790022008900A90ED
:1016200040F60040C4F2010007A9FEF78BFFFFE778
:10163000FFE7FFE70CB080BD80B586B00490039152
:10164000029200208DF80700FFE7049890F83C0014
:10165000012804D1FFE702208DF817003AE0049931
:10166000012081F83C00FFE7FFE7029800900C287A
:1016700021D80099DFE801F0071F1F1F0D1F1F1F52
:10168000131F1F1F190004980068039900F0A6FC9F
:1016900015E004980068039900F008FD0FE0049835
:1016A0000068039900F06EFD09E004980068039952
:1016B00000F0D4FD03E001208DF80700FFE7FFE70D
:1016C0000499002081F83C00FFE79DF807008DF8A1
:1016D0001700FFE79DF8170006B080BD80B582B007
:1016E0000090009820B9FFE701208DF807003FE047
:1016F000009890F83D0040B9FFE70099002081F87C
:101700003C00009800F038F8FFE70099022081F8CB
:101710003D00009951F8040B00F0DCFB009901201A
:1017200081F84600FFE70099012081F83E0000990A
:1017300081F83F00009981F84000009981F841004C
:10174000FFE7FFE70099012081F84200009981F846
:101750004300009981F84400009981F84500FFE7B3
:101760000099012081F83D0000208DF80700FFE777
:101770009DF8070002B080BD80B588B0079007983B
:101780000068B0F1804F19D1FFE7FFE741F21C007C
:10179000C4F20200016841F001010160006800F03C
:1017A000010006900698FFE71C20039000221146D6
:1017B000FFF70CF90398FFF7FFF845E0079800687A
:1017C00040F20041C4F20001884219D1FFE7FFE76F
:1017D00041F21C00C4F20200016841F00201016004
:1017E000006800F0020005900598FFE71D200290B8
:1017F00000221146FFF7EAF80298FFF7DDF822E031
:101800000798006840F60001C4F20001884219D12F
:10181000FFE7FFE741F21C00C4F20200016841F05B
:1018200004010160006800F0040004900498FFE7E0
:101830001E20019000221146FFF7C8F80198FFF71B
:10184000BBF8FFE7FFE7FFE708B080BD80B582B0D7
:101850000090009820B9FFE701208DF8070040E0D4
:101860000098806908B1FFE700E0FFE7009890F872
:10187000410040B9FFE70099002081F8400000983E
:1018800000F034F8FFE70099242081F84100009827
:101890000168C86820F40050C860009800F02AFD74
:1018A00000980168086920F4904008610098016878
:1018B000486920F02A00486100980168C86840F42F
:1018C0000050C860009900204864009A202182F8E6
:1018D0004110009A82F84210009948638DF8070081
:1018E000FFE79DF8070002B080BD000080B58CB016
:1018F0000B9000200A900990089007900B980068C0
:1019000043F60001C4F20101884243D1FFE7FFE73B
:1019100041F21800C4F20200016841F48041016004
:10192000006800F4804006900698FFE7FFE741F268
:101930001800C4F20200016841F00401016000686F
:1019400000F0040005900598FFE74FF40070079041
:101950000220089003200A9040F60000C4F2010023
:10196000019007A90291FEF7EDFD019802994FF44D
:10197000806207920022039208920992FEF7E2FD2C
:10198000039A252004900821FFF720F80498FFF718
:1019900013F8FFE70CB080BD80B506F037FCFFE719
:1019A000FEE7000080B58EB000200D900C900B90EB
:1019B0000A90FFE741F21800C4F20200016841F00A
:1019C00020010160006800F0200009900998FFE7FD
:1019D000FFE741F21800C4F20200016841F004017F
:1019E0000160006800F0040008900898FFE7FFE736
:1019F00041F21800C4F20200016841F008010160E0
:101A0000006800F0080007900798FFE740F6000024
:101A1000C4F20100019041F6101100220392FEF77A
:101A200021FF0198202101220292FEF71BFF039A59
:101A300040F60040C4F2010005904BF61111FEF78C
:101A400011FF029A059840F22E21FEF70BFF019834
:101A5000029A039941F630130A930B920C910221DA
:101A600004910D910AA90691FEF76CFDDDF808C0FE
:101A7000039B049A059806994BF63F3ECDF828E063
:101A8000CDF82CC00C930D92FEF75CFD0EB080BD1E
:101A900080B58AB0002100910991089107910691C3
:101AA0000591049103910291019141F2A010C2F2BB
:101AB00000004FF0804202604722426081604FF692
:101AC000FF72C26001618161FFF708FE18B1FFE794
:101AD000FEF72EFDFFE700200890099041F2A010CC
:101AE000C2F2000008A9FFF78DFC18B1FFE7FEF76E
:101AF0001FFDFFE730200190002202920392059221
:101B000041F2A010C2F2000001A9FFF795FD18B143
:101B1000FFE7FEF70DFDFFE741F2A010C2F2000063
:101B200001A90822FFF788FD18B1FFE7FEF700FDC5
:101B3000FFE741F2A010C2F20000FFF7D1FC0AB0AB
:101B400080BD000080B58AB0002100910991089104
:101B5000079106910591049103910291019141F23F
:101B6000E810C2F2000040F20042C4F2000202603B
:101B70004722426081604FF6FF72C260016181615D
:101B8000FFF7ACFD18B1FFE7FEF7D2FCFFE700203E
:101B90000890099041F2E810C2F2000008A9FFF78E
:101BA00031FC18B1FFE7FEF7C3FCFFE730200190DE
:101BB000002202920392059241F2E810C2F2000064
:101BC00001A9FFF739FD18B1FFE7FEF7B1FCFFE708
:101BD00041F2E810C2F2000001A90422FFF72CFD37
:101BE00018B1FFE7FEF7A4FCFFE741F2E810C2F2EC
:101BF0000000FFF775FC0AB080BD000080B58AB018
:101C00000021009109910891079106910591049195
:101C100003910291019141F23020C2F2000040F69E
:101C20000002C4F2000202604722426081604FF667
:101C3000FF72C26001618161FFF750FD18B1FFE7DB
:101C4000FEF776FCFFE700200890099041F2302073
:101C5000C2F2000008A9FFF7D5FB18B1FFE7FEF7B5
:101C600067FCFFE730200190002202920392059268
:101C700041F23020C2F2000001A9FFF7DDFC18B1EB
:101C8000FFE7FEF755FCFFE741F23020C2F200000B
:101C900001A90422FFF7D0FC18B1FFE7FEF748FCCA
:101CA000FFE741F23020C2F20000FFF719FC0AB052
:101CB00080BD000080B582B000200090132108F0A4
:101CC00033FB009941F27820C2F20000019043F604
:101CD0000002C4F2010202604FF4E132426081600E
:101CE000C16001610C2242618161C161FFF7AEFDFB
:101CF00018B1FFE7FEF71CFCFFE741F27820C2F2C3
:101D000000004068B0F5E13F0FD0FFE741F27820D6
:101D1000C2F200004FF4E1314160FFF797FD18B1C6
:101D2000FFE7FEF705FCFFE7FFE702B080BD00001C
:101D300080B506F06BFAFFE7FEE7000080B506F01D
:101D400065FAFFE7FEE7000088B00790069105926C
:101D5000079800F0070004900498C0F107000528D8
:101D600003D3FFE70420019004E00498C0F10700CA
:101D70000190FFE70198039004980430062803D8E7
:101D8000FFE70020009003E0049803380090FFE78D
:101D90000098029006980399012202FA01F1013994
:101DA0000840029B984005999A40013A1140084327
:101DB00008B0704782B00190019840F20001C2F271
:101DC00000010968C90844F6D352C1F26202A1FBBE
:101DD0000221890948430090FFE700BFFFE7009810
:101DE000411E00910028F8D1FFE702B070470000C3
:101DF00080B582B0009000980138B0F1807F03D3A5
:101E0000FFE70120019019E0009801384EF214011B
:101E1000CEF2000108604FF0FF300F2100F0F6FA1B
:101E20004EF21801CEF20001002008604EF21002BE
:101E3000CEF20002072111600190FFE7019802B085
:101E400080BD000080B5FEF72BFD80BD80B590B051
:101E500006A800902821FEF792FA00980023059327
:101E60000493039302930193012206924FF480316D
:101E7000079108930A9202220D920E914FF4E011FD
:101E80000F91FEF779FF18B1FFE7FEF751FBFFE76F
:101E90000F20019002210291002003904FF48062F4
:101EA0000492059001A8FEF7B3FD18B1FFE7FEF715
:101EB0003FFBFFE710B080BD7047000080B506F023
:101EC0000DFD80BD80B506F019FD80BD80B506F022
:101ED00027FD80BD83B002900191029800680090B8
:101EE000029842F60041C4F20101884215D0FFE792
:101EF0000298B0F1804F10D0FFE7029840F2004105
:101F0000C4F20001884208D0FFE7029840F60001C1
:101F1000C4F2000188420AD1FFE7009820F0700067
:101F2000009001984168009808430090FFE70298EC
:101F300042F60041C4F20101884215D0FFE7029841
:101F4000B0F1804F10D0FFE7029840F20041C4F298
:101F50000001884208D0FFE7029840F60001C4F271
:101F6000000188420AD1FFE7009820F440700090F9
:101F70000198C168009808430090FFE7009820F09E
:101F8000800001994969084300900098029908600F
:101F9000019880680299C862019800680299886275
:101FA000029842F60041C4F20101884205D1FFE7E0
:101FB0000198006902990863FFE7029901204861CE
:101FC00002980069C00730B1FFE70299086920F064
:101FD00001000861FFE703B07047000085B004907E
:101FE00003910498006A01900499086A20F00100A6
:101FF00008620498406800900498806902900298F2
:1020000020F070000290029820F0030002900398E4
:102010000168029808430290019820F002000190A4
:1020200003988168019808430190049842F60041A2
:10203000C4F2010188420ED1FFE7019820F00800A8
:1020400001900398C168019808430190019820F01D
:1020500004000190FFE7049842F60041C4F2010138
:10206000884213D1FFE7009820F480700090009818
:1020700020F4007000900398416900980843009094
:1020800003988169009808430090FFE7009804993D
:1020900048600298049988610398406804994863ED
:1020A00001980499086205B07047000085B004905B
:1020B00003910498006A01900499086A20F01000C6
:1020C0000862049840680090049880690290029821
:1020D00020F4E0400290029820F4407002900398AF
:1020E0000168029840EA01200290019820F0200047
:1020F000019003988168019840EA011001900498CA
:1021000042F60041C4F2010188420FD1FFE7019875
:1021100020F0800001900398C168019840EA011006
:102120000190019820F040000190FFE7049842F6EA
:102130000041C4F20101884215D1FFE7009820F464
:1021400080600090009820F400600090039841693E
:10215000009840EA8100009003988169009840EA65
:1021600081000090FFE70098049948600298049964
:10217000886103984068049988630198049908620B
:1021800005B0704785B0049003910498006A0190EF
:102190000499086A20F480700862049840680090EE
:1021A0000498C0690290029820F070000290029892
:1021B00020F00300029003980168029808430290FF
:1021C000019820F40070019003988168019840EA1A
:1021D00001200190049842F60041C4F201018842B6
:1021E0000FD1FFE7019820F4006001900398C168C7
:1021F000019840EA01200190019820F4806001904C
:10220000FFE7049842F60041C4F20101884215D16B
:10221000FFE7009820F480500090009820F40050D0
:10222000009003984169009840EA011000900398DB
:102230008169009840EA01100090FFE70098049936
:10224000486002980499C861039840680499C8637B
:1022500001980499086205B07047000085B00490A9
:1022600003910498006A01900499086A20F4805050
:1022700008620498406800900498C069029002982F
:1022800020F4E0400290029820F4407002900398FD
:102290000168029840EA01200290019820F4005061
:1022A000019003988168019840EA013001900498F8
:1022B00042F60041C4F2010188420BD1FFE70098C9
:1022C00020F48040009003984169009840EA811012
:1022D0000090FFE700980499486002980499C8614B
:1022E000039840680499086401980499086205B04D
:1022F0007047000080B584B00390039800680069BF
:1023000020F44050039A1168D26810430861039981
:1023100088680A6949691043084302900398006875
:10232000C06841F20C618843029908430399096827
:10233000C86003980068406920F44070039A1168EF
:102340009269104348610398006843F60001C4F2A3
:102350000101884204D1FFE7FEF79EFC019003E0F3
:10236000FEF788FC0190FFE7019819214843039A82
:10237000116852689200B0FBF2FC48F21F52C5F29D
:10238000EB12ACFB02304309642003FB10CC32207B
:1023900000EB0C10A0FB0202F02000EA521000EB50
:1023A0000310C2F343121044886004B080BD0000E3
:1023B00080B506F0EBFA80BD80B505F047FE80BD24
:1023C00080B505F023FFFFE7FEE7000081B08DF840
:1023D00003009DF9030000280ED4FFE79DF90310C8
:1023E00001F01F02012090404A094EF20011CEF286
:1023F000000141F82200FFE701B070474EF60C5093
:10240000CEF200000068C0F30220704782B08DF861
:10241000070000919DF9070000280AD4FFE7009803
:1024200000019DF907104EF20042CEF200028854DE
:102430000BE0009800019DF8071001F00F014EF627
:102440001452CEF200028854FFE702B07047000039
:1024500083B00290029800F0070000904EF60C51F5
:10246000CEF200010868019001984FF6FF0210407B
:1024700001900198009A40EA02200022C0F2FA522C
:10248000104301900198086003B0704782B001903A
:102490008DF8031001989DF8031000EB8100343093
:1024A00002B0704781B08DF803009DF803104AF226
:1024B000D830C0F60000405C01B0704780B540F2F3
:1024C000B401C2F2000108680130086044F25441CE
:1024D000C2F200010020C88644F29441C2F2000119
:1024E000088040F6F861C2F20001088041F2C02184
:1024F000C2F20001086040F2D401C2F2000108708B
:1025000043F61861C2F20001087043F61161C2F28D
:102510000001087043F61061C2F20001087043F632
:102520001461C2F20001086043F60C61C2F20001BE
:10253000086004F06BFE80BD80B586B005904FF05A
:10254000FF30049000208DF80F008DF80E00FFE79B
:102550009DF80E007F2829DCFFE79DF80E0004F0AF
:10256000E5FF029005980299884205D9FFE7059892
:102570000299401A009004E002980599401A0090D0
:10258000FFE70098019001980499884207D2FFE77D
:10259000019804909DF80E008DF80F00FFE7FFE70B
:1025A0009DF80E0001308DF80E00D1E79DF80F0068
:1025B00006B080BD80B586B005908DF813108DF8FB
:1025C00012209DF81310022088400390059800699E
:1025D0000599C96808400399084201D1FFE776E0F0
:1025E0000398C043059908619DF8121040F27000ED
:1025F000C2F20000405C08B9FFE768E09DF81220D5
:1026000040F6FA60C2F20000815C81F00101815461
:102610009DF81210405C88B9FFE79DF8121042F651
:102620000050C2F2000030F811009DF8122040F670
:10263000EC61C2F2000121F81200FFE705989DF855
:102640001310FFF723FF00689DF8122040F6EC619D
:10265000C2F2000131F812100844ADF80A00BDF8CA
:102660000A000599496A401AADF80800BDF808004B
:10267000082806D3FFE7BDF90800B0F1FF3F1ADCD8
:10268000FFE705989DF81310042205F027F8039A38
:102690000599C8689043C8609DF8122040F2700107
:1026A000C2F200010020885442F6A841C2F20001A3
:1026B000012008700BE0BDF80A00019005989DF814
:1026C0001310FFF7E3FE014601980860FFE706B02C
:1026D00080BD000081B08DF803008DF802109DF8D8
:1026E00002209DF803100C20C84000F0010080F08B
:1026F0000101002A18BF084601B0704770B58BB0C1
:102700009C4696460C46054612981199109A0F9BC6
:102710000A950994CDF820E08DF81FC08DF81E3081
:102720008DF81D208DF81C108DF81B0000200590E1
:10273000FFE70598052800F22E81FFE70998059923
:1027400000EBC1000179012089070029029014D40F
:10275000FFE79DF81E10002049060029019009D5C9
:10276000FFE70998059900EBC1000079C0F3C000AC
:102770000190FFE701980290FFE7029800F0010046
:1027800004909DF81F100120009011B3FFE79DF801
:102790001E100120C9070090D9B1FFE79DF81D1058
:1027A00001200090A9B9FFE79DF81C1001200090BE
:1027B00079B9FFE79DF81B10059A0120D140C907A0
:1027C000009031B1FFE79DF81E00C0F3800000903B
:1027D000FFE7009800F0010003909DF81E0010F044
:1027E000600F3FD1FFE70A9BDDF814C003EBCC017B
:1027F000099A02EBCC0052F83C2043F83C20406898
:1028000048600A98059900EBC101087900F00700BB
:1028100008719DF81E004006002812D5FFE70998B0
:10282000059900EBC10000790007002809D5FFE7F2
:102830000A98059900EBC101087940F0020008717F
:10284000FFE7039838B1FFE70A98059900EBC1014B
:1028500000200871FFE70A9805990144002081F8DB
:10286000600093E00398D0B1FFE70A9BDDF814C045
:1028700003EBCC01099A02EBCC0052F83C2043F860
:102880003C20406848600A98059900EBC10100208F
:1028900008710A99059A114481F8600075E004985E
:1028A000C0B3FFE70A980599084490F8600060B14A
:1028B000FFE70A98059A00EBC2004079099901EBFD
:1028C000C2014979884207D0FFE708980A99059A1A
:1028D00001EB82010863FFE70A9BDDF814C003EBFC
:1028E000CC01099A02EBCC0052F83C2043F83C2082
:1028F000406848600A98059900EBC101087900F02A
:102900000500023008710A9805990144012081F8F8
:10291000600039E00A980599084490F86000C8B151
:10292000FFE708980A99059A01EB820188640898E4
:102930000A99059A01EB8201096B401AC72808DC45
:10294000FFE70A98059900EB8101086BC83088649D
:10295000FFE7FFE70A9805990144002081F860002D
:1029600008980A99059A01EB8201096B401AC82858
:1029700009DBFFE70A98059900EBC101087900F02F
:10298000FD000871FFE7FFE7FFE7FFE7FFE70598B6
:1029900001300590CDE60BB070BD000080B544F26B
:1029A0009C60C2F20000008880B1FFE744F29C60A6
:1029B000C2F20000018801390180028844F27C00E3
:1029C000C2F20000411CFDF76EFCFFE780BD000075
:1029D00080B5A0B0DDF888C08DF87E001E918DF81E
:1029E00077201C932299002008709DF87E001628FD
:1029F00012D1FFE705F0C6FD41F2C821C2F2000185
:102A000008601E989DF877101C9A229B06F0BEFD68
:102A10008DF87F0000F0C8BD9DF87E00172841D1D9
:102A2000FFE79DF87700042805D0FFE701208DF827
:102A30007F0000F0B9BD44F25440C2F2000090F8AB
:102A4000340070B9FFE744F25440C2F20000C08E77
:102A500038B9FFE743F61060C2F20000007828B1F1
:102A6000FFE704208DF87F0000F09EBD1E9807F060
:102A70003FFC1B901B9845F60141C0F2265188424D
:102A800005D3FFE703208DF87F0000F08DBD1B9874
:102A900043F61461C2F20001086000208DF87F0047
:102AA00000F082BD9DF87E00012805DBFFE79DF860
:102AB0007E00162805DBFFE702208DF87F0000F07E
:102AC00073BD9DF87E00122811D0FFE79DF87700B6
:102AD0009DF87E204AF29841C0F60001895C884248
:102AE00005D0FFE701208DF87F0000F05DBD05F007
:102AF00049FD41F2C821C2F20001086040F27D00A8
:102B0000C2F20000007868B1FFE79DF87E0001285E
:102B100008D0FFE79DF87E00032803D0FFE700F010
:102B20004FFEFFE79DF8770020B1FFE71E98007881
:102B30000C9002E000200C90FFE70C988DF86B00E1
:102B40009DF87E00062833DBFFE79DF87E000B280A
:102B50002EDCFFE79DF86B00062805D3FFE7032076
:102B60008DF87F0000F020BD44F25440C2F2000016
:102B700090F830009DF86B10C840C00728B9FFE7F7
:102B800004208DF87F0000F00FBD44F25440C2F2E3
:102B9000000090F8340050B1FFE79DF87E000B284C
:102BA00005D0FFE704208DF87F0000F0FDBCFFE7B3
:102BB00044F25440C2F2000090F83400A0B1FFE7A4
:102BC0009DF87E0005280AD0FFE79DF87E000C28BE
:102BD00005D0FFE79DF87E00102805D1FFE704200F
:102BE0008DF87F0000F0E0BC9DF87E0001380146C2
:102BF0000B91142800F2D0840B99DFE811F0420009
:102C00004D005B0062007200B300D8001D0130016E
:102C10003001A301E801500250029302B3022803DD
:102C2000570335034403150000F0CAFD44F2544035
:102C3000C2F2000000220A9280F8322080F831208F
:102C400090F83300114605F09BF80A9840F27D0297
:102C5000C2F200020121117040F27C01C2F20001B7
:102C6000087005F08FFC811C40F27800C2F2000071
:102C70000160006843F61C61C2F20001086000F0C8
:102C80008FBC1C994F2008701C994B2048702299CA
:102C90000220087000F084BC2299572008701C980C
:102CA00022990A784AF24041C0F60001FDF7B6FACF
:102CB00000F076BC1C9807F015FA2299087000F015
:102CC0006FBC00F07DFD42F60C51C2F20001002005
:102CD000087044F25441C2F2000181F8350000F05E
:102CE0005FBC9DF86B00402805DBFFE703208DF8F3
:102CF0007F0000F059BCFFF7E1FB9DF86B0044F248
:102D00005441C2F2000181F8300000208DF86A00C1
:102D1000FFE79DF86A00052822D8FFE79DF86B00C1
:102D20009DF86A10C840C00798B9FFE79DF86A008F
:102D300007F068FA9DF86A1044F25440C2F20000AD
:102D400000EBC100002101719DF86A0005F07EF8DA
:102D5000FFE7FFE79DF86A0001308DF86A00D8E7C9
:102D600000F01EBC1E984078022805DBFFE7032018
:102D70008DF87F0000F018BC1E98407828B9FFE756
:102D80009DF86B0007F03EFAFFE71E9840789DF82B
:102D90006B2044F25441C2F2000101EBC201087100
:102DA0009DF86B001E99497805F050F8F8E344F25D
:102DB0005440C2F2000090F83100A0B9FFE744F29D
:102DC0005440C2F2000090F8320060B9FFE705F00D
:102DD000D9FB43F61C61C2F200010968401AB0F148
:102DE000FF3F04DCFFE704208DF87F00DCE39DF863
:102DF0006B1044F25440C2F2000050F8310001F070
:102E000097FD20B9FFE703208DF87F00CCE39DF804
:102E10006B1044F25440C2F2000000EBC1000121EB
:102E200001719DF86B0005F011F89DF86B0007F03B
:102E3000F5F88DF87F00B7E39DF86B0007F0E2F935
:102E40009DF86B1044F25440C2F2000000EBC10048
:102E5000002101719DF86B0004F0F8FFA0E39DF8DC
:102E60007E000A2809D1FFE71E984078802804DBFD
:102E7000FFE703208DF87F0096E39DF87E000A2887
:102E800006D1FFE71E98407804F050FB099005E05A
:102E90001E98013007F02CFA0990FFE70998199065
:102EA000199801F045FDADF86200BDF8620020B947
:102EB000FFE703208DF87F0076E3BDF8620004F0A1
:102EC00045FF9DF86B2044F25441C2F2000141F8E5
:102ED00032009DF87E000A2804D1FFE71E98407852
:102EE00008900BE09DF86B1044F25440C2F20000D1
:102EF00050F83100FFF720FB0890FFE708999DF894
:102F00006B2044F25440C2F2000000EBC202D171C7
:102F10009DF86B1000EBC100407990B1FFE79DF880
:102F20006B00BDF8621007F053F99DF86B0044F296
:102F30005441C2F2000101EBC001C97901F098FED1
:102F4000FFE72DE31E984078022804DBFFE703200B
:102F50008DF87F0028E39DF86B1044F25440C2F2D4
:102F6000000000EBC10080791E994978884201D1A8
:102F7000FFE715E39DF86B0005F05EFC9DF86B1014
:102F8000012000FA01F240F29801C2F20001087833
:102F9000104308701E9840789DF86B2044F254410D
:102FA000C2F2000101EBC20188719DF86B001E990D
:102FB000497804F02BFF05F0E5FA02309DF86B200C
:102FC00040F28001C2F2000141F82200E8E29DF8DF
:102FD0006B00082804DBFFE703208DF87F00E3E2A5
:102FE00041F2C430C2F20000007840B3FFE741F282
:102FF000B030C2F20000007820B1FFE704208DF865
:103000007F00D1E200201790FFE717987F2815D89E
:10301000FFE7179800EB800142F2D400C2F20000F3
:1030200000EB8100007C20B1FFE704208DF87F00D9
:10303000BAE2FFE7179801301790E6E7FFE70020B4
:103040008DF85B00FFE79DF85B00052816D8FFE7C9
:103050009DF85B1044F25440C2F2000000EBC10046
:10306000407920B1FFE704208DF87F009CE2FFE764
:103070009DF85B0001308DF85B00E4E79DF86B1074
:1030800044F25440C2F2000080F8331090F831103E
:1030900090F8322090F8330004F072FE80E29DF840
:1030A0006B00022804DBFFE703208DF87F007BE242
:1030B0009DF86B0020B1FFE7002007F0D3F8FFE791
:1030C0009DF87E000D2809D1FFE79DF86B0044F2C2
:1030D0005441C2F2000181F831000EE09DF86B000E
:1030E00044F25441C2F2000181F8320042F60A6112
:1030F000C2F2000100200870FFE744F25440C2F21F
:10310000000090F8311090F8322090F8330004F06D
:1031100037FE05F037FA023043F61C61C2F20001B7
:1031200008603DE2002007F09DF844F25440C2F2EE
:1031300000000122079280F8322090F8311090F8B8
:10314000330004F01DFE079842F60A61C2F2000146
:10315000087005F017FA023043F62061C2F2000150
:1031600008601DE244F25440C2F2000090F83100C1
:1031700010BBFFE744F25440C2F2000090F8320066
:10318000D0B9FFE744F25440C2F20000C08E98B1BB
:10319000FFE743F61160C2F20000007860B9FFE774
:1031A00005F0F0F943F61C61C2F200010968401A0B
:1031B000B0F1FF3F04DCFFE704208DF87F00F3E16E
:1031C00000208DF85A00FFE79DF85A00052819D80D
:1031D000FFE79DF85A0007F015F89DF85A1044F2E1
:1031E0005440C2F2000000EBC100002101719DF8C3
:1031F0005A0004F02BFEFFE79DF85A0001308DF8CD
:103200005A00E1E744F25441C2F200010591002066
:103210000690886305F0B6F905990246069864326F
:1032200042F6AC43C2F200031A6040F2B403C2F2A9
:1032300000031A6801321A60012281F8342042F634
:103240000C52C2F20002107081F83500A8E19DF81E
:103250006B00022804DBFFE703208DF87F00A3E169
:10326000012006F0FFFF9BE144F25440C2F200004F
:1032700090F8340020B1FFE704208DF87F0093E13F
:10328000FFF71CF98CE144F25440C2F20000C18EF9
:10329000C1F500711C9A1170C08EC0F50070000A53
:1032A0001C99487022990220087079E143F6106059
:1032B000C2F20000007820B1FFE704208DF87F0003
:1032C00072E19DF87700A8B1FFE79DF8770049F615
:1032D0009812C1F699124CF6CD41CCF6CC4100FBC8
:1032E00001204FEA700049F69911C1F69911884200
:1032F00004D3FFE701208DF87F0055E19DF87700AA
:103300004CF6CD41CCF6CC41A0FB0110C0088DF8A5
:1033100059009DF8590044F25441C2F20001C98E8F
:10332000C1F50071884204DDFFE705208DF87F00BC
:103330003AE141F2C020C2F200000068159040F26C
:10334000D400C2F2000000788DF8530000208DF800
:103350005200FFE79DF852009DF85910884280F214
:103360009380FFE71E989DF8521001EB810100EB5E
:1033700041001390139806F0BBFF1290139806308B
:1033800006F0B6FF1190139800798DF8430013985A
:1033900040798DF842009DF85300F0B9FFE712988C
:1033A0001599884219D3FFE7129845F60041C0F2FB
:1033B0002651884211D8FFE744F25440C2F200007F
:1033C00090F8340068B1FFE7129844F25441C2F219
:1033D0000001896B884204D2FFE706208DF87F0048
:1033E000E2E09DF84200032804DBFFE703208DF8AC
:1033F0007F00D9E09DF84200022810D1FFE79DF838
:103400004300FF2803D1FFE7119820B1FFE7032015
:103410008DF87F00C8E001208DF853002BE09DF867
:10342000430005280CD8FFE744F25440C2F20000E4
:1034300090F830009DF84310C840C00720B9FFE75E
:1034400004208DF87F00AFE09DF84200012805D1EF
:10345000FFE7119801F06CFA38B1FFE79DF84200E0
:1034600038B9FFE7119820B1FFE703208DF87F00FE
:103470009AE0FFE7FFE712981590FFE79DF85200EA
:1034800001308DF8520065E700208DF84100FFE71C
:103490009DF841009DF8591088425BDAFFE71E98BD
:1034A0009DF8411001EB810100EB41000F9044F2C7
:1034B0009440C2F2000003900188049142F60C602F
:1034C000C2F20000019000EBC10002900F9806F0DC
:1034D0000FFF01460D9861F31A000D900F980079C7
:1034E00000F007010D9820F0605040EAC1600D9097
:1034F0000F9841790D9820F0404040EA81700D907E
:103500000F98063006F0F4FEDDF804C0029A039925
:10351000DDF810E003460E9863F317000E90FF20CD
:103520008DF83B000D9B0E984CF83E30506008889B
:1035300001306FF35F20088044F25441C2F2000171
:10354000C88E0130C886FFE79DF8410001308DF834
:1035500041009DE7159841F2C021C2F200010860C8
:103560009DF8530040F2D401C2F20001087006F049
:10357000F9FC44F25440C2F20000C18EC1F5007162
:103580001C9A1170C08EC0F50070000A1C9948701A
:1035900022990220087003E002208DF87F0003E0EA
:1035A00000208DF87F00FFE79DF87F0020B080BDF0
:1035B00040F2B400C2F200000068704782B08DF89B
:1035C00007009DF807100020052900903FD8FFE76D
:1035D00044F25440C2F2000090F8341000200090F1
:1035E000A9B3FFE744F25440C2F2000090F8311052
:1035F0000020009059BBFFE744F25440C2F20000A3
:1036000090F832100020009009BBFFE744F25440CC
:10361000C2F2000090F830109DF807200020D14041
:10362000C907009099B1FFE79DF8071040F2BC0070
:10363000C2F2000050F8211044F25440C2F20000DF
:10364000826B0020914288BF01200090FFE7009824
:1036500000F0010002B0704780B58EB00C908DF87C
:103660002F100A9200208DF8270044F25440C2F235
:10367000000090F8340020B9FFE700208DF83700F3
:1036800099E00020089040F6F860C2F2000000883F
:103690000790FFE7089944F25440C2F20000C28E3E
:1036A0000020914203900AD2FFE79DF827109DF871
:1036B0002F2000209142B8BF01200390FFE703981C
:1036C000C007002872D0FFE7079942F60C60C2F2EB
:1036D000000000EBC100069042F6AC40C2F20000D0
:1036E00000680699096821F0784108440590069819
:1036F00001680220B0EB917F06D0FFE705980A9998
:10370000401A652801DBFFE750E0069801680120B8
:10371000B0EB917F07D1FFE705980A99401AB0F105
:10372000FF3F01DCFFE738E00C989DF827104A1CAA
:103730008DF8272001EB810100EB410004900498F3
:10374000059905F007FF06980068C0F3C260049968
:1037500008710698C0797F2804DCFFE70698C079D5
:10376000029007E00698406820F07F40FEF7E4FEF4
:103770000290FFE70298049948710498063001907E
:103780000698406820F07F4001F0D2F804F0DEFA9D
:103790000146019805F0DEFEFFE708980130089029
:1037A000079801306FF35F20079073E79DF82700BB
:1037B0008DF83700FFE79DF837000EB080BD0000A0
:1037C00080B582B040F27D01C2F20001002000907D
:1037D000087040F29801C2F20001087041F2B03165
:1037E000C2F20001087041F2CB31C2F20001087050
:1037F00041F2C431C2F20001087041F2A331C2F2B9
:1038000000014FF0FF30888008600120019006F031
:1038100029FD0099019A44F25440C2F2000080F858
:10382000322080F8312042F60A63C2F20003197098
:1038300090F83300114604F0A3FA02B080BD0000F6
:1038400080B582B08DF80700FFF7BAFF9DF807003A
:1038500042F60C51C2F2000108709DF8070044F2D4
:103860005441C2F2000181F83500C86B0130C863D1
:1038700002B080BD41F20000C2F20000007841F2C7
:103880000701C2F200010978401A18BF01207047F1
:1038900080B584B00290FFF7EDFF20B9FFE700206C
:1038A0008DF80F003EE000200190FFE7019803280B
:1038B00015D8FFE741F20000C2F20000017840F69F
:1038C0000070C2F2000050F83100019AD100C840E7
:1038D00002998854FFE7019801300190E6E741F230
:1038E0000001C2F200010A7840F60070C2F2000046
:1038F00000EBC2021279029B1A710A7800EBC20235
:103900005279029B5A710A7800EBC2008079029AC0
:1039100090710878013000F01F00087001208DF8C8
:103920000F00FFE79DF80F0004B080BD80B584B0A4
:1039300042F60C51C2F2000100200290087043F6DA
:103940002061C2F20001086043F61C61C2F200016E
:10395000086041F2C021C2F20001086042F6AC41A9
:10396000C2F20001086042F60A61C2F2000108706A
:1039700040F2D401C2F20001087044F25440C2F295
:10398000000001904021FCF7FAFC019A029841F2F4
:103990000701C2F20001087041F20001C2F2000109
:1039A000087041F20103C2F200034FF0FF31998029
:1039B00019601E2182F830103F2182F830108DF8F6
:1039C0000F00FFE79DF80F0005281FD8FFE74520EF
:1039D000009003F0ABFD024600989DF80F3044F2D2
:1039E0005441C2F2000141F833209DF80F2001EB51
:1039F000C201C8719DF80F00002104F007FAFFE72B
:103A00009DF80F0001308DF80F00DBE7FFF7D8FEBF
:103A100004F0B8FD41F2C821C2F20001086004B010
:103A200080BD000040F20400C2F200000078704740
:103A300010B58CB00A908DF827108DF826209DF8CF
:103A4000270049F69812C1F699124CF6CD41CCF6F2
:103A5000CC4100FB01204FEA700049F69911C1F6F4
:103A60009911884204D3FFE701208DF82F00A7E0C9
:103A70009DF8260080B9FFE741F2C430C2F2000091
:103A8000007818B1FFE7FFF79BFEFFE703F0BEFBEE
:103A900000208DF82F0093E040F20400C2F20000F5
:103AA000007820B9FFE700208DF82F0088E004F0AF
:103AB00069FD089000200790FFE707989DF8271000
:103AC00088422FD2FFE70A98079908440690069883
:103AD000407900F07F008DF817009DF8170004284A
:103AE00017DCFFE79DF81700032812D0FFE70698C0
:103AF00080797F280DDCFFE70698C0797F2808DCF5
:103B0000FFE70698007A20B9FFE70698407A20B1CF
:103B1000FFE703208DF82F0052E0FFE707980A30F7
:103B20000790CAE700200490FFE704989DF827104B
:103B3000884237D2FFE70A9804990844039008980E
:103B4000DDF80CC09CF804109CF805209CF80630A9
:103B50009CF807C002F07F02EE460024CEF8044035
:103B6000CEF800C003F076F88DF80B009DF80B003E
:103B700048B1FFE79DF80B00FFF762FE9DF80B00D0
:103B80008DF82F001CE0039840790006002804D52A
:103B9000FFE7089802F0B4FBFFE7FFE704980A305C
:103BA0000490C2E742F2D400C2F2000090F8CE1BAB
:103BB00000F6BC3000F02AF800208DF82F00FFE757
:103BC0009DF82F000CB010BD80B582B08DF80700B5
:103BD000FFF7F6FD9DF8070002280AD1FFE740F243
:103BE0000400C2F200000078B0FA80F040090090B2
:103BF00003E09DF807000090FFE7009840F2040101
:103C0000C2F20001087002B080BD000080B584B02F
:103C100003908DF80B109DF80B00072801DBFFE7E0
:103C20008FE000208DF80A00FFE79DF80A009DF85C
:103C30000B1088422CDAFFE703989DF80A10405CCD
:103C4000802801DBFFE77CE000208DF80900FFE71A
:103C50009DF809009DF80A10884212DAFFE70399DF
:103C60009DF80900085C9DF80A20895C884201D112
:103C7000FFE766E0FFE79DF8090001308DF80900D5
:103C8000E6E7FFE79DF80A0001308DF80A00CCE76F
:103C900004F078FC0190019841F2C821C2F20001C1
:103CA000086041F2C031C2F20001086041F2C43143
:103CB000C2F2000101200090087003999DF80B20CA
:103CC00041F2C530C2F20000FCF7A8FA00989DF856
:103CD0000B1041F2B032C2F20002117041F2CB314E
:103CE000C2F20001087044F25440C2F2000090F8A1
:103CF000310040B9FFE744F25440C2F2000090F8AE
:103D00003200D8B1FFE744F25440C2F20000002272
:103D100080F8322080F8312042F60A61C2F20001B8
:103D20000A7090F83300114604F02AF80198023026
:103D300043F61C61C2F200010860FFE700F004F8DE
:103D4000FFE704B080BD000080B584B000F072F8D9
:103D500004F018FC039000208DF80B00FFE79DF89D
:103D60000B00052863D8FFE740F29800C2F200007C
:103D700000789DF80B10C840C00770B1FFE70398AA
:103D80009DF80B2040F28001C2F2000151F8221090
:103D9000401AB0F1FF3F01DCFFE742E09DF80B1055
:103DA000012000FA01F240F29801C2F20001087805
:103DB000904308709DF80B1044F25440C2F200008A
:103DC00000EBC100407958B3FFE79DF80B1044F2B7
:103DD0005440C2F2000000EBC100007900B3FFE7DD
:103DE00044F25440C2F2000090F83100C0B9FFE73D
:103DF00044F25440C2F2000090F8320080B9FFE76C
:103E00009DF80B10019144F25440C2F2000050F8AA
:103E1000310000F08DFD0146019804F099FCFFE7A8
:103E2000FFE79DF80B0001308DF80B0097E704B019
:103E300080BD000080B58EB004F0A4FB0D9041F26F
:103E4000C430C2F20000007878B1FFE70D9841F26B
:103E5000C031C2F200010968401AB0F5967F04D95A
:103E6000FFE70820FFF7ECFC98E241F2CB30C2F20A
:103E70000000007868B1FFE70D9843F61C61C2F2BC
:103E800000010968401A002803D4FFE701F0A2FFEF
:103E9000FFE741F2C430C2F20000007808B1FFE74A
:103EA0007CE242F60A60C2F20000007820B3FFE72D
:103EB0000D9843F62061C2F200010968401A0028FB
:103EC0001AD4FFE742F60A60C2F200000022027034
:103ED00044F25440C2F2000080F8322090F83110D1
:103EE00090F8330003F04CFF0D98023043F61C614C
:103EF000C2F200010860FFE744F25440C2F2000041
:103F000090F834008DF8330000208DF83200FFE780
:103F10009DF83200052815D8FFE79DF8321044F2CD
:103F20005440C2F2000000EBC10001799DF833005B
:103F300008438DF83300FFE79DF8320001308DF81B
:103F40003200E5E79DF83300B0B1FFE740F27D00B5
:103F5000C2F20000007878B9FFE70D9841F2C8215D
:103F6000C2F200010968401AB0F5FA6F04D9FFE700
:103F70000820FFF765FC11E240F27D00C2F200006C
:103F80000078002800F0DE80FFE70D9840F278010D
:103F9000C2F200010968401A002800F1D280FFE750
:103FA00040F27C00C2F200000078062872D1FFE7E0
:103FB0000D9840F27801C2F200010968401A0B9096
:103FC0000B98B0F5C87F03D3FFE7FFF7F9FBE5E1F6
:103FD0000B984CF6CD41CCF6CC41A0FB0110C008AB
:103FE00000EB800040000B9000200A90FFE70A9849
:103FF00005284ED8FFE70A9944F25440C2F2000067
:1040000000EBC100407900283ED0FFE70A994AF250
:10401000AE40C0F60000405C03F088FA014644F66A
:104020002060091A0B9AC2F5C872514348F21F5218
:10403000C5F2EB12A1FB022100EBD1100990099807
:1040400000F076FCADF82200BDF8220003F07EFE01
:1040500009900A9944F25440C2F2000050F831002D
:10406000099988420FD0FFE709980A9A44F254410F
:10407000C2F2000141F832009DF82800BDF822107C
:1040800006F0A6F8FFE7FFE7FFE70A9801300A907D
:10409000ADE755E040F27C02C2F200021078411C0C
:1040A0001170079044F25440C2F2000090F83000C2
:1040B0000799C840C00780B3FFE7079944F254400E
:1040C000C2F20000029000EBC100012101719DF8D5
:1040D0001C0003F0BBFE029A079B4AF2AE40C0F6FA
:1040E0000000C15C02EBC302D1710799405C03F090
:1040F0001DFA0299079A41F832009DF81C0005F05C
:104100008DFF8DF81B009DF81B0028B1FFE79DF87F
:104110001B00FFF795FB41E1FFE70D9840F27C01A2
:10412000C2F200010A784FF4C871062A08BF4FF4A2
:10413000FA61084440F27801C2F200010860FFE72A
:10414000FFE72BE144F25440C2F2000090F8340043
:1041500058B1FFE70D9842F6AC41C2F20001096880
:10416000401AB0F1FF3F01DCFFE717E10D9842F67E
:10417000AC41C2F200010968401A44F25441C2F253
:1041800000018863FFE744F25440C2F20000C18E90
:1041900000200190C1B1FFE740F6F860C2F20000D4
:1041A000018842F60C60C2F2000050F8310020F0A5
:1041B000784144F25440C2F20000826B00209142E8
:1041C00098BF01200190FFE70198C007002800F088
:1041D000DA80FFE740F6F861C2F200010B8842F690
:1041E0000C62C2F2000202EBC30052F833200492C8
:1041F00040680590088801306FF35F20088044F222
:104200005441C2F20001C88E0138C88604990220C8
:10421000B0EB917F04D1FFE7012006F023F8BDE069
:1042200004990320B0EB917F01D1FFE7ABE704993C
:104230000020B0EB917F46D1FFE79DF8130000F01E
:10424000380144F25440C2F20000084440798DF82D
:104250000F009DF80F00A8B3FFE70498C0F3C260F9
:1042600005F0D0FF9DF8130000F0380144F25440EF
:10427000C2F200000844002101710498C0F3C2603A
:1042800003F0E4FD049921F07840C1F3C26240F2EA
:104290009C01C2F2000141F822000498C0F3C261FF
:1042A000012000FA01F240F2B801C2F200010878E0
:1042B000104308700499C1F3C26021F0784104F002
:1042C00057FCFFE75EE00498C0F3C26240F2BC0115
:1042D000C2F20001002041F822000498C0F3C2613C
:1042E000012000FA01F240F2B801C2F200010878A0
:1042F00090430870059820F07F4000F019FB03F010
:1043000025FD9DF8131001F0380244F25441C2F229
:10431000000188509DF817007F2804DCFFE79DF816
:104320001700009006E0059820F07F40FEF704F9A2
:104330000090FFE700999DF8130000F0380244F266
:104340005440C2F200000244D1719DF8131001F0F4
:1043500038010844012101710498C0F3C26003F0E0
:1043600075FD0498C0F3C26005F058FE8DF80E008C
:104370009DF80E0028B1FFE79DF80E00FFF760FAE8
:104380000CE0FFE7FFE644F25440C2F20000C08EAA
:1043900020B9FFE70A20FFF753FAFFE70EB080BD10
:1043A00081B000900098B0F80212B0F80002C0434B
:1043B00008446FF35F2001B07047000085B004909F
:1043C0000391029200200190FFE70498B0F80212D6
:1043D000B0F8002200209142009008D0FFE7019938
:1043E000029A0020914238BF01200090FFE7009818
:1043F000C00790B1FFE70498B0F80212405C03993F
:10440000019A531C019388540499B1F802020130B7
:104410006FF35F20A1F80202D7E7019805B070475B
:1044200080B588B006900591049204990020072970
:1044300001900FD3FFE705980179002040290190F2
:1044400008DBFFE70598017900204629B8BF012065
:104450000190FFE7019800F00100002818BF4020FC
:10446000039004980399084400900698FFF798FF7A
:1044700001460098884203D9FFE7002007901EE01C
:1044800000200290FFE702980499884214D2FFE7C7
:1044900005980299405C0699B1F800228854069963
:1044A000B1F8000201306FF35F20A1F80002FFE7CE
:1044B000029801300290E6E701200790FFE7079895
:1044C00008B080BD10B586B00590049103920598A0
:1044D00000EB800142F2D400C2F2000000EB810147
:1044E00002910499084490F8C80BFF2803D1FFE714
:1044F000002000900CE0049942F2D400C2F20000C7
:10450000084490F8C80B0299097B401A0090FFE715
:10451000009801900198B0F1FF3F04DCFFE701989B
:1045200040420190FFE7049942F2D403C2F2000333
:1045300003EB8100D0F8A4EB029A94680398405CE6
:10454000FF3818BF0120C00500F1807CA64518BFC8
:1045500060460B4493F8C23B92F80CC000F5800211
:10456000634518BF1046019A01EBC201084306B02B
:1045700010BD000080B58EB00C900B910A92002007
:104580008DF821000790FFE70798052865D8FFE719
:1045900042F2D400C2F2000090F8D10B0799C84053
:1045A000C007002854D0FFE70C9800EB800142F2CE
:1045B000D400C2F2000000EB8100407C78B1FFE73C
:1045C0000C9800EB800142F2D400C2F2000000EB34
:1045D0008100407C07990131884239D1FFE79DF87D
:1045E0002100411C8DF821100690FFE7069900205C
:1045F0000290C1B1FFE70C9807990B9AFFF762FF91
:1046000001900C9806990DF12202114411F8011C39
:104610000B9AFFF757FF019902460020914238BFDD
:1046200001200290FFE70298C00758B1FFE7069A01
:104630000DF12201881810F8010C885406980138F1
:104640000690D3E70798069A0DF122018854FFE7F8
:10465000FFE707980130079096E700200590FFE7F5
:1046600005989DF8211088423CD2FFE705990DF18D
:104670002200405C04900A9800780499C840C00762
:1046800008B1FFE72AE00499012000FA01F20A9933
:104690000878104308700B980499405C03900398C5
:1046A000FF2813D0FFE7039800EB800142F2D4000B
:1046B000C2F2000000EB8100407C70B9FFE7039874
:1046C0000B990A9AFFF756FF38B1FFE70C980B9940
:1046D000049A885401200D9007E0FFE70598013007
:1046E0000590BDE700200D90FFE70D980EB080BD4E
:1046F00080B5B2B0319030910EA88021FBF71DFE3D
:1047000000200D904FF0FF31ADF8BC102E910C90B1
:10471000FFE70C9900207F2903900DD8FFE70D9942
:1047200042F2D400C2F2000090F8CF2B0020914258
:1047300038BF01200390FFE70398C007002800F06E
:10474000B180FFE74FF0FF300B9000200A90FFE7A9
:104750000A987F287CD8FFE70A9800EB800142F294
:10476000D400C2F2000000EB8100007C00286AD077
:10477000FFE70A990EA8405C002864D1FFE70A9879
:1047800000EB800142F2D400C2F2000000EB810095
:1047900009900B98B0F1FF3F03DCFFE70998029006
:1047A0000AE00B9800EB800142F2D400C2F2000054
:1047B00000EB81000290FFE7029808900B98002818
:1047C0003DD4FFE70998407C002818BF01200899D4
:1047D000497C002918BF0121884230DCFFE7099895
:1047E000407C002818BF01200899497C002918BF87
:1047F0000121884226D1FFE70998807B0899897BAF
:1048000088421CDCFFE70998807B0899897B8842F5
:1048100018D1FFE7099800680899096888420ED303
:10482000FFE7099800680899096888420AD1FFE7FC
:104830000998806808998968884203D2FFE70A9836
:104840000B90FFE7FFE7FFE70A9801300A907FE748
:104850000B98B0F1FF3F01DCFFE723E00B9A0EA9B4
:104860000120885400208DF81700BDF8BC00ADF879
:104870001C002E9806900B9806A90DF11702FFF761
:1048800079FE50B1FFE7BDF81C00ADF8BC000698FA
:104890002E900D9801300D90FFE7FFE70C98013046
:1048A0000C9036E700200490FFE7049805283CD8D8
:1048B000FFE704992EA8405CFF2803D1FFE7FF2003
:1048C00001900DE004992EA8405C00EB800142F2BB
:1048D000D400C2F2000000EB8100007B0190FFE7F2
:1048E00001983199049A885404992EA8405CFF28B5
:1048F00003D1FFE7002000900DE004992EA8405C52
:1049000000EB800142F2D400C2F2000000EB810013
:1049100080680090FFE700983099049A41F82200DF
:10492000FFE7049801300490BFE732B080BD00007B
:1049300082B00090009844F62061884208D3FFE7D7
:10494000009844F68171C0F21201884204D3FFE757
:104950000020ADF806000BE0009946F20050C1F6C9
:10496000CD5000EB5100B0FBF1F0ADF80600FFE7D1
:10497000BDF8060002B0704784B0039002914FF674
:10498000FF70ADF80600FFE70298411E029120B3C8
:10499000FFE70398411C03910178BDF8060080EA07
:1049A0000120ADF8060000200090FFE700980728DE
:1049B00012D8FFE7BDF80620500041F2210181EA3C
:1049C00042011204002A48BF0846ADF80600FFE77E
:1049D000009801300090E9E7D6E7BDF8060004B082
:1049E0007047000084B0039002914FF6FF70ADF85D
:1049F0000600FFE70298411E029120B3FFE70398EB
:104A0000411C03910178BDF8060080EA0120ADF851
:104A1000060000200090FFE70098072812D8FFE763
:104A2000BDF80620500041F2210181EA4201120442
:104A3000002A48BF0846ADF80600FFE7009801309D
:104A40000090E9E7D6E7BDF8060004B07047000023
:104A500080B586B0DDF820C004908DF80F108DF879
:104A60000E2002930898F12803D3FFE70020059059
:104A700032E00499C720087004993A2048709DF8E4
:104A80000F00049988709DF80E000499C87008986A
:104A900004990871089838B1FFE704980530029925
:104AA000089AFBF7BBFBFFE7049802300899033133
:104AB000FFF798FFADF806009DF80600049A0899E4
:104AC000114448719DF80700049A089911448871AF
:104AD000089807300590FFE7059806B080BD0000F4
:104AE00080B588B006908DF817100698D0F8F800B9
:104AF000F7280AD1FFE70698411CD0F8F820013AC0
:104B0000C0F8F820FBF7CFFBFFE79DF817000699E8
:104B1000D1F8F820531CC1F8F830885400200490D4
:104B2000FFE7049807300699D1F8F81088424FD86B
:104B3000FFE70698049908440390039800790290CF
:104B400002980730019003980078C7281CD1FFE72E
:104B5000039840783A2817D1FFE703988078012816
:104B600005D0FFE70398807802280DD1FFE702986F
:104B7000F02809D8FFE70498019908440699D1F86C
:104B8000F810884201D0FFE71EE003980230029936
:104B90000331FFF7F1FE039A02991144B1F80510B1
:104BA000884201D0FFE70FE0049830B1FFE7069894
:104BB0000399019AFBF777FBFFE706990020C1F8FC
:104BC000F8000120079006E0049801300490A8E75F
:104BD00000200790FFE7079808B080BD80B582B03D
:104BE0008DF807008DF806108DF8052041F20700BA
:104BF000C2F200000078013000F01F008DF80400C0
:104C00009DF8040041F20001C2F2000109788842D7
:104C10000AD1FFE741F20001C2F200010878013039
:104C200000F01F000870FFE703F0ACFC41F2070141
:104C3000C2F200010B7840F60072C2F2000242F8A4
:104C400033009DF807000B7802EBC30318719DF841
:104C500006000B7802EBC30358719DF805000B7832
:104C600002EBC30290719DF80400087002B080BD91
:104C700080B582B08DF807008DF806109DF80710FA
:104C800041F20100C2F20000405C9DF8061088422B
:104C900001D1FFE72BE09DF8071041F20100C2F2BD
:104CA0000000405C7F280BDCFFE79DF8070041F225
:104CB0000101C2F20001095C0022FFF78FFFFFE74C
:104CC0009DF806007F2808DCFFE79DF807009DF8A7
:104CD00006106422FFF782FFFFE79DF806009DF8AB
:104CE000072041F20101C2F200018854FFE702B03F
:104CF00080BD000080B59EB01C901C9800788DF897
:104D00006F001C9840788DF86E0000208DF8280008
:104D10008DF827001C98D0F8020008909DF86E00CE
:104D2000062804DBFFE702208DF877006DE29DF88E
:104D30006F00012805D0FFE79DF86F00022836D1EB
:104D4000FFE742F6B840C2F20000007878B3FFE710
:104D500042F6FB40C2F200000078092827DBFFE79B
:104D600042F6B741C2F2000108780130087000062F
:104D700040B9FFE742F6B741C2F2000108780130BE
:104D80000870FFE742F6B740C2F20000007842F632
:104D9000B041C2F2000108701C988288A1F8052079
:104DA0000068C1F8010000208DF877002DE29DF821
:104DB0006F0001281CD1FFE741F2A130C2F20000D0
:104DC0000078A8B1FFE742F6B840C2F200000078D0
:104DD00070B9FFE740F27600C2F20000007838B9FF
:104DE000FFE70220FEF7F0FE00208DF877000CE2CE
:104DF0009DF86F00012805D0FFE79DF86F0002289D
:104E000004D1FFE70A208DF87700FEE19DF86F00DE
:104E10000B2804DBFFE702208DF87700F5E142F66E
:104E2000B840C2F20000007840B1FFE79DF86F0083
:104E300020B1FFE706208DF87700E6E19DF86F00CE
:104E400058B1FFE741F20800C2F20000007820B933
:104E5000FFE708208DF87700D7E19DF86F0008B3D1
:104E6000FFE79DF86F0006281CD0FFE79DF86F0054
:104E7000072817D0FFE741F2D030C2F200000078D7
:104E800080B1FFE703F07EFB41F2CC31C2F20001BA
:104E90000968401AB0F5967F04D8FFE707208DF81F
:104EA0007700B2E19DF86F00A8B9FFE700200690F7
:104EB000FEF78AFE069842F6B841C2F20001097870
:104EC000B1FA81F1490941F22502C2F200021170E2
:104ED0008DF8770099E19DF86E008DF869000898CB
:104EE0008DF86A009DF86F00033801460591072888
:104EF00000F2D5800599DFE801F004182E485E869F
:104F00009FAF0DF1690004900130089900F0D6FEC2
:104F100004996A460AA81060092005220DF12903A8
:104F2000FDF756FD8DF82700BDE00898022804D350
:104F3000FFE702208DF8770067E169460AA808605C
:104F400006200DF1690102220DF12903FDF740FD54
:104F50008DF82700A7E00898022804D3FFE7022075
:104F60008DF8770051E108990820002918BF072023
:104F70006A460AA911600DF1690101220DF12903A8
:104F8000FDF726FD8DF827008DE00898022804D350
:104F9000FFE702208DF8770037E169460AA808602C
:104FA0000B200DF1690102220DF12903FDF710FD1F
:104FB0008DF8270077E00898A0B1FFE7089801284E
:104FC00010D0FFE7089802280CD0FFE708980328C4
:104FD00008D0FFE70898072804D0FFE702208DF8E3
:104FE000770012E108988DF8690069460AA8086000
:104FF0000C200DF1690101220DF12903FDF7E8FCF8
:105000008DF827004FE00898022804D3FFE702201C
:105010008DF87700F9E008988DF8690069460AA8CC
:1050200008600D200DF1690101220DF12903FDF742
:10503000CFFC8DF8270036E001228DF86920694603
:105040000AA808600E200DF169010DF12903FDF792
:10505000BFFC8DF8270026E000208DF86900694626
:105060000AA808600D200DF1690101220DF1290344
:10507000FDF7AEFC8DF827009DF8270070B9FFE71B
:1050800069460AA808600E200DF1690101220DF1A0
:105090002903FDF79DFC8DF82700FFE703E00220C0
:1050A0008DF87700B1E09DF82700F8B9FFE79DF88B
:1050B0006F0007281AD0FFE79DF86F0006280ED171
:1050C000FFE741F2D030C2F20000007870B9FFE78C
:1050D00040F27600C2F20000007838B9FFE741F2F2
:1050E0002501C2F2000101200870FFE79DF82700AA
:1050F000042868D1FFE744F25440C2F2000090F85F
:10510000320020B1FFE703208DF877007DE044F204
:105110005440C2F2000090F8310020B1FFE70420B3
:105120008DF8770071E044F25440C2F2000090F82C
:1051300030009DF86E10C840C00720B9FFE7052079
:105140008DF8770061E044F25440C2F2000090F81C
:10515000340080B9FFE79DF86F0006280FD1FFE704
:105160009DF86E1044F25440C2F2000000EBC10002
:10517000407920B1FFE709208DF8770045E09DF8E0
:105180006F0007281BD1FFE700200790FFE7079873
:10519000052813D8FFE7079944F25440C2F20000F3
:1051A00000EBC100407920B1FFE709208DF87700BE
:1051B0002BE0FFE7079801300790E8E7FFE70B20B7
:1051C0008DF8770021E09DF8270018B9FFE700204F
:1051D000039016E09DF8271001200329029008D0C3
:1051E000FFE79DF827000138B0FA80F040090290EF
:1051F000FFE70298C1070120002918BF0220039091
:10520000FFE703988DF87700FFE79DF877001EB061
:1052100080BD000080B58AB08DF8270003F0B2F998
:10522000089041F29C10C2F20000007888B1FFE7BC
:10523000089841F20C01C2F200010968401A652881
:1052400007D3FFE741F29C11C2F200010020087071
:10525000FFE7089841F20C01C2F2000108609DF8D6
:10526000271041F29C10C2F2000003785A1C027011
:1052700041F21002C2F20002D15400780C2801DC85
:10528000FFE781E141F21000C2F200000078A5289A
:1052900040F06681FFE741F21000C2F20000407862
:1052A0005A2840F05D81FFE741F21000C2F2000091
:1052B0008078062840F05481FFE741F21000C2F2E6
:1052C00000000079502840F04B81FFE741F21000C8
:1052D000C2F2000002900230092103F0F7FC0299AB
:1052E000B1F80B10884240F03B81FFE741F210001B
:1052F000C2F200000530079000208DF81B008DF8E9
:105300001A0041F22401C2F200010120087008983D
:1053100041F22001C2F20001086007980078FF28DE
:1053200040F08080FFE70798417800200190D1B9D4
:10533000FFE70798817800200129019013D1FFE74A
:105340000798C1780020019069B9FFE707980179B3
:105350000020019039B9FFE707984079B0FA80F052
:1053600040090190FFE7019800F0010141F20800B7
:10537000C2F200000170007880B9FFE741F2250019
:10538000C2F20000007848B1FFE7FEF719FA41F2D7
:105390002501C2F200010020087042E041F208003D
:1053A000C2F200000078D8B3FFE741F22500C2F254
:1053B00000000078A0B3FFE742F6B840C2F2000058
:1053C000007868BBFFE740F27600C2F20000007888
:1053D00030BBFFE744F25140C2F200000078F8B958
:1053E000FFE741F2D030C2F20000007858B1FFE789
:1053F000089841F2CC31C2F200010968401AB0F5B8
:10540000967F0DD9FFE700228DF8172007996B468C
:105410000DF117001860012006ABFDF7D9FAFFE780
:10542000FFE796E000200490FFE704980F2848D893
:10543000FFE7049941F29400C2F2000000EB011072
:10544000007AC8B3FFE7049941F29400C2F2000069
:1054500000EB0110807941F21001C2F20001C9781D
:10546000884229D1FFE70898049A41F29401C2F2D8
:10547000000101EB0211C968401A00097C281BD801
:10548000FFE7049941F29400C2F2000000EB011022
:1054900007990622FAF796FE70B9FFE7049941F2E0
:1054A0009400C2F2000000EB0110C0798DF81B00DF
:1054B00001208DF81A0004E0FFE704980130049001
:1054C000B3E79DF81A00C0BBFFE741F29412C2F2A5
:1054D00000021068411C116000F00F000390079853
:1054E000FFF708FC8DF81B00039941F29400C2F20B
:1054F000000000EB01124FEA011C07990B6840F80D
:105500000C308988918041F21001C2F20001C97803
:10551000039A00EB021291719DF81B10039A00EBA5
:105520000212D1710899039A00EB0212D16003991B
:1055300000EB011101200872FFE741F21000C2F2F6
:105540000000C17851200DF11B02012300F0CEFBB9
:10555000FFE741F29C11C2F200010020087013E045
:1055600041F21001C2F20001D1F80100D1F805208A
:10557000D1F809308B604A60086041F29C11C2F298
:1055800000010C200870FFE70AB080BD80B5ECB0C8
:105590008DF8AF0102F0F6FF6A900DF5A5705E215F
:1055A000FAF7CBFE03208DF84A0101208DF84B015C
:1055B0009DF8AF0188B3FFE744F25140C2F200000A
:1055C000007850B3FFE76A9844F24441C2F2000108
:1055D0000968401A952807D8FFE744F24440C2F210
:1055E00000000068C0B9FFE744F24840C2F2000082
:1055F000017844F27830C2F20000037844F2793244
:10560000C2F20002702000F071FB6A9844F244413B
:10561000C2F200010860FFE74DE341F2D030C2F270
:105620000000007890B1FFE76A9841F2CC31C2F2F5
:1056300000010968401AB0F5967F07D8FFE741F2EC
:105640002501C2F2000100200870FFE741F22400AA
:10565000C2F20000007808B9FFE72CE36A9841F233
:105660002001C2F200010968401AB0F5967F22D9E4
:10567000FFE741F22500C2F20000007818B1FFE711
:10568000FEF79EF8FFE741F20801C2F20001002098
:10569000087041F22401C2F20001087041F22501B4
:1056A000C2F20001087041F22C00C2F20000682131
:1056B000FAF765FEFFE29DF8AF0108B9FFE7FAE2ED
:1056C0006A985190FEF7D6F8002842D0FFE70020F4
:1056D0004E90FFE74E99002007290F9009D8FFE769
:1056E0000DF23D10FEF7D4F8002818BF01200F90EE
:1056F000FFE70F98C00720B3FFE70DF23D1004F05D
:1057000087FC51909DF8430120B1FFE79DF84201CD
:105710000E9002E0FF200E90FFE70E989DF84121C9
:1057200041F22601C2F200018854422000210DF20C
:105730003D12072300F0DAFAFFE74E9801304E9051
:10574000C8E7FEF797F818B9FFE76A985190FFE7A6
:10575000FFE76A9841F29811C2F200010968401A05
:10576000132801D8FFE7A6E26A9841F29811C2F225
:105770000001086051990DF5A5700D9000F09EFA9A
:105780000D9A43200021042300F0B0FA0D985E2109
:10579000FAF7D3FD03208DF84A0101208DF84B0163
:1057A00044F25440C2F2000090F831108DF84C11D0
:1057B00090F832108DF84D1190F833108DF84E118D
:1057C00090F830008DF84F0141F2A130C2F2000094
:1057D0000078C8B1FFE742F6B840C2F20000007896
:1057E00090B9FFE740F27600C2F20000007858B9A5
:1057F000FFE7FEF717F938B9FFE79DF84B0140F0D6
:1058000004008DF84B01FFE740F27600C2F2000081
:10581000007858B1FFE70DF5A570063044F2544109
:10582000C2F20001896B00F049FAFFE742F6B84086
:10583000C2F200000078002800F08C80FFE742F6FA
:10584000FB40C2F2000000780928C0F28380FFE725
:1058500042F6C040C2F20000D0F80110D0F8052096
:10586000559254910078C00738B1FFE79DF84B017D
:1058700040F002008DF84B01FFE742F6C040C2F253
:10588000000000788007002807D5FFE79DF84B014E
:1058900040F004008DF84B01FFE76A9842F6FC41A6
:1058A000C2F200010968401AB0F5FA7F51D3FFE750
:1058B00042F6C040C2F2000001780020090600292B
:1058C0000C900BD5FFE742F6FB40C2F200000178D6
:1058D00000200A29C8BF01200C90FFE70C9800F0B7
:1058E00001008DF837014FF6FF70ADF834019DF8D7
:1058F000370138B1FFE742F6C040C2F2000009307C
:105900000B9002E04DA80B90FFE70B9A442000217A
:105910000A91022300F0EAF90A999DF83701092358
:10592000002818BF0B2342F6C040C2F20000C21884
:1059300042F6FB40C2F200000078C01AC3B2412018
:1059400000F0D4F96A9842F6FC41C2F20001086006
:10595000FFE7FFE742F6B840C2F20000007838B136
:10596000FFE79DF84B0140F010008DF84B01FFE779
:1059700044F25440C2F2000090F83400E8B1FFE76E
:1059800040F27600C2F20000007878B9FFE742F6F4
:10599000B840C2F20000007878B1FFE742F6FB4061
:1059A000C2F200000078092807DBFFE79DF84B01F1
:1059B00040F020008DF84B01FFE744F25440C2F262
:1059C000000090F8340038B1FFE79DF84B0140F03B
:1059D00040008DF84B01FFE700204C90FFE74C980A
:1059E000052800F29F80FFE74C9944F25440C2F230
:1059F000000000EBC1004B904B98407920B1FFE7CD
:105A00004B98C079099002E0FF200990FFE70998C0
:105A10008DF82B016A9949A800F050F94C988DF83F
:105A20002801FDF727FF002841D1FFE74C9941F2FB
:105A30002600C2F20000405C9DF82B11884236D04F
:105A4000FFE74C9941F22600C2F20000405C7F283B
:105A500011DCFFE74C9941F22600C2F20000405CE5
:105A60008DF8290100218DF82A11422049AA072327
:105A700000F03CF9FFE79DF82B017F280EDCFFE7E3
:105A80009DF82B018DF8290164208DF82A01422010
:105A9000002149AA072300F029F9FFE79DF82B010F
:105AA0004C9A41F22601C2F200018854FFE74B995B
:105AB00008794A79897940EA420040EA81000890F1
:105AC0009DF83001FDF77AFD0146089840EAC101D2
:105AD0004C9800EB40020DF5A57000EB420291736B
