:020000040800F2
:10000000402F002089010008990F00088D0F00087B
:10001000930F0008130500082D13000800000000CE
:100020000000000000000000000000009B0100082C
:100030009D010008000000009F0100087F100008DB
:10004000A3010008A3010008A3010008A301000800
:10005000A3010008A3010008A3010008A3010008F0
:10006000A3010008A3010008A3010008A3010008E0
:10007000A3010008A3010008A3010008A3010008D0
:10008000A3010008A3010008A3010008A3010008C0
:10009000A3010008A3010008A3010008A3010008B0
:1000A000A3010008A3010008A3010008A3010008A0
:1000B000D7100008DB100008DF100008A3010008BB
:1000C000A3010008A3010008A3010008A301000880
:1000D000A30100082513000829130008A301000844
:1000E000A3010008A3010008A301000800F002F822
:1000F00000F03AF80AA090E8000C82448344AAF188
:100100000107DA4501D100F02FF8AFF2090EBAE885
:100110000F0013F0010F18BFFB1A43F0010318473B
:10012000B8390000D8390000103A24BF78C878C127
:10013000FAD8520724BF30C830C144BF04680C60ED
:10014000704700000023002400250026103A28BF35
:1001500078C1FBD8520728BF30C148BF0B60704739
:100160001FB51FBD10B510BD00F09AF91146FFF77D
:10017000F7FF02F047F800F0B8F903B4FFF7F2FF19
:1001800003BC00F0BFF90000094880470948004758
:10019000FEE7FEE7FEE7FEE7FEE7FEE7FEE7FEE737
:1001A000FEE7FEE704480549034A054B7047000097
:1001B000D5100008ED00000840270020402F002047
:1001C0004027002040EA010310B59B070FD1042A05
:1001D0000DD310C808C9121F9C42F8D020BA19BA12
:1001E000884201D9012010BD4FF0FF3010BD1AB177
:1001F000D30703D0521C07E0002010BD10F8013BCC
:1002000011F8014B1B1B07D110F8013B11F8014BF2
:100210001B1B01D1921EF1D1184610BD032A40F2DA
:10022000308010F0030C00F0158011F8013BBCF198
:10023000020F624498BF11F801CB00F8013B38BFB0
:1002400011F8013BA2F1040298BF00F801CB38BFBE
:1002500000F8013B11F0030300F06780083AC0F09A
:10026000088051F8043B083A51F804CBA0E8081084
:10027000F5E7121D5CBF51F8043B40F8043BAFF3B7
:100280000080D20724BF11F8013B11F801CB48BF11
:1002900011F8012B24BF00F8013B00F801CB48BF47
:1002A00000F8012B7047431A28BF9A427FF6B6AF79
:1002B00010441144032A40F2268010F0030F1EBFA1
:1002C00011F8013D521E00F8013D10F0030F7FF4BC
:1002D000F6AF11F0030300F0B980083AC0F00B80CC
:1002E00051F8043D083A51F804CD40F8043D40F877
:1002F00004CDFFF7F3BF121D5CBF51F8043D40F879
:10030000043DAFF30080D20724BF11F8013D11F87E
:1003100001CD48BF11F8012C24BF00F8013D00F8C1
:1003200001CD48BF00F8012C704710B5203AC0F04D
:100330000B80B1E81850A0E81850B1E81850A0E8B8
:100340001850203ABFF4F5AF5FEA027C24BFB1E851
:100350001850A0E8185044BF18C918C0BDE8104094
:100360005FEA827C24BF51F8043B40F8043B08BF9D
:100370007047D20728BF31F8023B48BF11F8012B64
:1003800028BF20F8023B48BF00F8012B70474FF010
:1003900000020429C0F0128010F0030C00F01B8052
:1003A000CCF1040CBCF1020F18BF00F8012BA8BF60
:1003B00020F8022BA1EB0C0100F00DB85FEAC17C24
:1003C00024BF00F8012B00F8012B48BF00F8012BD7
:1003D00070474FF0000200B5134694469646203908
:1003E00022BFA0E80C50A0E80C50B1F12001BFF4EE
:1003F000F7AF090728BFA0E80C5048BF0CC05DF854
:1004000004EB890028BF40F8042B08BF704748BFA1
:1004100020F8022B11F0804F18BF00F8012B704715
:10042000704770477047431A28BF9A427FF67DAFE6
:100430001044114410F0030F1EBF11F8013D521E6D
:1004400000F8013D10F0030F7FF4F6AF103AC0F052
:100450000A8010B531E9185020E91850103ABFF45D
:10046000F9AFBDE81040530724BF31E9081020E977
:10047000081044BF51F8043D40F8043D12F0030F4A
:1004800008BF7047D20728BF31F8023D48BF11F8B6
:10049000012C28BF20F8023D48BF00F8012C70470E
:1004A000754600F02BF8AE4605006946534620F02D
:1004B0000700854618B020B5FFF774FEBDE8204060
:1004C0004FF000064FF000074FF000084FF0000B10
:1004D000AC46ACE8C009ACE8C009ACE8C009ACE87F
:1004E000C00921F007018D46704710B50446AFF3EF
:1004F00000802046BDE81040FFF73FBE004870472F
:100500001000002001491820ABBEFEE726000200C3
:10051000704702F047F9FEE702F044F9EFF310806C
:1005200072B6FEE72DE9FC4F5E4A04234FF0000A45
:100530004FF001084FF00009904208BF03230093D9
:1005400000250C6834FA05F208BFBDE8FC8F08FAF4
:1005500005FE14EA0E0F00F0A1804F68032F16D994
:10056000112F26D0122F28D0514A974213D0514A2A
:10057000974210D0504A97420DD0504A97420AD025
:100580004F4A974207D04F4A974204D022E0DFE813
:1005900007F002181B1F8C6844B1012C14BFC0F86F
:1005A00014E0C0F810E04FF0080913E04FF0040920
:1005B00010E0CC6804F104090CE0CC6804F10C09EB
:1005C00008E0D1F80C9005E0CC6804F1080901E0DE
:1005D0004FF0000954460746082D4FF00F0228BF80
:1005E000203C28BF04373B6802FA04F609FA04F4F9
:1005F000B34323433B60CB79DB064FD5644A2A4C97
:100600001368A4F57E7C43F00103136013682E4A3F
:1006100003F0010390420193019B25F003035CF872
:1006200003B008D0294A904207D0294A009E904240
:1006300008BF022602E0002600E001260AF00C03B3
:100640000F22AF0802FA03F406FA03F3164E174A14
:100650002BEA040423434CF827304F68FB02B368AD
:1006600054BF23EA0E0443EA0E04B460BB021368CD
:1006700054BF23EA0E0443EA0E041460BB037368FC
:1006800054BF23EA0E0443EA0E047460FB0333688C
:1006900054BF23EA0E0243EA0E0232600AF1040A52
:1006A00001354EE700140140000401400C040140F4
:1006B0000000111000001210000021100000221094
:1006C000000031100000321000080140000C014011
:1006D00000100140002A08BF0904016170470000B2
:1006E00005480068704700BF1A48034940680A6817
:1006F00010440860704700BF3C27002080B5934835
:10070000016841F010010160032000F077F8042037
:1007100000F004F800F020F8002080BD70B50D4E08
:1007200004464FF47A717068B1FBF0F0944909689F
:10073000B1FBF0F000F0D0FA01250F2C08D838B941
:100740004FF0FF3021460022002500F031F83460E0
:10075000284670BD0000002082B00D4802220168CA
:1007600041F001010160016801F00101019101996D
:10077000416841F080514160406800F08050009035
:1007800000980448016862F31A61016002B0704782
:100790001810024004000140002806D4734600F0FF
:1007A00023FC9E46014A42F82010704700E100E019
:1007B000F0B5184B4FF0FF361C68C4F30224E51E59
:1007C00084F0070438BF002506FA05F7BA43042C65
:1007D00028BF042406FA04F4A14300F00F04A94042
:1007E000043C1143044A234409010244002848BF41
:1007F00003F10C021170F0BD00E400E005494FF672
:10080000FF030A681A4060F30A2203481043086095
:10081000704700BF0CED00E00000FA052DE9F84339
:1008200000286CD0884649490446086800F0070053
:1008300040450AD2086820F0070040EA0800086036
:10084000086800F00700404559D120685B4B894695
:10085000810711D5410703D5196841F4E06119609A
:10086000010703D5196841F460511960A1681A683D
:1008700022F0F00211431960C00737D1D9F8000007
:1008800000F0070040450DD9D9F8000020F007001E
:1008900040EA0800C9F80000D9F8000000F007009D
:1008A00040452CD12068410705D5E1681A6822F43B
:1008B000E06211431960000706D52069196821F428
:1008C000605141EAC00018601C4600F05DF82168E4
:1008D0001F4AC1F30311515CC840294908601D48F3
:1008E0000068FFF71BFF0020BDE8F883606802285E
:1008F00008D0012825D153F8041C890306D401200F
:10090000BDE8F88353F8041C8901F8D519681D4621
:1009100021F0030108431860FFF7E2FE064641F2AA
:100920008837606829682B4601F00C01B1EB800F15
:10093000A4D0FFF7D5FE801BB842F2D90320BDE852
:10094000F88353F8041C8907D9D5DFE7002002405B
:10095000283A000800000020DD481849094A0068CC
:100960000968C1F30221515CC8407047D848134957
:10097000044A00680968C1F3C221515CC84070474D
:1009800008000020383A000810B50C490C480A68E5
:1009900002F00C03082B07D1C2F3834309A4D2034E
:1009A000E35C02D40C48584310BD096809A25843BF
:1009B000C1F34041515CB0FBF1F010BD04100240A6
:1009C00000127A0002030405060708090A0B0C0D41
:1009D0000E0F10100102000000093D002DE9FC413E
:1009E000002800F09C8004460078B74EC0071FD056
:1009F000706800F00C00042814D000F009FB02D14C
:100A00007068C0030ED46068002800F01481B0F54F
:100A1000A02F00F02181B0F5803F00F0218100F08F
:100A2000D3FA20E13068800302D56068002876D0D0
:100A30002078800716D5706810F00C0F05D000F0F4
:100A4000E7FA24D17068C00321D43068800702D54A
:100A50002069012863D16069316821F0F80141EA19
:100A6000C00030602078000741D5A06910B39748D6
:100A70000121C0F88014FFF733FE0546706A800735
:100A800028D4FFF72DFE401B0228F7D9F8E0216992
:100A90008E48002900F08E8001210160FFF720FEC2
:100AA000054630688007D6D4FFF71AFE401B02289F
:100AB000F7D9E5E085480021C0F88014FFF710FE63
:100AC0000546706A800712D5FFF70AFE401B022810
:100AD000F7D9D5E07E484FF4FA510068B0FBF1F049
:100AE000019000BF0198411E00280191F9D12078A2
:100AF000400717D4E7697FB100F08AFA3CD1012F93
:100B00000DD0216A706800F480328A4207D1616A90
:100B100000F47010884202D10020BDE8FC81012061
:100B2000BDE8FC81F06910F0805808D1F06940F010
:100B30008050F061F06900F0805000900098654F9F
:100B40003868C0050FD4386840F480703860FFF70B
:100B5000C7FD05463868C00505D4FFF7C1FD401B39
:100B60006428F7D98CE0E068A0B3052844D00128B8
:100B700046D000F040FA46E0544900208846086616
:100B8000FFF7AEFD0546022F0AD1474630688001C7
:100B900079D5FFF7A5FD411B03200229F6D9BCE753
:100BA00030688001B8D5FFF79BFD411B0320022967
:100BB000F6D9B2E700210160FFF792FD05463068E3
:100BC00080077FF54FAFFFF78BFD411B0320022904
:100BD000F5D9A2E700F00FFA3062FFF781FD054674
:100BE00041F28837306A80071CD5FFF779FD411B39
:100BF0000320B942F6D990E7306A40F00400306231
:100C0000306A40F001003062FFF76AFD054641F2AC
:100C10008837306A800705D4FFF762FD401BB84271
:100C2000F7D92DE0B8F1000F7FF464AFF06920F040
:100C30008050F0615EE700F0C7F93060FFF750FDCB
:100C40000546306880037FF5F3AEFFF749FD411B91
:100C500003206429F5D960E7306840F480203060D3
:100C6000306840F480303060FFF73AFD0546306868
:100C700080033FF5DDAEFFF733FD401B6428F6D956
:100C80000320BDE8FC81206AB0F5803F05D1A16852
:100C9000726822F4003211437160616A726822F452
:100CA000741211430843706001203866FFF718FD85
:100CB0000446306880013FF52FAFFFF711FD011B9F
:100CC00003200229F5D928E7001002400000424223
:100CD0000800002000700040411E0020B0EB116FA2
:100CE0001CBF01207047044AF023516003490B7078
:100CF000072190601160704710E000E023ED00E0F4
:100D000010B5C36B0222012B1DD0026402680B6870
:100D1000546824F070041C439368B2F1804F54600F
:100D200008D0704CA24205D0084CA24202D06C4CB4
:100D3000A24204D1496823F0800319439160002244
:100D40000121C2630164104610BD00BF002C0140A8
:100D500070B586B000210068CDE90411CDE902111B
:100D60005F4988422ED05F4988423ED0B0F1804F23
:100D700048D185480226834C016841F00801016092
:100D8000016801F008010191019900F014F94FF494
:100D90008060059603960290019802AD04F580608C
:100DA0002946FFF7BFFB4FF40040294605960396FE
:100DB00002902046FFF7B6FB1348144A016811431E
:100DC00001601FE07048016841F00801016000689F
:100DD00000F008000190022005900390C0200290CE
:100DE0006848019900F5806009E0674800F0E3F881
:100DF000022005900390C02002900198614802A94A
:100E0000FFF790FB06B070BD04000140000300072F
:100E100010B50446C06B012804BF022010BD01209C
:100E20004FEAB202032AE06313D8DFE802F00206B9
:100E30000A0E206800F096F90AE0206800F0B8F980
:100E400006E0206800F0E0F902E0206800F006FA11
:100E500000200021E16310BD58B110B50446006CBC
:100E600018B900F0F1F800F007F800F0FDF800F014
:100E7000D4B80120704700001FB50068B749884208
:100E800012D0B749884215D0B0F1804F18BF1FBDAE
:100E900015481C24016841F001010160006800F060
:100EA00001000390039810E00F481E2400F083F81F
:100EB00001980AE00C481D24016841F0020101601C
:100EC000006800F0020002900298204600210022F3
:100ED000FFF76EFC204604B0BDE81040FFF75CBC95
:100EE00000080040000400401C10024088B110B50A
:100EF0000446406C08B900F0BDF800F09BF820688B
:100F0000016921F490410161416921F02A0100F059
:100F10009FB801207047000070B586B0194C00687A
:100F20000026049604F54051884229D116480168EC
:100F300041F480410160016801F48041019101990F
:100F400000F039F803200590022003904FF4007060
:100F50000290019802AD20462946FFF7E3FA4FF4CC
:100F600080602946CDE9036602902046FFF7DAFA51
:100F7000252008210022FFF71BFC2520FFF70CFC91
:100F800006B070BD000801401810024001F00AFCD4
:100F9000FEE701F007FCFEE701F004FCFEE790F835
:100FA000330001F087BA002000220590CDE902004D
:100FB000302001907047016841F004010160006831
:100FC00000F0040001907047306820F480303060F9
:100FD000306820F480207047CDE90811CDE9061172
:100FE000CDE904118161704700F01F010122400921
:100FF00002FA01F17047306A20F001003062306A75
:1010000020F004007047C0E902120161FFF724BF1D
:10101000706800F00C00082870470120606660646A
:10102000A064E06420656065A065E06520662064DA
:10103000002010BD242060642068C16821F40051A4
:10104000C160204600F02CB90020E06320467047C4
:101050004161C16841F40051C16000202021E06479
:101060006164A164606310BD0220211D20642068BA
:1010700000F038B8002020642046FFF74DBFFFF78E
:1010800033BBB0B590B04FF4E010002402250F90B0
:101090004FF48030CDE90B44CDE909440D950E9015
:1010A000CDE90704012006900A9006A8FFF796FCF8
:1010B00070B94FF4806005940221CDE903400F2000
:1010C000CDE9010501A8FFF7A9FB08B910B0B0BD33
:1010D000FFF722FA704701F099BD01F0A7BD01F0BA
:1010E000B5BD000070B56D4A0368904216D0B0F1EE
:1010F000804F05D0194CA04202D0194CA04203D118
:101100004C6823F070032343B0F1804F0AD0134C96
:10111000A04207D0124CA04204D007E04C6823F054
:1011200070032343CC6823F4407323434E6923F0B8
:1011300080030C688D68334390420360C56284620B
:1011400001D109691163012141610169C90703D016
:10115000016921F00101016170BD00BF000800407C
:1011600000040040F0B5036A026A4C4E22F001020E
:1011700023F0020302628C680A684568234384698D
:10118000B0420CD1D1E9057625F44075D1F80CC0F8
:1011900023F00C033D4335432CF00406334324F085
:1011A0007304456022438261496841630362F0BD74
:1011B000F0B5036A026A394E22F0100223F02003D0
:1011C000B04202628C680A68456843EA0413846985
:1011D0000FD1D1E9057625F44065D1F80CC023F094
:1011E000C0033E4345EA86056FF0400606EA0C164A
:1011F000334324F4E644456044EA022282614968AC
:1012000081630362F0BD00BFF0B5036A026A234E3A
:1012100022F4807223F40073B04202628C680A6880
:10122000456843EA0423C4690ED1CE6825F4405CC6
:10123000D1E9057523F440633D43360240F2FF4790
:10124000BE434CEA0515334324F073044560224342
:10125000C2614968C1630362F0BD00BFF0B5026AB4
:10126000036A0E4F23F48053B842036245680C684A
:101270008B68C66904D14F6925F4804545EA871516
:10128000456026F4E64545EA0424C46149680164E2
:1012900022F4005141EA03310162F0BD002C01400B
:1012A000B0B50446006804F108030ECB056925F4C7
:1012B000405519432A4341F20C650261C2686369D3
:1012C000AA4319431143C1604169A26921F44071E5
:1012D000114341611149884202D0FFF73DFB01E013
:1012E000FFF744FB19214843D4E900120C4C92004B
:1012F000B0FBF2F06422B0FBF2F303FB04003224F3
:1013000004EB0010B0FBF2F000F0F00200F00F0070
:1013100002EB031210448860B0BD00BF00380140EA
:101320009CFFFF0F01F0B0BC01F0BCB901F03AFA2C
:10133000FEE700002DE9F041044602202369E5683C
:1013400088402B4003422BD0DFF87880C6432661CB
:1013500008EB020090F8260010B308EB020797F89C
:10136000200080F0010087F8200097F8200018B9CD
:1013700008EB4200838D038704F1340008EB42023E
:1013800050F82130128F1A44636AD31A9DB2082D87
:1013900008D31BB2B3F1FF3F04DD92B240F8212025
:1013A000BDE8F0812046042201F066F8E068304094
:1013B000E060002087F82600012088F80300BDE8DF
:1013C000F08100BFBC00002080B50548818A31B1A2
:1013D0004A1E8282034892B2411CFEF764FF80BD20
:1013E000000100203C2300202DE9F04F85B0064687
:1013F00000200E9C20700EB1152E04D9022738460D
:1014000005B0BDE8F08F994615468B46122E05D0E3
:101410000FF27050805DA84240F0788001F0F2FA3F
:10142000DFF878A5CAF81C0006F0FD00012804D0FA
:101430009AF8000008B100F001FB4DB1B01F9BF815
:101440000080062816D2B8F1050F06D90327D6E783
:10145000B01F4FF0000806280CD2DFF8440504271F
:1014600090F8301021FA08F1C907C8D090F834007C
:1014700010B3C4E7DFF8280590F83400E0B1701E1F
:101480001428BBD801230427DFE810F056005B00C6
:101490006400A8001500B000BA00C000320032009D
:1014A000C400150042004200D7001500EC00F40013
:1014B00015000B011901A2E7701E14283FF69EAF1C
:1014C0000023DFE810F039003E0047008B003E01AA
:1014D00093009D00A30015001500A70062012500E0
:1014E0002500BA007301CF00D7007A01EE00FC009E
:1014F0000BF101000A2E40F0F98090F9000000285D
:101500003FF5A4AFC0B200F089FFF1E0012776E714
:10151000B8F1010F3FF69AAFB8F1000F02D00020EA
:1015200002F05AFA0D2E40F05281DFF8740490F860
:10153000322080F8318054E144F64F30A9F80000A1
:10154000BBE03E200FF26C413E2220704846FEF781
:1015500065FED7E1DFF8485495F8300089F80000BF
:1015600095F8310089F8010095F8320089F80200F9
:1015700095F8330089F8030095F8340089F80400E1
:1015800095F8350089F8050095F8360089F80600C9
:1015900095F8370089F8070009F10800A96B02F0F7
:1015A000BFF9E96B09F10C0002F0BAF909F1100674
:1015B0000027302F00F0C280E81901794279837941
:1015C00041EA420141EA83013170C0797070B01C78
:1015D000E95902F0A5F906360837EAE700F02EFAD5
:1015E000DFF8BC03002780F8357008E79BF801009E
:1015F00001283FF62BAF002800F06C8101206EE13E
:10160000404605B0BDE8F04F02F094B9404602F004
:10161000D3F977E19BF8010001283FF617AFE049C5
:1016200001EBC8014A79002A40F0C5808871404624
:101630009BF8011000F066FFD7E00020002702F0C1
:10164000CBF9D7480124012280F8324090F83110BC
:10165000FFF7A5FC8AF8044001F0D4F90230CAF87B
:101660000C00CCE6B8F1010F3FF6F0AE404602F0B8
:10167000B3F947E10127002D3FF4C1AE0A20B5FBC5
:10168000F0F808EB8800A5EB400000067FF4B7AE49
:10169000C349CA8EC2F58070404580F2AC800527F0
:1016A000ADE6BF4890F83610494289F80010C08E68
:1016B000C0F58070000A89F8010002203FE000F0C8
:1016C000BDF9B748002700210022A0F83170FFF7CC
:1016D00066FC01208AF806708AF8000001F092F991
:1016E0000230CAF82000CAF8100088E602F09AF921
:1016F00044F620618842FFF4A9AEAB4988423FF628
:10170000A5AEAB490A2E01EB5002B2FBF0F001EBA3
:101710005001B1FBF0F2A24941F8382001EBC801B9
:101720000CBF9BF80120FF22CA714979002900F003
:10173000E98081B2404601F001FAE3E034202070F4
:10174000E0E0B8F13F0F3FF681AE954E002500274F
:10175000CAF81450CAF808508AF80550F58686F879
:101760003080062F00F0CE8028FA07F0C0070AD19B
:10177000FCB2204602F020F906EBC70000210571FB
:10178000204600F0D5FE0137EBE7B8F1070F3FF632
:101790005DAE834800210427062900F0AA8000EBF3
:1017A000C10201315279002AF6D028E67C4C94F827
:1017B0003100002875D0042721E679480027CAF8AF
:1017C0001470CAF808708AF80570C78617E60020FA
:1017D00042468AF80400724880F8328090F831005E
:1017E00080466F484146FFF7DAFB01F00BF9023003
:1017F000CAF8100086E091F8300004925D4600902F
:10180000886B01909AF805000390DAF81400C2463C
:101810000290BAF1000F00F0838028461F4602F0C4
:1018200001F90646A81D02F0FDF8039900296BD1C5
:1018300002998E4268D35B498E4265D801998E42E7
:101840004FF0000138BF01210F425DD169790229B3
:101850003FF6FCAD2A793B4607D10327FF2A08BF94
:1018600000287FF4CCAD012015E0052AA3D8009F05
:1018700027FA02F2D2079ED0012908D144F620614E
:101880008842FFF4E3AD4849884203D9DEE50028E9
:101890007FF4DCAD002003900A35AAF1010A02961C
:1018A000B7E794F83200042700287FF4A8ADE08E53
:1018B00000283FF4A4AD01F0A5F8DAF81010401AA2
:1018C0003FF579AF0025E8B206281FD202F074F880
:1018D0000135F8E7404602F06FF89BF80100304907
:1018E00001EBC801087140469BF8011000F020FE92
:1018F00008E090F8311090F8322080F833804046AC
:1019000000F0D8FD00277AE5062778E50027A763D1
:1019100001F078F801216430A186CAF818006EE55C
:101920001E48224F0689B8F1000F20D0584602F019
:1019300079F805460BF1060002F074F8B2B2BBF874
:101940000410049B0BF10A0BA8F1010802EB420200
:1019500047F8225007EB820201335060701C049359
:101960001181C6B20D4806810D48C386DBE70B48DE
:1019700003994171029941610498404289F800003D
:10198000074894E600000000000102010105020280
:10199000010101000001FF000000000070000020B4
:1019A000FC240020005C260500093D0034130020C3
:1019B0000065CD1D4D757369634D6F746F72203175
:1019C0002E303B2070726F746F636F6C3D313B2023
:1019D0006D6F746F72733D363B2074696D65723D37
:1019E000313030303030303B2071756575653D32B7
:1019F000353600000146002005291CD85B4A92F8C4
:101A00003430C3B192F83130ABB992F8323093B977
:101A100002EBC100007978B192F83000C840C007ED
:101A20004FF0000007D0504B926B03EB8101496BE4
:101A3000914288BF0120704700207047B0B54A4CE2
:101A40004FF0FF300025A062A0850120256001F045
:101A5000C3FF464840F2011125710122A0F8311060
:101A600090F833000121BDE8B04000F023BD00BF75
:101A700010B50446FFF7E2FF3C48C16B80F83540E3
:101A80000131C16310BD00BF2DE9F041374CDFF8D3
:101A90006484002640212046C8E90366C8E905663B
:101AA000A8F80460FEF795FC0C4F3F20452584F80C
:101AB0003000062E0AD004EBC600002144F8367030
:101AC000C571F0B200F01EFD0136F2E7FFF7B6FF78
:101AD00000F098FFC8F81C00BDE8F081C0B6060011
:101AE0002DE9F041062901D9BDE8F0818846054677
:101AF0000020002141450FD26A56002AF4D42B461B
:101B0000064636B113F8017B013ED4B2A742F8D1A4
:101B1000EAE701300131EDE700F074FFF54F0124F1
:101B20000646294642467862F86107F12E00FC70AD
:101B3000FEF774FBF048BC7087F8018090F8311014
:101B400090F8322011430BD000210022A0F8311070
:101B500090F833003971002100F0ACFCB01C386102
:101B6000BDE8F04100F004B870000020FC24002023
:101B70002DE9F04F85B000F045FFDFF878B3064659
:101B80009BF8030001280BD1DBF82410711AB1F582
:101B9000967F05D9082005B0BDE8F04FFFF768BF74
:101BA0009BF80210012940F0AC80DBF81010711A8C
:101BB00000F1A780DFF840C34FF000090BF12E0AB7
:101BC0000DF10C0E4FF00008002000968BF80290EB
:101BD000ADF81090CDF80C9002909BF80100B8F190
:101BE000060F32D00BEB08040CEBC80655467346C3
:101BF00094F82810721D40B12F78B94201D117789E
:101C0000F7B9013801350133F5E7FF291AD00298F9
:101C100008B900F0EFFE5FFA88F5284601F0CCFE27
:101C20002846002186F8049000F082FCFF20DFF8AF
:101C3000C8C20DF10C0E84F828000120029001E0CA
:101C40000120187008F10108C7E7AC4F002444F6E2
:101C50002068844252D21EF8041009B10134F8E71A
:101C60009CF830104FF00009B9F1060FF6D021FAB8
:101C700009F2D20705D00BEB090A9AF82820FF2AAF
:101C800002D009F10109EFE70BEB040090F82E50A8
:101C90000190284600F0C2FB014640004145FBD3BD
:101CA00095480E464908BE42FBD8029929B900F072
:101CB000A1FE0199904891F82E5040F8396000EB50
:101CC000C9000121C5715FFA89F50171012128461A
:101CD00000F02EFC284601F02DFE68B90198DFF8CF
:101CE00018C201210DF10C0E029190F82E008AF815
:101CF00028009BF80100B1E7FFF7BAFE9BF803004C
:101D0000009E10B105B0BDE8F08F9BF804000128DB
:101D100011D1DBF80C00301A0DD4774800210022D5
:101D20008BF8041080F8321090F83110FFF737F973
:101D3000B01CCBF81000704F002197F83400024619
:101D4000062905D007EBC10301311B791A43F7E7D8
:101D50009BF8001042B141B9DBF81C10711AB1F5C3
:101D6000FA6F3FF617AF0EE069B1DBF82000301ACA
:101D7000C8D49BF80650062D40F08B8005B0BDE816
:101D8000F04FFFF75BBE0028BCD0DBF81800301A1C
:101D9000B8D4DFF87091B863F98E002900F0A28002
:101DA000BBF80A20BB6B02EB420059F820509D4261
:101DB000A8D8013909EB8000F986511C90F808A0D9
:101DC000C9B2ABF80A10417A81B1022900F08C80C7
:101DD00045680BEB8A010020486344F620618D4280
:101DE00032D34648854226D900202DE007EBCA00B1
:101DF0004479504601F0E0FD002CCDD0F88EBBF8C0
:101E00000A1000228242C7D28BB203EB430459F876
:101E100024305E1BB6F5FA7FBED809EB8406747ACF
:101E2000022CB9D0367A564508BF012C2DD001318D
:101E30000132C9B2E6E7324901EB5500B0FBF5F0DB
:101E400001EB5001B1FBF0F04FF0FF3600244FF0F2
:101E5000000847F83A0060B200280BD4E0B200F066
:101E6000DDFA411B38BF291AB1423CBFA0460E46DD
:101E70000134F0E707EBCA0080F80780504601F014
:101E800059FD00283FF488AF85E60BEB8A004363D9
:101E900082E797F83010681C8BF80600E940C90704
:101EA00016D007EBC504012001212071284600F05F
:101EB0003FFB15A0405DE07100F0B0FA47F8350037
:101EC000284601F037FD00287FF465AE9BF8060038
:101ED000C0B2C821062808BF4FF47A718819CBF820
:101EE00020000FE70A2056E6002005B0BDE8F04FBD
:101EF00001F072BD70000020FC24002000093D00AC
:101F00000065CD1D341300203034373C40430000C1
:101F10002DE9F04F8FB0064600F074FD0DF10A0573
:101F200004463021A81CFEF732FA9A4F40F2011005
:101F3000ADF80A007EB1787B68B1F86B18B1201A51
:101F40009628C0F023813B7BB97B954A702000F036
:101F500033F9FC631AE13879012806D1786C201A2C
:101F6000B0F5967F9CBF00203870B878012840F00B
:101F70000D81F86C201AB0F5967F07D9387808B132
:101F8000FFF75CFD0020B8703880FFE0002E00F005
:101F9000FD80786A201A3228C0F0F8802846214651
:101FA0007C6200F0FFF8432000212A46042300F061
:101FB00003F905F106082C214046FEF7E8F9DFF8A1
:101FC000D8A140F20110ADF80A009AF830009AF852
:101FD00031108DF80F00F87A8DF80C10BAF8321025
:101FE0000128ADF80D1004D1DAF83810404600F0A1
:101FF000D9F8397A01292CD1F879092829D36749E8
:10200000D1F813200592D1F80F2004928A7BD307D0
:1020100005D09DF80B3043F002038DF80B3092078A
:1020200005D59DF80B2042F004028DF80B20BA690B
:10203000A21AB2F5FA7F0DD3093801F11702002177
:102040000026C3B2412000F0B7F8387ABC6108B965
:1020500009E039B19DF80B00012640F010008DF821
:102060000B0000E000269AF8340098B1F87A30B9F5
:10207000F8790021082888BF01210E4204D09DF87C
:102080000B0040F0200001E09DF80B0040F0400004
:102090008DF80B0005F10E060025062D62D00AEB27
:1020A000C5080DF10300214698F805B0BBF1000FFB
:1020B00014BF98F807A04FF0FF0A00F073F807EB81
:1020C00005098DF8075099F85000504522D041B2CB
:1020D00000290BD400218DF8080042200DF10302E5
:1020E00007238DF80910002100F066F84FFA8AF0F6
:1020F00000280BD4642000210DF1030207238DF882
:1021000008A08DF80900422000F056F898F805B0B4
:1021100089F850A098F8040098F80610A1463C46AB
:1021200040EA4B0040EA8107E8B2FFF763FC47EA68
:10213000C000DFF80CAF307098F807005AF835107F
:102140007070B01C00F02EF898F8050028B19DF8CA
:102150000B0040F002008DF80B00274606360135D3
:102160004C469AE7387950B1786C201AB0F5967FD2
:1021700005D89DF80B0040F008008DF80B000DF11C
:102180000A0240200021322300F016F80FB0BDE80B
:10219000F08F00BF00010020FC2400207801002007
:1021A000332400200022202A08BF704721FA02F3BE
:1021B000083200F8013BF6E7F0B5BFB00DF10505B8
:1021C0008DF8090045F6A5201C468DF808108DF8FD
:1021D0000730AE1CADF8050033B11146681D22462C
:1021E000FEF71CF8274600E00027E11C304600F00F
:1021F00033FF7919A1F80500E11D284600F0ACFA7B
:102200003FB0F0BD8AB0FEF779FA00F01BFCFEF794
:1022100038FF7B487B4D7C4E00220027016805F586
:10222000823441F020010160016801F02001019138
:102230000199016841F004010160016801F00401A5
:1022400001910199016841F00801016041F6101106
:10225000006800F00800019001982046B047204631
:10226000202101224FF00108B047AA4605F5843528
:102270004BF6111100222846B047284640F22E2185
:102280000122B0474FF0020941F63010CDE9028734
:102290000190CDF8109001AE20463146FEF742F98C
:1022A0004BF63F303146CDF81090CDE902870190D2
:1022B0002846FEF737F955484FF6FF7147224FF091
:1022C0008043CDE90877CDE90677CDE904778761CA
:1022D000C0E90032C0E902710761FEF7BDFD0028C8
:1022E00040F08B80494808A9FEF70AFD002840F01D
:1022F0008480FEF758FE454801A9FEF789FD0028B5
:102300007BD1424801A908225546FEF781FD0028ED
:1023100073D13E48FEF71CFD3D4800214FF6FF7289
:102320004723FEF759FEC0E90053FEF76CFE002874
:1023300063D1374808A9FEF7E3FC00285DD1FEF71A
:1023400032FE334801A9FEF763FD002855D130481D
:1023500001A90422FEF75CFD00284ED12C48FEF7AF
:10236000F7FC2C4800214FF6FF72472305F58064E7
:10237000FEF732FEC0E90043FEF745FEE8BB254804
:1023800008A9FEF7BDFCC0BBFEF70DFE214801A960
:10239000FEF73EFD88BB1F4801A90422FEF738FD69
:1023A00058BB1C48FEF7D4FC1B4C00200C214FF4FA
:1023B000E13205F59A33C4E90200C4E90401C4E935
:1023C00006002046C4E90032FEF790FDA8B9606817
:1023D000B0F5E13F06D04FF4E13060602046FEF7F3
:1023E00085FD50B900F018FAFFF74EFB01F000FA36
:1023F00001F028FAFFF7BCFBFAE7FEF78DF800BF03
:102400001810024000040040D5060008B410002057
:102410001C11002084110020EC1100200C210AA3C3
:10242000B0FBF1F101EB4102A0EB8202D2B253F812
:1024300022204B1FC1F105013B2822FA01F188BF80
:1024400002FA03F108467047FAFD0300BF3A0400A0
:10245000217B040057BF04009C0705002C54050095
:102460004AA505003BFB050049560600C0B606001C
:10247000F41C07003B890700B0B50823FF241C2586
:1024800003EAC1039C40022938BF1825415904338F
:10249000A1439A4011434151B0BDF8B5022289B21F
:1024A0000392012200916946019200220292FEF7F6
:1024B00039F88FBD70B5114C0023032B0DD020FAD5
:1024C00003F5ED0704EBC3056D68AEB208BF2E043B
:1024D00054F8335001332E61EFE700294FF080703C
:1024E000074908BF4FF48070002A08604FF0805001
:1024F00008BF4FF48050086070BD00BFA83A0008C4
:1025000010080140B0B5094A1125B1FA81F1C54062
:10251000490902EBC00352F8300069405B68C90703
:102520009CB218BF1C040461B0BD00BF483A00084B
:1025300010B5064A02EBC00352F830005B681C0479
:10254000002908BF9CB2046110BD00BF783A0008A2
:1025500010B5924CA07801281BD1FEF7C1F8E169B3
:10256000884216D00022401A0328A27011D876495A
:10257000EFF3108072B6CA6822F02402CA600A68BB
:1025800022F040020A60CA6842F08802CA6080F302
:10259000108810BD8149C8898A89904204BF4FF0D4
:1025A000FF307047C889694A694B105CCA8953F883
:1025B00022208A61CA8901326FF35F22CA81704783
:1025C0002DE9F043BDB00546FEF78AF8734ED6F804
:1025D0001890A0EB0900032816D82A4800680007C5
:1025E00012D46F48002401A9B28AF38A9A420ED00D
:1025F000EF2C0CD8B28A825C0A550134B28A0132BF
:102600006FF35F22B282EFE7F08AB08236E0DFF844
:102610004481022088F8020043F6C72088F804406D
:1026200088F80350A8F800002CB108F1050001A9B2
:102630002246FDF7F3FD08F10201E21C4FF6FF70A0
:1026400041F2210372B10D78013A80EA0520082594
:1026500035B107B2013D03EAD73787EA4000F7E713
:102660000131EFE7E11D71820121C6F81C90B170C4
:1026700008EB0401A1F80500002030823DB0BDE860
:10268000F08300BF0C440040ED4AEFF3108172B6B6
:1026900000235078537008B19389D38181F3108857
:1026A000704700BFF8B5284C256815F02F0F1DD0D6
:1026B0006068290703D0E2480121417016E0A906AD
:1026C00014D5DF4EB1894F1CF1896FF35F278F421C
:1026D00002D10120707009E0B1891C4A5054FDF705
:1026E000FFFFB1891A4A42F82100B781280616D5A2
:1026F000E068000613D5D248018A428A914206D288
:10270000018A4A1C02821348405C606007E0E0686E
:1027100020F08000E060E06840F04000E060206869
:1027200040060FD5E06840060CD5E068000609D4E5
:10273000E06820F04800E06020686068E06840F0F1
:102740002400E060F8BD00BF00440040B602002055
:10275000B8040020BF01002070B5B94BEFF3108220
:1027600072B69C8ADD8AED432C446FF35F248C4261
:1027700004D20120587082F3108870BD084C51B10A
:1027800010F8015BDE8A0139A555DD8A01356FF34A
:102790005F25DD82F3E782F3108870BDBC00002066
:1027A000B80C00207FB5EFF3108072B68D4D8E4EC1
:1027B00000241848016841F001010160016801F03E
:1027C000010103910399016841F002010160016870
:1027D00001F0020102910299016841F004010160D7
:1027E000006800F00400019001987A48C0F80048A1
:1027F000C0F800440460062C07D055F82400315D71
:102800000422FFF739FE0134F5E7BDE87F4000F010
:1028100019B900BF1C1002402DE9F04F85B0B54C2E
:10282000C549206840F010002060206800F01000CA
:10283000019001984FF00050C1F8100864484FF41F
:102840000051FFF72AFEFEF787F854F8141C614B7D
:10285000624C11F4E06118BF01218840D96901314F
:10286000B0FBF1F25C498A421AD1A2690132B0FB95
:10287000F2F28A4214D1D4F818240132B0FBF2F0FB
:1028800088420DD1196A4FF6FF70814208D1E16983
:10289000814205D152484FF6FF710068884201D04D
:1028A000FDF73AFE944FDFF86083DFF85893A346B4
:1028B00000244FF0010A062C1AD007EBC40157F888
:1028C000340058F8245019F8046004228988016102
:1028D00028463146FFF7D0FDB000296A0AFA00F019
:1028E000084300212862E0B2FFF70CFE0134E2E762
:1028F000384800255A46CBF8FC53C0F80054056010
:10290000C2F800541560834645604FF0804001686E
:1029100041F001010160DBF8F40340F00100CBF865
:10292000F403D2F8F00340F00100C2F8F00371485C
:102930008346406840F40030CBF80400DBF8040024
:1029400000F4003001900198DBF8000040F0040032
:10295000CBF80000DBF8000000F0040001900198C3
:102960002248016841F0E06121F008010160032084
:102970000395049012200290042001906E4801A952
:10298000FDF7D0FD1A4C09206560A560E060FDF7F9
:10299000E3FF00F5E1304FF461310022B0FBF1F0CC
:1029A0000821206042F2240060602620FDF700FF2D
:1029B0002620FDF7F1FEE848016841F020010160A2
:1029C000816841F00101816005B0BDE8F08F00BF72
:1029D000001001400C00004040420F001004004075
:1029E0002C080040C03A0008403A000804000140AA
:1029F000084400400248016881F4005101607047BA
:102A00000C100140FDF76CBED14AEFF3108172B695
:102A10000023D078D37081F310887047CC49C888E0
:102A20008A88904204BF4FF0FF307047C888B34A8D
:102A3000105CCA8801326FF35F22CA80704700BF02
:102A4000BC0000202DE9FC412A48DFF8E480002783
:102A5000016841F004010160016801F00401019185
:102A60000199016841F008010160006800F0080068
:102A7000009000982048041D20A0051D2B48061D2D
:102A8000062F18D054F8040C54F8081B8AB20261BF
:102A9000C047F8B20021FFF735FD56F8040C56F890
:102AA000081BC04755F8040C55F8081B0A040261BE
:102AB000C0470137E4E70020012101220024FFF78D
:102AC000F9FC1C4D032C08D005EBC40155F834006B
:102AD0004968FFF7E2FC0134F4E7174C4FF48071CA
:102AE0002046FFF7DAFC20464FF48051BDE8FC4158
:102AF000FFF7D3BC18100240783A000800080140E4
:102B000000800000000C014080000000000C01402B
:102B100040000000000801404000000000080140A3
:102B200080000000000C014000040000483A00084A
:102B30009B240008A83A0008000801402DE9F04154
:102B4000834A0D46EFF3108872B602EB4001171866
:102B50008D8597F826201ABB2A4A0D87165C2A4ACB
:102B600052F8204000203146042287F820002046F9
:102B7000FFF782FC616A04EB86000322294489B2D4
:102B800041630220314600FA06F5E8432061012046
:102B900087F826002046FFF76FFCE0682843E060D6
:102BA00088F31088BDE8F0812DE9F041044615480E
:102BB000EFF3108872B60022065D022000FA06F7D5
:102BC0001148314650F82450E868B843E860284678
:102BD000FFF752FC686AFF43696A091A89B2032940
:102BE000FAD3284631460422FFF746FC5848002114
:102BF0002F61204480F8201080F8261088F3108878
:102C0000BDE8F081403A0008C03A000880B54FF0B6
:102C1000804000210022FEF78DFB4FF08040022112
:102C20000522BDE88040FEF785BB000010B5064CCC
:102C3000002103222046FEF77DFB204601210422CD
:102C4000BDE81040FEF776BB0004004010B5064C0E
:102C5000002102222046FEF76DFB204601210122C1
:102C6000BDE81040FEF766BB00080040384AEFF3AD
:102C7000108172B600231078137008B19388D38046
:102C800081F31088704700BF70B51B48016811F0D0
:102C90002F0F17D042680B0703D02D4A0123137062
:102CA00010E08B060ED52A4B9C88DD8801346FF32B
:102CB0005F24AC4202D101221A7003E09D880F4EBE
:102CC00072559C8009060BD5C168090608D52049B4
:102CD0000A894B899A4204D1C16821F08001C16000
:102CE00070BD0A891B4B9A5C4260088901306FF302
:102CF0005F20088170BD00BF003801403C210020EA
:102D000070B5134BEFF3108272B61C895D89ED43E9
:102D10002C446FF35F248C4204D20120187082F39C
:102D2000108870BD0B4C51B110F8015B5E89013900
:102D3000A5555D8901356FF35F255D81F3E7064891
:102D4000016841F08001016082F3108870BD00BF0E
:102D5000BC0000203C2500200C3801402DE9FE4F2E
:102D6000DFF8B48B0546B8F8140080B1FFF74AFECF
:102D7000D8F82C10401A652809D3B148082180F8EA
:102D800035100021A8F81410C16B0131C163FFF7A1
:102D900039FEC8F82C00B8F81400F72803D1FEF764
:102DA00013FBB8F81400A74CA949DFF8709C012662
:102DB00025540130A71C0E31A8F81400019180B2EF
:102DC0000228C0F03B812178A5290FD161785A29CA
:102DD0000CD10528C0F03281A578F12D09D3D9F89E
:102DE0003C0089F835600130C9F83C00FEF7ECFA88
:102DF000E4E0EE1DB042C0F02181E91C38464FF0FE
:102E0000010A00F029F906EB040BC1B21BF8022CF1
:102E10008A4260D11BF8011CB1EB102F5BD12079E5
:102E2000411E142902D33038042813D898F808001A
:102E300050B9FEF703FE0020A8F8120088F804003D
:102E400088F8000088F80B0088F808A0FFF7DAFD82
:102E5000C8F81C00B8F8120086420FD1FFF7D2FD67
:102E6000D8F83810401AC0087C2807D87649204680
:102E70003246FDF7A7F9002800F0A38000208DF866
:102E80000B002079332831D034283DD1A5F13B0007
:102E9000C0B2CF283FD398F856006179BA46814234
:102EA00002BF0020C8F85900C8F85600681EA11DCE
:102EB00088F80700C2B20198FDF7B0F9D8F85600BB
:102EC000624AD8F85910C2F807000720C2F80A1061
:102ED0008DF80B003AE0072089F83500D9F83C005E
:102EE0000130C9F83C00FEF76FFA66E0D8E9180136
:102EF000564AC2F807000820C2F80B108DF80B00E4
:102F0000002D18BF012513E0A0F13001C9B202293C
:102F100004D8BE2D5BD9BA4601250BE04B4A0DF112
:102F20000B010091611DD31D2A46FEF75DFA05468F
:102F3000BA465DB1D9F83C0089F835500130C9F87E
:102F40003C0000208DF80B00812001E0002580204E
:102F50003E4F45F6A52139803871BD71E078217961
:102F60009DF80B50F8707971A91C384600F8021FC3
:102F7000691D00F071F8E9193246A1F8070005F162
:102F800009002146A8F810002F48FDF7CEF9A8F84F
:102F90001260FFF737FDB8F81010C8F8380038464F
:102FA000FFF7AEFE5746B8F814005946801BA8F844
:102FB000140082B22046FDF776F90126B8F8140015
:102FC000FDE6B8F810102148FFF79AFEEBE798F8F5
:102FD0000D00BA4608B10525ACE7FEF72FFD2179B3
:102FE0001C4800272A4688F8047088F8007088F882
:102FF0000B7000F8011B611DFDF710F9681C01251D
:1030000088F80C00E07888F80D5088F80E00FFF77B
:10301000F9FCC8F83000FF20C8F83C7088F861005F
:103020002079302888F8600005D1C8F86270A8F8C7
:10303000667088F862508020002589E7BDE8FE8F21
:10304000FC2400203C2300203C120020341F0020E0
:10305000780100203324002070B54FF6FF72002362
:1030600041F221048B4204BF90B270BDC55C82EA7C
:1030700005220025082D06D216B2013504EAD636FF
:1030800086EA4202F6E70133ECE700002DE9F04F53
:103090009BB00446FFF7B6FCDFF87C988046D9F871
:1030A0002000A8EB0000062803D3C9F820800025E3
:1030B0000CE0DFF86808C9F82080D0F8F850F72D48
:1030C00004D1411CF622F625FDF7EDF8DFF84C1887
:1030D000681C4FF0000E41F22103C1F8F8004C5576
:1030E0000D46D1F8F8A00EF1070BD34543D815F8DB
:1030F0000E10C72932D105EB0E014A783A2A2DD19C
:103100000F4617F8022F013A012A27D891F804C078
:10311000BCF1F00F22D80CF1070202EB0E0454456B
:103120001CD10CF103054FF6FF7475B13E78013DDB
:1031300084EA0624082636B120B2013E03EAD030E4
:1031400080EA4404F7E70137EFE70CEB0100A4B293
:10315000DFF8C857B0F80500A04202D00EF1010E0A
:10316000C1E7BEF1000F03D0DFF8B007FDF79BF811
:103170000020C5F8F800D34500F22983A87801287B
:1031800040F025832F79072F3DD36879A5283AD1C0
:10319000A8795A2837D1EC79E01DB84233D1391FCC
:1031A000E81D89B2FFF758FF7919B1F80310814281
:1031B00029D1687A712808BF082C00F0AC827228E7
:1031C00021D104B3D02F1ED899F80A00B8420FD1EC
:1031D000D9F83400A8EB000000097C2808D8DFF8F3
:1031E0000406691D3A46FCF7EDFF002800F0F28264
:1031F00000208DF8270099F80800012840F0A982E6
:10320000A97A0C20C6E20DF1670041F2210B079765
:10321000013005900020B84200F0D38200F105088B
:10322000089015F80840FFF7EDFBD9F8401099F821
:103230000520DFF8AC65411A9246052988BF4FF09A
:10324000000A002A08BF92460AF1010106F80A4066
:10325000C9F8400089F80510C9B20E294DD131785E
:10326000D32942D1717891293FD1B17801293CD13C
:103270003179062939D8F27ABABB0022062A12D04F
:1032800093195B798A420BD25CB2002C2DD40024B6
:10329000A24206D0371901347F799F42F8D124E049
:1032A0001BBB0132EAE7B21C0A234FF6FF7783B15A
:1032B0001478013B87EA0427082434B13DB2013C6D
:1032C0000BEAD53585EA4707F7E7DFF850560132B4
:1032D000EDE7B389BAB2934207D199F80820002AE2
:1032E00000F015814FF0000A04E0711C30460D22F9
:1032F000FCF7D9FF079F89F805A015F80840FFF7EC
:1033000081FB0546D9F8480099F80310C9F84850E0
:10331000281A6428084688BF0020002908BF0846EC
:10332000411C484489F8031080F86840C8B20D2851
:10333000C0F0DF8099F86800A52840D199F86900AD
:103340005A283CD199F86A00062838D199F86C00BF
:10335000502834D109F16A000921FFF77DFEB9F840
:10336000731081422BD10120C9F84C5089F802001A
:1033700099F86D00FF282BD199F86E10002071B9D3
:1033800099F86F1001290AD199F8701039B999F894
:10339000711021B999F87200B0FA80F04009002844
:1033A00089F8010040F0A28099F80000002800F0A0
:1033B0009D80FEF743FB002089F8000096E009F1AC
:1033C000680009F169010C22FCF76DFF0C208EE00A
:1033D00099F86B60DFF8687406904FF0000ABAF550
:1033E000807F19D007EB0A0898F8080088B198F890
:1033F0000600B0420DD1D8F80C00281A00097C282C
:1034000007D809F16D0140460622FCF7DBFE0028D3
:1034100048D00AF1100AE2E7D9F8280099F86E605E
:10342000411C00F00F08C9F828100021052E8DF866
:10343000261002D9079F02203DE0069C012C0AD1EC
:1034400099F808100A20079F012934D199F807102C
:10345000082912D82FE099F870C099F86FA099F850
:10346000713099F8722099F80800079F022C1FD13B
:10347000F0B199F8070009281CD3D9F86D00C9F8F4
:103480005700B9F87100A9F85B0099F806000130FF
:10349000C1B2814218BF012189F8561089F806107F
:1034A000002008E098F80700079F8DF8250016E037
:1034B000022C22D10A20D9F86D20E14B4FEA0811E5
:1034C00099F86B608DF825005A50B9F8712003EB1C
:1034D0000811CD60C8718E718A8001220A72512054
:1034E00031460DF125020123FEF766FE002089F822
:1034F00003000898D14D01308DE60A2C9BD8002C92
:10350000214618BF0121084213D00620D3E799F8BD
:103510000B20079F52B999F80D203AB90122C9F83A
:103520004400701D89F80420FEF7DAFA4FF0000A13
:10353000E1E624B199F8010008B90820BBE79CB185
:1035400099F8040080B102A880E80C10FFF75AFA3D
:10355000D9F844100DF1080C9CE80C10401AB0F595
:10356000967F02D80720A6E7F4B1E01E8DF868A088
:103570008DF8676007283FF65EAF4AEA0C2141EA02
:10358000034141EA0261DFE800F004171F364153AE
:103590005D610598FEF706FE0DF126000DF167014D
:1035A00005220090092067E0FEF748FA99F8080024
:1035B000012121EA000067E001293FF63CAF0DF14F
:1035C0002600009006201DE001293FF634AF0029B7
:1035D0007ED001200DF1670102220DF127038DF845
:1035E00068000DF1260000900620FDF7FDFE002882
:1035F00046D107206DE001293FF61DAF0DF12600F1
:1036000000900B200DF16701022235E0022007290E
:103610003FF651AF012202FA01F111F08F0F3FF492
:103620004AAF0DF126008DF867A000900C2020E035
:1036300001293FF600AF0DF126008DF867A000903C
:103640000D2016E001208DF867000EE000200DF13E
:10365000670101220DF127038DF867000DF12600A7
:1036600000900D20FDF7C0FE50B90DF1260000902E
:103670000E200DF1670101220DF12703FDF7B4FEC5
:10368000042804D048B9012089F8000008E7E3487D
:1036900090F8320048B103200DE700F0FD0001284A
:1036A0004FF0010008BF022005E7DC4890F8310028
:1036B00008B10420FFE6D94890F83000F040C00778
:1036C0000BD0D64890F8340048B1079F0920F2E6A5
:1036D00008200DF126010091CBE70520EBE60698C6
:1036E00006280FD00698079F072812D10021062927
:1036F0000FD0CA4800EBC100013142790920002AED
:10370000F5D0D8E6C548079F00EBC60040790028F1
:10371000DCD10B20CFE699F80D00012851D199F8A2
:103720000E00297A81424CD13048A97A0078814232
:1037300047D1D5F80A00D5F80E10C9F83080C9E98C
:103740001801C04310F47F4F1CBF002089F80D0002
:1037500037E099F80B0050B9FEF770F90020EC79CA
:1037600089F8040089F80000012089F80B001E4A3E
:103770000DF12701A87A009105F10B01931C621E3F
:10378000D2B2FDF731FEA97A042902BF002189F8DF
:103790000B100421144E3A4670709DF827003170CA
:1037A000691D841C0F4889F80940FCF737FD297A08
:1037B000E3B273203246C9F8348089F80A70FEF704
:1037C000FBFC0120FEF7A4FBE878FEF7F9FE1BB036
:1037D000BDE8F08F99F80930297A034A7320EEE7A3
:1037E000780100202C200020FC2000203324002021
:1037F00010B5494C49490020C4F85600C1F8F800FA
:10380000C4E91800A082206120712060C4F859002A
:10381000C4F805006073C4F80900C4E90600C4E9EF
:103820000800A06206484FF48071FCF7D2FD4FF00B
:10383000FF30A4F85400206510BD00BFB80E002072
:10384000B40F002010B5344C607B01280DD1FFF778
:10385000D9F8216B401A42F21171884205D34FF416
:10386000C160A4F8610000206073207A012810D1A3
:10387000FFF7C8F8E169401AB0F5FA6F09D9FEF709
:10388000DDF80020C4F85600A4F80700C4F8590079
:103890006082FFF7EBF920B10020A0820920FEF73B
:1038A000E7F8FFF7B1F810B10B20FEF7E1F8A08AB6
:1038B00090B1FFF7A7F8E16A401A65280CD3574882
:1038C000082180F835100021A182C16B0131C1634C
:1038D00002E0C0B2FFF742FAFFF7A0F80028F8D5DF
:1038E000FEF7D2FE68B10D4900206071E070C1F8AA
:1038F000F8004A48C16B0131C16302E0C0B2FFF772
:10390000C5FBFEF747FE0028F8D50020FEF700FBB8
:10391000BDE81040FEF71CBE00010020B80E0020DC
:103920000022202A08BF704721FA02F3083200F86B
:10393000013BF6E72DE9F041384D044695F830009B
:10394000E040C0071CD005EBC4060420317969B300
:1039500095F8311051BB95F8321039BBFFF752F88A
:103960002F490969401A0BD455F8340044F62061F8
:10397000884202D30E49884205D90320BDE8F08170
:103980000420BDE8F0810B4A02EB50019046B1FBE8
:10399000F0F72046B9B2FFF7D1F808EB5700B0FBBB
:1039A000F7F045F83400012070710020BDE8F08187
:1039B00000093D000065CD1DB0B50446184800253E
:1039C00000EB840045632046FFF7EEF8134800EB58
:1039D000C4004571B0BD00BF2DE9F0410446DFF8D9
:1039E0003C800F4800270026A8F8367088F834700D
:1039F000476187604771062E08BFBDE8F081F5B2C8
:103A00002846FFF7D9FF34B108EBC6000021077143
:103A10002846FEF78DFD0136EDE700BFFC240020AF
:103A200070000020006870470000000000000000E7
:103A30000102030406070809000000000102030454
:103A40000001000001020000000801400008000021
:103A5000000C014000010000000C014010000000BB
:103A60000008014010000000000C014001000000AF
:103A7000000C014000100000000C01400800000094
:103A8000000C014020000000000C0140000200007A
:103A9000000C01400400000000080140200000006C
:103AA000000C014002000000000C014000800000FA
:103AB000000C014000200000000C01400008000044
:103AC00000000040000800400008004000040040E2
:103AD0000004004000000040F83A00080000002008
:103AE0001000000028010008083B0008100000201A
:103AF000302F000044010008100000000100000009
:083B000000127A000000000031
:040000050800018965
:00000001FF
