:020000040800F2
:10000000F82E002089010008211D00088919000828
:10001000151D000815050008A523000800000000B4
:100020000000000000000000000000009B0100082C
:100030009D010008000000009F010008291E000823
:10004000A3010008A3010008A3010008A301000800
:10005000A3010008A3010008A3010008A3010008F0
:10006000A3010008A3010008A3010008A3010008E0
:10007000A3010008A3010008A3010008A3010008D0
:10008000A3010008A3010008A3010008A3010008C0
:10009000A3010008A3010008A3010008A3010008B0
:1000A000A3010008A3010008A3010008A3010008A0
:1000B000A11E0008A91E0008B11E0008A301000827
:1000C000A3010008A3010008A3010008A301000880
:1000D000A3010008952300089D230008A301000840
:1000E000A3010008A3010008A301000800F002F822
:1000F00000F03AF80AA090E8000C82448344AAF188
:100100000107DA4501D100F02FF8AFF2090EBAE885
:100110000F0013F0010F18BFFB1A43F0010318473B
:10012000086E0000286E0000103A24BF78C878C11D
:10013000FAD8520724BF30C830C144BF04680C60ED
:10014000704700000023002400250026103A28BF35
:1001500078C1FBD8520728BF30C148BF0B60704739
:100160001FB51FBD10B510BD00F09AF91146FFF77D
:10017000F7FF04F02FFB00F0B8F903B4FFF7F2FF2C
:1001800003BC00F0BFF90000094880470948004758
:10019000FEE7FEE7FEE7FEE7FEE7FEE7FEE7FEE737
:1001A000FEE7FEE704480549034A054B7047000097
:1001B0009D1E0008ED000008F8260020F82E002003
:1001C000F826002040EA010310B59B070FD1042A4E
:1001D0000DD310C808C9121F9C42F8D020BA19BA12
:1001E000884201D9012010BD4FF0FF3010BD1AB177
:1001F000D30703D0521C07E0002010BD10F8013BCC
:1002000011F8014B1B1B07D110F8013B11F8014BF2
:100210001B1B01D1921EF1D1184610BD032A40F2DA
:10022000308010F0030C00F0158011F8013BBCF198
:10023000020F624498BF11F801CB00F8013B38BFB0
:1002400011F8013BA2F1040298BF00F801CB38BFBE
:1002500000F8013B11F0030300F0B380083AC0F04E
:10026000088051F8043B083A51F804CBA0E8081084
:10027000F5E7121D5CBF51F8043B40F8043BAFF3B7
:100280000080D20724BF11F8013B11F801CB48BF11
:1002900011F8012B24BF00F8013B00F801CB48BF47
:1002A00000F8012B7047431A28BF9A427FF6B6AF79
:1002B00010441144032A40F2268010F0030F1EBFA1
:1002C00011F8013D521E00F8013D10F0030F7FF4BC
:1002D000F6AF11F0030300F0B980083AC0F00B80CC
:1002E00051F8043D083A51F804CD40F8043D40F877
:1002F00004CDFFF7F3BF121D5CBF51F8043D40F879
:10030000043DAFF30080D20724BF11F8013D11F87E
:1003100001CD48BF11F8012C24BF00F8013D00F8C1
:1003200001CD48BF00F8012C70474FF000020429AE
:10033000C0F0128010F0030C00F01B80CCF1040C14
:10034000BCF1020F18BF00F8012BA8BF20F8022B48
:10035000A1EB0C0100F00DB85FEAC17C24BF00F8EE
:10036000012B00F8012B48BF00F8012B70474FF01C
:10037000000200B5134694469646203922BFA0E8F5
:100380000C50A0E80C50B1F12001BFF4F7AF090701
:1003900028BFA0E80C5048BF0CC05DF804EB8900F2
:1003A00028BF40F8042B08BF704748BF20F8022B35
:1003B00011F0804F18BF00F8012B7047704770474D
:1003C000704710B5203AC0F00B80B1E81850A0E893
:1003D0001850B1E81850A0E81850203ABFF4F5AF13
:1003E0005FEA027C24BFB1E81850A0E8185044BF6F
:1003F00018C918C0BDE810405FEA827C24BF51F8DC
:10040000043B40F8043B08BF7047D20728BF31F8CF
:10041000023B48BF11F8012B28BF20F8023B48BF20
:1004200000F8012B7047431A28BF9A427FF6C9AFE4
:100430001044114410F0030F1EBF11F8013D521E6D
:1004400000F8013D10F0030F7FF4F6AF103AC0F052
:100450000A8010B531E9185020E91850103ABFF45D
:10046000F9AFBDE81040530724BF31E9081020E977
:10047000081044BF51F8043D40F8043D12F0030F4A
:1004800008BF7047D20728BF31F8023D48BF11F8B6
:10049000012C28BF20F8023D48BF00F8012C70470E
:1004A000754600F02BF8AE4605006946534620F02D
:1004B0000700854618B020B5FFF774FEBDE8204060
:1004C0004FF000064FF000074FF000084FF0000B10
:1004D000AC46ACE8C009ACE8C009ACE8C009ACE87F
:1004E000C00921F007018D46704710B50446AFF3EF
:1004F00000802046BDE81040FFF73FBE004870472F
:100500001000002001491820ABBEFEE726000200C3
:100510007047000080B505F03BFAFFE7FEE70000FA
:1005200080B582B005F034FAEFF3108072B6019016
:10053000FFE7FEE790B00F900E9100200D9009901C
:10054000FFE70E9800680D99C840002800F07F81F1
:10055000FFE70D99012088400C900E9800680C99D7
:1005600008400B900B980C99884240F06C81FFE793
:100570000E9840680590002851D0FFE705980128A3
:100580003AD0FFE7059802283FD0FFE705980328F7
:100590005FD0FFE70598112832D0FFE705981228B1
:1005A00038D0FFE705980021C1F21101884236D00A
:1005B000FFE705980021C1F2120188422FD0FFE722
:1005C00005980021C1F22101884228D0FFE7059853
:1005D0000021C1F22201884221D0FFE705980021C5
:1005E000C1F2310188421AD0FFE705980021C1F21B
:1005F0003201884213D02FE00E98C06809902CE099
:100600000E98C0680430099027E00E98C068083042
:10061000099022E00E98C0680C3009901DE00E98F9
:10062000806818B9FFE70420099011E00E988068EF
:10063000012806D1FFE7082009900C980F9908615E
:1006400005E0082009900C980F994861FFE7FFE743
:1006500003E00020099000E0FFE70B98FF2803D893
:10066000FFE70F98049003E00F9804300490FFE731
:10067000049808900B98FF2804D8FFE70D98800095
:10068000039006E00D996FF01F0000EB81000390CE
:10069000FFE70398079008980068079A0F21914098
:1006A0008843099991400843089908600E98C079D9
:1006B000C006002840F1C680FFE7FFE741F21800BE
:1006C000C4F20200016841F001010160006800F01D
:1006D000010006900698FFE70D9820F0030008211E
:1006E000C4F2010140580A900D9800F00300810007
:1006F0000F2000FA01F10A9888430A900F9840F6FB
:100700000001C4F20101884203D1FFE700200290FA
:1007100026E00F9840F60041C4F20101884203D15F
:10072000FFE70120019018E00F9841F20001C4F2A8
:100730000101884203D1FFE7022000900AE00F99EF
:1007400041F20042C4F201020420914208BF03209A
:100750000090FFE700980190FFE701980290FFE703
:1007600002980D9901F00301890000FA01F10A983D
:1007700008430A900A980D9921F003010822C4F257
:10078000010288500E988079C006002809D5FFE73D
:100790000B9A40F20841C4F2010108681043086056
:1007A00008E00B9A40F20841C4F201010868904346
:1007B0000860FFE70E9880798006002809D5FFE7DA
:1007C0000B9A40F20C41C4F2010108681043086022
:1007D00008E00B9A40F20C41C4F201010868904312
:1007E0000860FFE70E9880798007002809D5FFE7A9
:1007F0000B9A40F20441C4F20101086810430860FA
:1008000008E00B9A40F20441C4F2010108689043E9
:100810000860FFE70E988079C00748B1FFE70B9AA0
:1008200040F20041C4F2010108681043086008E08A
:100830000B9A40F20041C4F201010868904308603D
:10084000FFE7FFE7FFE70D9801300D9079E610B064
:100850007047000082B00190ADF802108DF80120C1
:100860009DF8010028B1FFE7BDF802000199086179
:1008700005E0BDF80200000401990861FFE702B03D
:100880007047000042F2F460C2F200000068704756
:1008900040F20400C2F20000027842F2F461C2F2B7
:1008A00000010868104408607047000080B542F2FB
:1008B0000001C4F20201086840F010000860032043
:1008C00000F096F8042000F005F800F03BF8002056
:1008D00080BD000080B582B0009040F20000C2F2FE
:1008E0000000006840F20401C2F200010A784FF4EF
:1008F0007A71B1FBF2F1B0FBF1F000F073FD20B1C1
:10090000FFE701208DF8070018E000980F280DD8A8
:10091000FFE700994FF0FF30002200F04FF80098F9
:1009200040F20801C2F20001086003E001208DF8E6
:10093000070003E000208DF80700FFE79DF807009F
:1009400002B080BD83B0FFE741F21800C4F202009C
:10095000016841F001010160006800F001000290AF
:100960000298FFE7FFE741F21C00C4F202000168B1
:1009700041F080510160006800F0805001900198C2
:10098000FFE7FFE70421C4F2010108680090009826
:1009900020F0E0600090009840F000700090009817
:1009A0000860FFE703B0704780B582B08DF807009C
:1009B0009DF9070001F0FCFC02B080BD80B586B057
:1009C0008DF81700049103920020029001F008FDB9
:1009D00002909DF91700019002980499039A01F082
:1009E000A5F90146019801F003FD06B080BD0000A5
:1009F00080B582B00190019801F01CFD02B080BD6D
:100A000080B584B002900191029820B9FFE70120DF
:100A10008DF80F001BE1019842F20001C4F20201BF
:100A2000096801F00701884216D9FFE742F2000089
:100A3000C4F20200016821F00701019A114301602C
:100A4000006800F007000199884204D0FFE7012008
:100A50008DF80F00FBE0FFE7029800788007002880
:100A60002AD5FFE7029800784007002809D5FFE75C
:100A700041F20401C4F20201086840F4E060086039
:100A8000FFE7029800780007002809D5FFE741F248
:100A90000401C4F20201086840F460500860FFE7F6
:100AA00041F20401C4F20201086820F0F000029A49
:100AB000926810430860FFE702980078C00700289A
:100AC00060D0FFE70298406801280ED1FFE741F2AD
:100AD0000000C4F2020000688003002804D4FFE78D
:100AE00001208DF80F00B2E021E002984068022852
:100AF0000ED1FFE741F20000C4F20200006880015D
:100B0000002804D4FFE701208DF80F009FE00DE0DE
:100B100041F20000C4F2020000688007002804D4FB
:100B2000FFE701208DF80F0091E0FFE7FFE741F2BA
:100B30000401C4F20201086820F00300029A52681E
:100B400010430860FFF79EFE0090FFE741F20400AB
:100B5000C4F20200006800F00C0002994968B0EB92
:100B6000810F0ED0FFE7FFF78DFE0099401A41F28A
:100B70008931884204D3FFE703208DF80F0066E037
:100B8000E4E7FFE7019842F20001C4F202010968BC
:100B900001F00701884216D2FFE742F20000C4F2DA
:100BA0000200016821F00701019A11430160006809
:100BB00000F007000199884204D0FFE701208DF87A
:100BC0000F0044E0FFE702980078400700280CD5AA
:100BD000FFE741F20401C4F20201086820F4E0607A
:100BE000029AD26810430860FFE702980078000775
:100BF00000280DD5FFE741F20401C4F202010868A4
:100C000020F46050029A126940EAC2000860FFE7CF
:100C100000F04CF841F20401C4F202010968C9B2C3
:100C20000A0946F69A51C0F60001895CC84040F2B4
:100C30000001C2F20001086040F20800C2F20000A8
:100C40000068FFF747FE00208DF80F00FFE79DF8D2
:100C50000F0004B080BD000040F20000C2F20000AE
:100C60000068704780B5FFF7F7FF41F20401C4F256
:100C700002010968C1F3022246F6AA51C0F600013A
:100C8000895CC84080BD000080B5FFF7E5FF41F2F8
:100C90000401C4F202010968C1F3C22246F6AA5156
:100CA000C0F60001895CC84080BD000086B000200D
:100CB0000590049003900290019041F20400C4F268
:100CC000020000680590059800F00C0001460091B4
:100CD00000283FD0FFE70098042804D0FFE70098E1
:100CE000082806D037E041F20020C0F27A000190D7
:100CF00037E00598C0F3834146F6B250C0F60000D5
:100D0000405C02909DF81600C007C0B1FFE741F2B9
:100D10000400C4F202000068C0F3404146F6C2502D
:100D2000C0F60000405C0490029841F20021C0F23D
:100D30007A0148430499B0FBF1F0039007E0029870
:100D400040F60011C0F23D0148430390FFE70398CD
:100D5000019006E0FFE741F20020C0F27A00019026
:100D6000FFE7019806B0704780B586B004900498FC
:100D700020B9FFE701208DF817002EE304980078D2
:100D8000C007002800F0AE80FFE741F20400C4F283
:100D90000200006800F00C00042813D0FFE741F2C5
:100DA0000400C4F20200006800F00C0008281BD107
:100DB000FFE741F20400C4F202000068C00300280B
:100DC00012D5FFE741F20000C4F202000068800380
:100DD000002808D5FFE70498406820B9FFE7012004
:100DE0008DF81700F9E27CE0FFE704984068B0F561
:100DF000803F09D1FFE741F20001C4F20201086817
:100E000040F48030086032E00498406868B9FFE739
:100E100041F20001C4F20201086820F48030086049
:100E2000086820F48020086020E004984068B0F54D
:100E3000A02F0DD1FFE741F20001C4F202010868C2
:100E400040F480200860086840F4803008600CE0BE
:100E500041F20001C4F20201086820F48030086009
:100E6000086820F480200860FFE7FFE7FFE7FFE75E
:100E700004984068D0B1FFE7FFF704FD0390FFE757
:100E800041F20000C4F202000068800300280CD484
:100E9000FFE7FFF7F7FC0399401A652804D3FFE743
:100EA00003208DF8170098E2EAE719E0FFF7EAFC63
:100EB0000390FFE741F20000C4F2020000688003E3
:100EC00000280CD5FFE7FFF7DDFC0399401A6528E1
:100ED00004D3FFE703208DF817007EE2EAE7FFE77F
:100EE000FFE7FFE7049800788007002840F18D8035
:100EF000FFE741F20400C4F20200006810F00C0F9A
:100F000013D0FFE741F20400C4F20200006800F0D1
:100F10000C00082829D1FFE741F20400C4F20200C6
:100F20000068C003002820D4FFE741F20000C4F2AB
:100F3000020000688007002809D5FFE704980069CF
:100F4000012804D0FFE701208DF8170045E241F2A7
:100F50000001C4F20201086820F0F800049A526906
:100F600040EAC2000860FFE74EE00498006958B309
:100F7000FFE70021C4F2422101200860FFF782FC54
:100F80000390FFE741F20000C4F20200006880070E
:100F900000280CD4FFE7FFF775FC0399401A0328DB
:100FA00004D3FFE703208DF8170016E2EAE741F2C9
:100FB0000001C4F20201086820F0F800049A5269A6
:100FC00040EAC20008601EE00021C4F24221002075
:100FD0000860FFF757FC0390FFE741F20000C4F2FE
:100FE00002000068800700280CD5FFE7FFF74AFCE5
:100FF0000399401A032804D3FFE703208DF8170054
:10100000EBE1EAE7FFE7FFE7FFE704980078000776
:10101000002848D5FFE70498806918B3FFE740F23D
:101020008041C4F2422101200860FFF72BFC0390AD
:10103000FFE741F22400C4F20200006880070028A4
:101040000CD4FFE7FFF71EFC0399401A032804D3D2
:10105000FFE703208DF81700BFE1EAE7012000F069
:101060009BFE1FE040F28041C4F242210020086054
:10107000FFF708FC0390FFE741F22400C4F20200EE
:101080000068800700280CD5FFE7FFF7FBFB0399FA
:10109000401A032804D3FFE703208DF817009CE1D2
:1010A000EAE7FFE7FFE7049800784007002840F1EF
:1010B000D880FFE700208DF8070041F21C00C4F241
:1010C00002000068C000002813D4FFE7FFE741F2E8
:1010D0001C00C4F20200016841F080510160006808
:1010E00000F0805000900098FFE701208DF8070085
:1010F000FFE747F20000C4F200000068C0050028C6
:1011000022D4FFE747F20001C4F20001086840F46E
:1011100080700860FFF7B6FB0390FFE747F200001E
:10112000C4F200000068C00500280CD4FFE7FFF7F8
:10113000A9FB0399401A652804D3FFE703208DF823
:1011400017004AE1EAE7FFE7FFE70498C0680128D3
:1011500009D1FFE741F22001C4F20201086840F022
:101160000100086031E00498C06868B9FFE741F207
:101170002001C4F20201086820F00100086008683C
:1011800020F0040008601FE00498C06805280DD115
:10119000FFE741F22001C4F20201086840F00400B8
:1011A0000860086840F0010008600CE041F220018E
:1011B000C4F20201086820F001000860086820F00D
:1011C00004000860FFE7FFE7FFE7FFE70498C06857
:1011D000E0B1FFE7FFF756FB0390FFE741F2200085
:1011E000C4F202000068800700280ED4FFE7FFF772
:1011F00049FB0399401A41F28931884204D3FFE741
:1012000003208DF81700E8E0E8E71BE0FFF73AFB62
:101210000390FFE741F22000C4F20200006880075B
:1012200000280ED5FFE7FFF72DFB0399401A41F286
:101230008931884204D3FFE703208DF81700CCE002
:10124000E8E7FFE79DF80700012809D1FFE741F231
:101250001C01C4F20201086820F080500860FFE71A
:10126000FFE70498C069002800F0B380FFE741F26F
:101270000400C4F20200006800F00C00082800F02E
:101280008280FFE70498C06902285CD1FFE76021F3
:10129000C4F2422100200860FFF7F4FA0390FFE750
:1012A00041F20000C4F202000068800100280CD561
:1012B000FFE7FFF7E7FA0399401A032804D3FFE793
:1012C00003208DF8170088E0EAE70498006AB0F57B
:1012D000803F0CD1FFE741F20401C4F2020108682B
:1012E00020F40030049A926810430860FFE741F24E
:1012F0000401C4F20201086820F47410049B1A6A05
:101300005B6A1A43104308606021C4F24221012045
:101310000860FFF7B7FA0390FFE741F20000C4F25C
:1013200002000068800100280CD4FFE7FFF7AAFA4A
:101330000399401A032804D3FFE703208DF8170010
:101340004BE0EAE71EE06021C4F242210020086081
:10135000FFF798FA0390FFE741F20000C4F20200A1
:101360000068800100280CD5FFE7FFF78BFA03998E
:10137000401A032804D3FFE703208DF817002CE060
:10138000EAE7FFE724E00498C069012804D1FFE7F9
:1013900001208DF8170020E041F20400C4F20200A1
:1013A00000680290029800F480300499096A88422B
:1013B00008D1FFE7029800F470100499496A884246
:1013C00004D0FFE701208DF8170006E0FFE7FFE7F4
:1013D000FFE700208DF81700FFE79DF8170006B023
:1013E00080BD000080B582B00190019800F0F2FC51
:1013F00002B080BD85B003900291FFE7039890F89A
:101400003C00012804D1FFE702208DF813005BE0C7
:101410000399012081F83C00FFE7FFE703990220D0
:1014200081F83D00039800684068019003980068C7
:1014300080680090019820F0700001900298016887
:10144000019808430190019803990968486003983E
:10145000006842F60041C4F20101884218D0FFE75B
:1014600003980068B0F1804F12D0FFE7039800683E
:1014700040F20041C4F20001884209D0FFE703981E
:10148000006840F60001C4F2000188420ED1FFE777
:10149000009820F08000009002984168009808436E
:1014A00000900098039909688860FFE7039901207C
:1014B00081F83D00FFE70399002081F83C00FFE739
:1014C00000208DF81300FFE79DF8130005B070476A
:1014D00080B58CB00B9000200A900990089007907E
:1014E0000B980068B0F1804F50D1FFE7FFE741F261
:1014F0001800C4F20200016841F0080101600068B0
:1015000000F0080006900698FFE7FFE741F2180098
:10151000C4F20200016841F004010160006800F0BB
:10152000040005900598FFE74FF4806007900220C3
:10153000009008900A9040F60040C4F2010007A90C
:101540000191FEF7F7FF009801994FF400420792CE
:1015500008900A9040F60000C4F20100FEF7EAFF8E
:10156000FFE70421C4F2010108680490049820F404
:1015700040700490049840F0E0600490049840F4B7
:101580004070049004980860FFE74BE00B980068F7
:1015900040F20041C4F2000188421CD1FFE7FFE79E
:1015A00041F21800C4F20200016841F00401016038
:1015B000006800F0040003900398FFE7C020079044
:1015C000022008900A9040F60000C4F2010007A92A
:1015D000FEF7B0FF25E00B98006840F60001C4F26A
:1015E000000188421CD1FFE7FFE741F21800C4F276
:1015F0000200016841F008010160006800F0080085
:1016000002900298FFE7C0200790022008900A90FD
:1016100040F60040C4F2010007A9FEF78BFFFFE788
:10162000FFE7FFE70CB080BD80B586B00490039162
:10163000029200208DF80700FFE7049890F83C0024
:10164000012804D1FFE702208DF817003AE0049941
:10165000012081F83C00FFE7FFE7029800900C288A
:1016600021D80099DFE801F0071F1F1F0D1F1F1F62
:10167000131F1F1F190004980068039900F0A0FCB5
:1016800015E004980068039900F002FD0FE004984B
:101690000068039900F068FD09E004980068039968
:1016A00000F0CEFD03E001208DF80700FFE7FFE723
:1016B0000499002081F83C00FFE79DF807008DF8B1
:1016C0001700FFE79DF8170006B080BD80B582B017
:1016D0000090009820B9FFE701208DF807003FE057
:1016E000009890F83D0040B9FFE70099002081F88C
:1016F0003C00009800F038F8FFE70099022081F8DC
:101700003D00009951F8040B00F0D6FB0099012030
:1017100081F84600FFE70099012081F83E0000991A
:1017200081F83F00009981F84000009981F841005C
:10173000FFE7FFE70099012081F84200009981F856
:101740004300009981F84400009981F84500FFE7C3
:101750000099012081F83D0000208DF80700FFE787
:101760009DF8070002B080BD80B588B0079007984B
:101770000068B0F1804F19D1FFE7FFE741F21C008C
:10178000C4F20200016841F001010160006800F04C
:10179000010006900698FFE71C20039000221146E6
:1017A000FFF70CF90398FFF7FFF845E0079800688A
:1017B00040F20041C4F20001884219D1FFE7FFE77F
:1017C00041F21C00C4F20200016841F00201016014
:1017D000006800F0020005900598FFE71D200290C8
:1017E00000221146FFF7EAF80298FFF7DDF822E041
:1017F0000798006840F60001C4F20001884219D140
:10180000FFE7FFE741F21C00C4F20200016841F06B
:1018100004010160006800F0040004900498FFE7F0
:101820001E20019000221146FFF7C8F80198FFF72B
:10183000BBF8FFE7FFE7FFE708B080BD80B582B0E7
:101840000090009820B9FFE701208DF8070040E0E4
:101850000098806908B1FFE700E0FFE7009890F882
:10186000410040B9FFE70099002081F8400000984E
:1018700000F034F8FFE70099242081F84100009837
:101880000168C86820F40050C860009800F024FD8A
:1018900000980168086920F4904008610098016888
:1018A000486920F02A00486100980168C86840F43F
:1018B0000050C860009900204864009A202182F8F6
:1018C0004110009A82F84210009948638DF8070091
:1018D000FFE79DF8070002B080BD000080B58CB026
:1018E0000B9000200A900990089007900B980068D0
:1018F00043F60001C4F20101884243D1FFE7FFE74C
:1019000041F21800C4F20200016841F48041016014
:10191000006800F4804006900698FFE7FFE741F278
:101920001800C4F20200016841F00401016000687F
:1019300000F0040005900598FFE74FF40070079051
:101940000220089003200A9040F60000C4F2010033
:10195000019007A90291FEF7EDFD019802994FF45D
:10196000806207920022039208920992FEF7E2FD3C
:10197000039A252004900821FFF720F80498FFF728
:1019800013F8FFE70CB080BD80B504F001F8FFE765
:10199000FEE7000080B58EB000200D900C900B90FB
:1019A0000A90FFE741F21800C4F20200016841F01A
:1019B00020010160006800F0200009900998FFE70D
:1019C000FFE741F21800C4F20200016841F004018F
:1019D0000160006800F0040008900898FFE7FFE746
:1019E00041F21800C4F20200016841F008010160F0
:1019F000006800F0080007900798FFE740F6000035
:101A0000C4F20100019041F6101100220392FEF78A
:101A100021FF0198202101220292FEF71BFF039A69
:101A200040F60040C4F2010005904BF61111FEF79C
:101A300011FF029A059840F22E21FEF70BFF019844
:101A4000029A039941F630130A930B920C910221EA
:101A500004910D910AA90691FEF76CFDDDF808C00E
:101A6000039B049A059806994BF63F3ECDF828E073
:101A7000CDF82CC00C930D92FEF75CFD0EB080BD2E
:101A800080B58AB0002100910991089107910691D3
:101A90000591049103910291019140F6F470C2F214
:101AA00000004FF0804202604722426081604FF6A2
:101AB000FF72C26001618161FFF708FE18B1FFE7A4
:101AC000FEF72EFDFFE700200890099040F6F47025
:101AD000C2F2000008A9FFF78DFC18B1FFE7FEF77E
:101AE0001FFDFFE730200190002202920392059231
:101AF00040F6F470C2F2000001A9FFF795FD18B19D
:101B0000FFE7FEF70DFDFFE740F6F470C2F20000BC
:101B100001A90822FFF788FD18B1FFE7FEF700FDD5
:101B2000FFE740F6F470C2F20000FFF7D1FC0AB004
:101B300080BD000080B58AB0002100910991089114
:101B4000079106910591049103910291019141F24F
:101B50003C00C2F2000040F20042C4F20002026007
:101B60004722426081604FF6FF72C260016181616D
:101B7000FFF7ACFD18B1FFE7FEF7D2FCFFE700204E
:101B80000890099041F23C00C2F2000008A9FFF75A
:101B900031FC18B1FFE7FEF7C3FCFFE730200190EE
:101BA000002202920392059241F23C00C2F2000030
:101BB00001A9FFF739FD18B1FFE7FEF7B1FCFFE718
:101BC00041F23C00C2F2000001A90422FFF72CFD03
:101BD00018B1FFE7FEF7A4FCFFE741F23C00C2F2B8
:101BE0000000FFF775FC0AB080BD000080B58AB028
:101BF00000210091099108910791069105910491A6
:101C000003910291019141F28400C2F2000040F67A
:101C10000002C4F2000202604722426081604FF677
:101C2000FF72C26001618161FFF750FD18B1FFE7EB
:101C3000FEF776FCFFE700200890099041F284004F
:101C4000C2F2000008A9FFF7D5FB18B1FFE7FEF7C5
:101C500067FCFFE730200190002202920392059278
:101C600041F28400C2F2000001A9FFF7DDFC18B1C7
:101C7000FFE7FEF755FCFFE741F28400C2F20000E7
:101C800001A90422FFF7D0FC18B1FFE7FEF748FCDA
:101C9000FFE741F28400C2F20000FFF719FC0AB02E
:101CA00080BD000080B582B041F2CC00C2F20000DD
:101CB000019043F60001C4F2010101604FF4E131EB
:101CC000416000218160C16001610C22426181613B
:101CD000C161FFF7B3FD18B1FFE7FEF721FCFFE795
:101CE00041F2CC00C2F200004068B0F5E13F0FD0F5
:101CF000FFE741F2CC00C2F200004FF4E131416055
:101D0000FFF79CFD18B1FFE7FEF70AFCFFE7FFE7CE
:101D100002B080BD80B503F03BFEFFE7FEE70000A8
:101D200080B503F035FEFFE7FEE7000088B00790BE
:101D300006910592079800F0070004900498C0F1FE
:101D40000700052803D3FFE70420019004E004986E
:101D5000C0F107000190FFE7019803900498043058
:101D6000062803D8FFE70020009003E0049803381A
:101D70000090FFE70098029006980399012202FA6A
:101D800001F101390840029B984005999A40013AB7
:101D90001140084308B0704782B00190019840F2AA
:101DA0000001C2F200010968C90844F6D352C1F229
:101DB0006202A1FB0221890948430090FFE700BFAE
:101DC000FFE70098411E00910028F8D1FFE702B01C
:101DD0007047000080B582B0009000980138B0F1E3
:101DE000807F03D3FFE70120019019E000980138BC
:101DF0004EF21401CEF2000108604FF0FF300F21C7
:101E000000F0F6FA4EF21801CEF200010020086050
:101E10004EF21002CEF20002072111600190FFE79E
:101E2000019802B080BD000080B5FEF731FD80BD95
:101E300080B590B006A800902821FEF798FA009887
:101E400000230593049303930293019301220692C6
:101E50004FF48031079108930A9202220D920E915D
:101E60004FF4E0110F91FEF77FFF18B1FFE7FEF787
:101E700057FBFFE70F200190022102910020039001
:101E80004FF480620492059001A8FEF7B9FD18B1E5
:101E9000FFE7FEF745FBFFE710B080BD704700008D
:101EA00080B504F0DDF880BD80B504F0E9F880BDB0
:101EB00080B504F0F7F880BD83B0029001910298DC
:101EC00000680090029842F60041C4F20101884285
:101ED00015D0FFE70298B0F1804F10D0FFE70298CD
:101EE00040F20041C4F20001884208D0FFE70298A6
:101EF00040F60001C4F2000188420AD1FFE70098D1
:101F000020F070000090019841680098084300900C
:101F1000FFE7029842F60041C4F20101884215D061
:101F2000FFE70298B0F1804F10D0FFE7029840F22F
:101F30000041C4F20001884208D0FFE7029840F651
:101F40000001C4F2000188420AD1FFE7009820F4A2
:101F5000407000900198C168009808430090FFE726
:101F6000009820F08000019949690843009000988A
:101F700002990860019880680299C8620198006817
:101F800002998862029842F60041C4F20101884237
:101F900005D1FFE70198006902990863FFE70299FC
:101FA0000120486102980069C00730B1FFE702993B
:101FB000086920F001000861FFE703B070470000E6
:101FC00085B0049003910498006A01900499086A0E
:101FD00020F001000862049840680090049880692D
:101FE0000290029820F070000290029820F0030006
:101FF000029003980168029808430290019820F02B
:1020000002000190039881680198084301900498A8
:1020100042F60041C4F2010188420ED1FFE7019867
:1020200020F0080001900398C168019808430190CE
:10203000019820F004000190FFE7049842F6004167
:10204000C4F20101884213D1FFE7009820F48070A8
:102050000090009820F40070009003984169009867
:102060000843009003988169009808430090FFE7B7
:102070000098049948600298049988610398406820
:102080000499486301980499086205B070470000FC
:1020900085B0049003910498006A01900499086A3D
:1020A00020F010000862049840680090049880694D
:1020B0000290029820F4E0400290029820F44070D0
:1020C000029003980168029840EA0120029001986A
:1020D00020F02000019003988168019840EA0110E7
:1020E0000190049842F60041C4F2010188420FD1E8
:1020F000FFE7019820F0800001900398C1680198E3
:1021000040EA01100190019820F040000190FFE7A3
:10211000049842F60041C4F20101884215D1FFE75C
:10212000009820F480600090009820F400600090F7
:1021300003984169009840EA810000900398816902
:10214000009840EA81000090FFE7009804994860F9
:1021500002980499886103984068049988630198FB
:102160000499086205B0704785B004900391049803
:10217000006A01900499086A20F48070086204984B
:10218000406800900498C0690290029820F07000A6
:102190000290029820F003000290039801680298D0
:1021A00008430290019820F4007001900398816820
:1021B000019840EA01200190049842F60041C4F2DF
:1021C000010188420FD1FFE7019820F400600190DF
:1021D0000398C168019840EA01200190019820F419
:1021E00080600190FFE7049842F60041C4F20101CB
:1021F000884215D1FFE7009820F4805000900098A5
:1022000020F40050009003984169009840EA0110C2
:10221000009003988169009840EA01100090FFE760
:1022200000980499486002980499C861039840682E
:102230000499C86301980499086205B070470000CA
:1022400085B0049003910498006A01900499086A8B
:1022500020F4805008620498406800900498C06997
:102260000290029820F4E0400290029820F440701E
:10227000029003980168029840EA012002900198B8
:1022800020F40050019003988168019840EA0130E1
:102290000190049842F60041C4F2010188420BD13A
:1022A000FFE7009820F4804000900398416900986F
:1022B00040EA81100090FFE7009804994860029876
:1022C0000499C861039840680499086401980499C6
:1022D000086205B07047000080B584B00390039891
:1022E0000068006920F44050039A1168D2681043D6
:1022F0000861039988680A69496910430843029094
:1023000003980068C06841F20C6188430299084351
:1023100003990968C86003980068406920F4407018
:10232000039A11689269104348610398006843F664
:102330000001C4F20101884204D1FFE7FEF7A4FCCA
:10234000019003E0FEF78EFC0190FFE70198192150
:102350004843039A116852689200B0FBF2FC48F2BD
:102360001F52C5F2EB12ACFB02304309642003FBA1
:1023700010CC322000EB0C10A0FB0202F02000EA8F
:10238000521000EB0310C2F343121044886004B0F3
:1023900080BD000080B503F0BBFE80BD80B503F0BA
:1023A000D7F980BD80B503F0F3FAFFE7FEE7000040
:1023B00081B08DF803009DF9030000280ED4FFE7DB
:1023C0009DF9031001F01F02012090404A094EF2CE
:1023D0000011CEF2000141F82200FFE701B0704782
:1023E0004EF60C50CEF200000068C0F30220704799
:1023F00082B08DF8070000919DF9070000280AD4EB
:10240000FFE7009800019DF907104EF20042CEF25E
:10241000000288540BE0009800019DF8071001F0BD
:102420000F014EF61452CEF200028854FFE702B0BC
:102430007047000083B00290029800F007000090FF
:102440004EF60C51CEF200010868019001984FF64B
:10245000FF02104001900198009A40EA02200022F9
:10246000C0F2FA52104301900198086003B070471F
:1024700082B001908DF8031001989DF8031000EBD5
:102480008100343002B0704781B08DF803009DF8B0
:10249000031046F6C450C0F60000405C01B070471F
:1024A00042F2A841C2F200010020C88642F2E8418F
:1024B000C2F20001088040F6BC61C2F2000108804F
:1024C00041F21411C2F20001086040F29801C2F218
:1024D000000108707047000080B586B005904FF08D
:1024E000FF30049000208DF80F008DF80E00FFE7FC
:1024F0009DF80E007F2829DCFFE79DF80E0002F012
:1025000063FB029005980299884205D9FFE7059878
:102510000299401A009004E002980599401A009030
:10252000FFE70098019001980499884207D2FFE7DD
:10253000019804909DF80E008DF80F00FFE7FFE76B
:102540009DF80E0001308DF80E00D1E79DF80F00C8
:1025500006B080BD80B586B005908DF813108DF85B
:1025600012209DF8131002208840039005980069FE
:102570000599C96808400399084201D1FFE776E050
:102580000398C043059908619DF8121040F270004D
:10259000C2F20000405C08B9FFE768E09DF8122035
:1025A00040F6BE60C2F20000815C81F001018154FE
:1025B0009DF81210405C88B9FFE79DF8121041F2B7
:1025C000A410C2F2000030F811009DF8122040F66D
:1025D000B061C2F2000121F81200FFE705989DF8F2
:1025E0001310FFF745FF00689DF8122040F6B06118
:1025F000C2F2000131F812100844ADF80A00BDF82B
:102600000A000599496A401AADF80800BDF80800AB
:10261000082806D3FFE7BDF90800B0F1FF3F1ADC38
:10262000FFE705989DF81310042202F0A5FB039A1A
:102630000599C8689043C8609DF8122040F2700167
:10264000C2F200010020885441F24E11C2F2000192
:10265000012008700BE0BDF80A00019005989DF874
:102660001310FFF705FF014601980860FFE706B069
:1026700080BD000081B08DF803008DF802109DF838
:1026800002209DF803101120C84000F0010080F0E6
:102690000101002A18BF084601B0704780B542F218
:1026A000F060C2F20000008880B1FFE742F2F06003
:1026B000C2F20000018801390180028842F2D00094
:1026C000C2F20000411CFDF7EEFDFFE780BD0000F7
:1026D00010B59EB0DDF880C08DF876001C918DF8A5
:1026E0006F201A932099002008709DF87600012829
:1026F00005DBFFE79DF87600162805DBFFE70220E3
:102700008DF8770000F087BC9DF87600122811D074
:10271000FFE79DF86F009DF8762046F66B61C0F6E6
:102720000001895C884205D0FFE701208DF8770021
:1027300000F071BC03F0E8FA41F21C11C2F2000192
:10274000086040F27D00C2F20000007868B1FFE747
:102750009DF87600012808D0FFE79DF87600032851
:1027600003D0FFE700F0B8FCFFE79DF86F0020B151
:10277000FFE71C9800780B9002E000200B90FFE729
:102780000B988DF867009DF8760006282EDBFFE792
:102790009DF876000B2829DCFFE79DF867000628E6
:1027A00005D3FFE703208DF8770000F034BC42F238
:1027B000A840C2F2000090F830009DF86710C840B1
:1027C000C00728B9FFE704208DF8770000F023BC8C
:1027D00042F2A840C2F2000090F8340028B1FFE7AE
:1027E00004208DF8770000F016BCFFE742F2A84005
:1027F000C2F2000090F83400A0B1FFE79DF8760027
:1028000005280AD0FFE79DF876000C2805D0FFE7E1
:102810009DF87600102805D1FFE704208DF8770099
:1028200000F0F9BB9DF87600013801460A911428A2
:1028300000F2E9830A99DFE811F041004B005800EB
:102840005E006800A700CB00D200D700D7003F0190
:102850007101AA01AA01ED010D02610291026F024C
:102860007E02150000F038FC42F2A840C2F20000DF
:102870000022099280F8322080F8312090F833004D
:10288000114602F0CBFD099840F27D02C2F200022F
:102890000121117040F27C01C2F20001087003F0C6
:1028A00033FA811C40F27800C2F200000160006837
:1028B00041F6B061C2F200010860A8E31A994F2006
:1028C00008701A994B2048702099022008709EE3E6
:1028D00020993E2008701A9820990A7846F62C61B3
:1028E000C0F60001FDF79AFC91E31A9804F068F92C
:1028F000209908708BE300F0EFFB42F2A841C2F28E
:102900000001002081F8350081E39DF86700402830
:1029100004DBFFE703208DF877007CE3FFF7C0FDC1
:102920009DF8670042F2A841C2F2000181F8300030
:1029300000208DF86600FFE79DF86600052822D884
:10294000FFE79DF867009DF86610C840C00798B97A
:10295000FFE79DF8660004F09FF99DF8661042F2CB
:10296000A840C2F2000000EBC100002101719DF8F7
:10297000660002F0B9FDFFE7FFE79DF86600013051
:102980008DF86600D8E742E31C984078022804DB03
:10299000FFE703208DF877003DE31C98407828B9C5
:1029A000FFE79DF8670004F077F9FFE71C9840788F
:1029B0009DF8672042F2A841C2F2000101EBC2017A
:1029C00008719DF867001C99497802F08DFD1EE39F
:1029D0009DF8670004F096F88DF877001BE39DF8EA
:1029E000670004F059F912E39DF876000A2809D12E
:1029F000FFE71C984078802804DBFFE703208DF870
:102A0000770008E39DF876000A2806D1FFE71C98B6
:102A1000407802F0D9F8089005E01C98013004F0E5
:102A20009FF90890FFE708981890189800F086FE24
:102A3000ADF85E00BDF85E0020B9FFE703208DF819
:102A40007700E8E2BDF85E0002F0CEFC9DF867205A
:102A500042F2A841C2F2000141F832009DF876002E
:102A60000A2804D1FFE71C98407807900BE09DF8F6
:102A7000671042F2A840C2F2000050F83100FFF7A0
:102A80002BFD0790FFE707999DF8672042F2A840C9
:102A9000C2F2000000EBC202D1719DF8671000EB9A
:102AA000C100407938B1FFE79DF86700BDF85E10BE
:102AB00003F010FAFFE7AAE21C984078022804DB32
:102AC000FFE703208DF87700A5E29DF8671042F23A
:102AD000A840C2F2000000EBC100407920B1FFE73E
:102AE00004208DF8770096E21C9840789DF86720C6
:102AF00042F2A841C2F2000101EBC20188719DF8C7
:102B000067001C99497802F0CFFC03F0FDF8023011
:102B100041F6B061C2F20001086078E29DF86700FA
:102B2000082804DBFFE703208DF8770073E200201C
:102B30008DF85D00FFE79DF85D00052816D8FFE7DA
:102B40009DF85D1042F2A840C2F2000000EBC10007
:102B5000407920B1FFE704208DF877005BE2FFE7C2
:102B60009DF85D0001308DF85D00E4E79DF8671089
:102B700042F2A840C2F2000080F8331090F8311001
:102B800090F8322090F8330002F048FC3FE29DF8C4
:102B90006700022804DBFFE703208DF877003AE2A4
:102BA0009DF8670020B1FFE7002004F093F8FFE7ED
:102BB0009DF876000D2809D1FFE79DF8670042F2E5
:102BC000A841C2F2000181F831000EE09DF86700D3
:102BD00042F2A841C2F2000181F8320041F2AE2176
:102BE000C2F2000100200870FFE742F2A840C2F2E2
:102BF000000090F8311090F8322090F8330002F085
:102C00000DFC03F081F8023041F6B061C2F2000120
:102C10000860FCE1002004F05DF842F2A840C2F236
:102C200000000122069280F8322090F8311090F8CE
:102C3000330002F0F3FB069841F2AE21C2F200012C
:102C4000087003F061F8023041F6B461C2F200018D
:102C50000860DCE142F2A840C2F2000090F83100C6
:102C6000D8B9FFE742F2A840C2F2000090F8320063
:102C700098B9FFE742F2A840C2F20000C08E60B1EE
:102C8000FFE703F041F841F6B061C2F200010968C4
:102C9000401AB0F1FF3F04DCFFE704208DF8770015
:102CA000B9E100208DF85C00FFE79DF85C00052885
:102CB0000BD8FFE79DF85C0003F0EEFFFFE79DF8FF
:102CC0005C0001308DF85C00EFE742F2A841C2F2EF
:102CD0000001049100200590886303F015F8049921
:102CE00002460598643241F25013C2F200031A60A2
:102CF000012281F8342081F8350088E19DF86700D1
:102D0000022804DBFFE703208DF8770083E19DF8BC
:102D1000670003F0DFFF7AE142F2A840C2F2000050
:102D200090F8340020B1FFE704208DF8770072E1BD
:102D3000FFF7B6FB6BE142F2A840C2F20000C18E81
:102D4000C1F580711A9A1170C08EC0F58070000AAA
:102D50001A99487020990220087058E19DF86F0078
:102D6000A8B1FFE79DF86F0049F69812C1F69912D5
:102D70004CF6CD41CCF6CC4100FB01204FEA70006F
:102D800049F69911C1F69911884204D3FFE7012051
:102D90008DF877003FE19DF86F004CF6CD41CCF601
:102DA000CC41A0FB0110C0088DF85B009DF85B00D2
:102DB00042F2A841C2F20001C98EC1F58071884279
:102DC00004DDFFE705208DF8770024E141F21410BF
:102DD000C2F200000068159040F29800C2F20000B4
:102DE00000788DF8530000208DF85200FFE79DF821
:102DF00052009DF85B10884280F29380FFE71C9898
:102E00009DF8521001EB810100EB410013901398E3
:102E100003F0A6FF12901398063003F0A1FF119063
:102E2000139800798DF84300139840798DF842008B
:102E30009DF85300F0B9FFE712981599884219D30D
:102E4000FFE7129845F60041C0F22651884211D89A
:102E5000FFE742F2A840C2F2000090F8340068B1E7
:102E6000FFE7129842F2A841C2F20001896B884242
:102E700004D2FFE706208DF87700CCE09DF84200F1
:102E8000032804DBFFE703208DF87700C3E09DF8FB
:102E90004200022810D1FFE79DF84300FF2803D12C
:102EA000FFE7119820B1FFE703208DF87700B2E02B
:102EB00001208DF853002BE09DF8430005280CD825
:102EC000FFE742F2A840C2F2000090F830009DF8FF
:102ED0004310C840C00720B9FFE704208DF87700F1
:102EE00099E09DF84200012805D1FFE7119800F014
:102EF00025FC38B1FFE79DF8420038B9FFE711988B
:102F000020B1FFE703208DF8770084E0FFE7FFE7BB
:102F100012981590FFE79DF8520001308DF852008D
:102F200065E700208DF84100FFE79DF841009DF81E
:102F30005B10884247DAFFE71C989DF8411001EBCF
:102F4000810100EB41000F9042F2E840C2F2000024
:102F50000290008800EB400441F2B020C2F2000071
:102F6000039000EB840001900F9803F0F9FE0C90A1
:102F70000F98063003F0F4FE019A0299DDF80CE098
:102F80000D900F9800798DF838000F9840798DF8E2
:102F90003900DDF830C00D980E9B4EF824C09360C8
:102FA000506008880130C0B2088042F2A841C2F2E5
:102FB0000001C88E0130C886FFE79DF8410001304E
:102FC0008DF84100B1E7159841F21411C2F20001E9
:102FD00008609DF8530040F29801C2F200010870A9
:102FE00042F2A840C2F20000C18EC1F580711A9A67
:102FF0001170C08EC0F58070000A1A99487020992F
:103000000220087003E002208DF8770003E0002022
:103010008DF87700FFE79DF877001EB010BD000027
:1030200082B08DF807009DF8071000200529009058
:103030004DD8FFE742F2A840C2F2000090F83410E9
:1030400000200029009042D0FFE742F2A840C2F2DF
:10305000000090F8311000200090C1BBFFE742F261
:10306000A840C2F2000090F832100020009071BB1E
:10307000FFE79DF8071042F2A840C2F2000000EB03
:10308000C10001790020009009B3FFE742F2A84097
:10309000C2F2000090F830109DF807200020D140C7
:1030A000C907009099B1FFE79DF8071040F2800032
:1030B000C2F2000050F8211042F2A840C2F2000013
:1030C000826B0020914288BF01200090FFE70098AA
:1030D00000F0010002B0704780B582B040F27D017F
:1030E000C2F2000100200090087041F22C11C2F2DF
:1030F0000001087041F24711C2F20001087041F26C
:103100004011C2F20001087041F22011C2F2000128
:103110004FF0FF30888008600120019003F0DAFD55
:103120000099019A42F2A840C2F2000080F83220D1
:1031300080F8312041F2AE23C2F20003197090F8FA
:103140003300114602F06AF902B080BD80B582B04A
:103150008DF80700FFF7C0FF9DF8070042F2A84175
:10316000C2F2000181F83500C86B0130C86302B0BB
:1031700080BD000080B584B041F6B461C2F20001A8
:1031800000200290086041F6B061C2F200010860C0
:1031900041F21411C2F20001086041F25011C2F272
:1031A0000001086041F2AE21C2F20001087040F255
:1031B0009801C2F20001087042F2A840C2F2000079
:1031C00001904021FDF7D3F8019A02981E2182F860
:1031D00030103F2182F830108DF80F00FFE79DF886
:1031E0000F0005281FD8FFE74520009001F0ECFCF8
:1031F000024600989DF80F3042F2A841C2F2000149
:1032000041F833209DF80F2001EBC201C8719DF8F1
:103210000F00002102F048F9FFE79DF80F00013090
:103220008DF80F00DBE7FFF757FF02F06DFD41F26D
:103230001C11C2F20001086004B080BD80B584B0EA
:1032400003908DF80B109DF80B00072801DBFFE7BA
:103250008FE000208DF80A00FFE79DF80A009DF836
:103260000B1088422CDAFFE703989DF80A10405CA7
:10327000802801DBFFE77CE000208DF80900FFE7F4
:103280009DF809009DF80A10884212DAFFE70399B9
:103290009DF80900085C9DF80A20895C884201D1EC
:1032A000FFE766E0FFE79DF8090001308DF80900AF
:1032B000E6E7FFE79DF80A0001308DF80A00CCE749
:1032C00002F022FD0190019841F21C11C2F20001AE
:1032D000086041F23C11C2F20001086041F2401165
:1032E000C2F2000101200090087003999DF80B20A4
:1032F00041F24110C2F20000FCF790FF00989DF8E7
:103300000B1041F22C12C2F20002117041F247116F
:10331000C2F20001087042F2A840C2F2000090F828
:10332000310040B9FFE742F2A840C2F2000090F835
:103330003200D8B1FFE742F2A840C2F200000022FA
:1033400080F8322080F8312041F2AE21C2F2000133
:103350000A7090F83300114602F060F801980230CC
:1033600041F6B061C2F200010860FFE700F004F826
:10337000FFE704B080BD000080B58CB002F0C4FC53
:103380000B9041F24010C2F20000007878B1FFE7E4
:103390000B9841F23C11C2F200010968401AB0F5E5
:1033A000967F04D9FFE70820FFF7D0FEC3E141F282
:1033B0004710C2F20000007868B1FFE70B9841F6B1
:1033C000B061C2F200010968401A002803D4FFE787
:1033D00001F020FAFFE741F24010C2F2000000784D
:1033E00008B1FFE7A7E141F2AE20C2F20000007889
:1033F00020B3FFE70B9841F6B461C2F200010968FF
:10340000401A00281AD4FFE741F2AE20C2F20000B1
:103410000022027042F2A840C2F2000080F832207E
:1034200090F8311090F8330001F0F8FF0B9802305B
:1034300041F6B061C2F200010860FFE742F2A84025
:10344000C2F2000090F834008DF82B0000208DF8B7
:103450002A00FFE79DF82A00052815D8FFE79DF808
:103460002A1042F2A840C2F2000000EBC10001792C
:103470009DF82B0008438DF82B00FFE79DF82A00EC
:1034800001308DF82A00E5E79DF82B00B0B1FFE789
:1034900040F27D00C2F20000007878B9FFE70B9897
:1034A00041F21C11C2F200010968401AB0F5FA6F2E
:1034B00004D9FFE70820FFF749FE3CE140F27D0018
:1034C000C2F20000007800286CD0FFE70B9840F2B1
:1034D0007801C2F200010968401A002861D4FFE7B0
:1034E00040F27C00C2F200000078062803D1FFE71A
:1034F000FFF7F2FD54E040F27C02C2F200021078C5
:10350000411C1170099042F2A840C2F2000090F8EC
:1035100030000999C840C00780B3FFE7099942F21B
:10352000A840C2F20000039000EBC100012101712C
:103530009DF8240001F0D8FF039A099B46F68160AC
:10354000C0F60000C15C02EBC302D1710999405C76
:1035500001F03AFB0399099A41F832009DF82400E2
:1035600003F0D0FA8DF823009DF8230028B1FFE77F
:103570009DF82300FFF7EAFDDDE0FFE70B9840F23E
:103580007C01C2F200010A78C821062A08BF4FF464
:103590007A71084440F27801C2F200010860FFE746
:1035A000FFE7C8E042F2A840C2F2000090F8340001
:1035B00058B1FFE70B9841F25011C2F200010968BF
:1035C000401AB0F1FF3F01DCFFE7B4E00B9841F295
:1035D0005011C2F200010968401A42F2A841C2F239
:1035E00000018863FFE742F2A840C2F20000C18EEA
:1035F00000200290C1B1FFE740F6BC60C2F20000BB
:10360000008800EB400141F2B020C2F2000050F807
:10361000211042F2A840C2F20000826B00209142C9
:1036200098BF01200290FFE70298C007002877D0DA
:10363000FFE740F6BC61C2F20001088800EB4003DE
:1036400041F2B020C2F2000000EB830250F82300E8
:103650000590506892680792069008880130C0B2C1
:10366000088042F2A841C2F20001C88E0138C88623
:103670009DF81D00022804D1FFE7002003F02AFB7B
:1036800059E09DF81D00D0B9FFE79DF81C1042F2EB
:10369000A840C2F2000000EBC10040798DF8130091
:1036A0009DF81C0003F0F8FA9DF8130030B1FFE715
:1036B0009DF81C00059902F01DFEFFE72FE09DF824
:1036C0001C2040F28001C2F20001002041F82200DB
:1036D000069800F033F801F087FE9DF81C2042F2B6
:1036E000A841C2F20001019141F832000698FEF7AC
:1036F000F3FE01999DF81C2001EBC201C8719DF8F1
:103700001C0003F0FFF98DF812009DF8120028B19B
:10371000FFE79DF81200FFF719FD0CE0FFE762E7F5
:1037200042F2A840C2F20000C08E20B9FFE70A2092
:10373000FFF70CFDFFE70CB080BD000082B00090E9
:10374000009844F62061884208D3FFE7009840F6CD
:103750000111C0F23D01884204D3FFE70020ADF81B
:1037600006000BE0009946F20050C1F6CD5000EB88
:103770005100B0FBF1F0ADF80600FFE7BDF8060020
:1037800002B0704784B0039002914FF6FF70ADF81D
:103790000600FFE70298411E029120B3FFE703985D
:1037A000411C03910178BDF8060080EA0120ADF8C4
:1037B000060000200090FFE70098072812D8FFE7D6
:1037C000BDF80620500041F2210181EA42011204B5
:1037D000002A48BF0846ADF80600FFE70098013010
:1037E0000090E9E7D6E7BDF8060004B07047000096
:1037F00084B0039002914FF6FF70ADF80600FFE72A
:103800000298411E029120B3FFE70398411C0391E7
:103810000178BDF8060080EA0120ADF8060000201E
:103820000090FFE70098072812D8FFE7BDF80620B0
:10383000500041F2210181EA42011204002A48BFEE
:103840000846ADF80600FFE7009801300090E9E770
:10385000D6E7BDF8060004B07047000080B586B01A
:10386000DDF820C004908DF80F108DF80E20029323
:103870000898F12803D3FFE70020059032E004996F
:10388000C720087004993A2048709DF80F000499E9
:1038900088709DF80E000499C87008980499087102
:1038A000089838B1FFE7049805300299089AFCF7A8
:1038B000B5FCFFE70498023008990331FFF798FF41
:1038C000ADF806009DF80600049A08991144487165
:1038D0009DF80700049A08991144887108980730E8
:1038E0000590FFE7059806B080BD000080B588B060
:1038F00006908DF817100698D0F8F800F7280AD12E
:10390000FFE70698411CD0F8F820013AC0F8F820EB
:10391000FCF7C9FCFFE79DF817000699D1F8F820DD
:10392000531CC1F8F830885400200490FFE7049835
:1039300007300699D1F8F81088424FD8FFE706986B
:103940000499084403900398007902900298073084
:10395000019003980078C7281CD1FFE703984078AE
:103960003A2817D1FFE703988078012805D0FFE7B0
:103970000398807802280DD1FFE70298F02809D833
:10398000FFE70498019908440699D1F8F810884295
:1039900001D0FFE71EE00398023002990331FFF7E0
:1039A000F1FE039A02991144B1F80510884201D042
:1039B000FFE70FE0049830B1FFE706980399019AFA
:1039C000FCF771FCFFE706990020C1F8F800012020
:1039D000079006E0049801300490A8E700200790C3
:1039E000FFE7079808B080BD80B59CB01A901A9880
:1039F00000788DF867001A9840788DF866000020EE
:103A00008DF820008DF81F001A98D0F8020006905B
:103A10009DF86600062804DBFFE702208DF86F00A2
:103A200041E29DF86700012805D0FFE79DF8670097
:103A3000022836D1FFE741F25C10C2F200000078A4
:103A400078B3FFE741F29F10C2F200000078092826
:103A500027DBFFE741F25B11C2F200010878013079
:103A60000870000640B9FFE741F25B11C2F20001A5
:103A7000087801300870FFE741F25B10C2F20000E5
:103A8000007841F25411C2F2000108701A9882883D
:103A9000A1F805200068C1F8010000208DF86F0032
:103AA00001E29DF86700012805D0FFE79DF8670057
:103AB000022804D1FFE70A208DF86F00F3E19DF89A
:103AC00067000B2804DBFFE702208DF86F00EAE1B6
:103AD00041F25C10C2F20000007840B1FFE79DF8AF
:103AE000670020B1FFE706208DF86F00DBE19DF84D
:103AF000670058B1FFE740F6C460C2F200000078EA
:103B000020B9FFE708208DF86F00CCE19DF8670031
:103B1000B8B1FFE741F24C10C2F20000007880B16A
:103B2000FFE702F0F1F841F24811C2F20001096822
:103B3000401AB0F5967F04D8FFE707208DF86F0094
:103B4000B1E19DF8670098B9FFE7FFF7C5FA41F2C8
:103B50005C10C2F200000078B0FA80F0400940F634
:103B6000E161C2F20001087000208DF86F009AE157
:103B70009DF866008DF8610006988DF862009DF84A
:103B80006700033801460491072800F2EE8004998B
:103B9000DFE801F004182E61779FB8C80DF16100CD
:103BA00003900130069900F0B7FD03996A4608A812
:103BB0001060092005220DF12103FEF789FD8DF823
:103BC0001F00D6E00698022804D3FFE702208DF8F4
:103BD0006F0068E1694608A8086006200DF16101E0
:103BE00002220DF12103FEF773FD8DF81F00C0E0E6
:103BF0000698022804D3FFE702208DF86F0052E1F7
:103C0000069888B1FFE701208DF86200694608A890
:103C1000086006200DF1610102220DF12103FEF77B
:103C200057FD8DF81F00FFE79DF81F0090B9FFE7D3
:103C300006990820002918BF07206A4608A91160C4
:103C40000DF1610101220DF12103FEF741FD8DF817
:103C50001F00FFE78DE00698022804D3FFE702204B
:103C60008DF86F001FE1694608A808600B200DF170
:103C7000610102220DF12103FEF72AFD8DF81F00DC
:103C800077E00698A0B1FFE70698012810D0FFE77B
:103C9000069802280CD0FFE70698032808D0FFE713
:103CA0000698072804D0FFE702208DF86F00FAE09D
:103CB00006988DF86100694608A808600C200DF18F
:103CC000610101220DF12103FEF702FD8DF81F00B5
:103CD0004FE00698022804D3FFE702208DF86F001A
:103CE000E1E006988DF86100694608A808600D209B
:103CF0000DF1610101220DF12103FEF7E9FC8DF8C0
:103D00001F0036E001228DF86120694608A808608E
:103D10000E200DF161010DF12103FEF7D9FC8DF8A4
:103D20001F0026E000208DF86100694608A80860A1
:103D30000D200DF1610101220DF12103FEF7C8FCF8
:103D40008DF81F009DF81F0070B9FFE7694608A8AD
:103D500008600E200DF1610101220DF12103FEF733
:103D6000B7FC8DF81F00FFE703E002208DF86F001D
:103D700099E09DF81F0038B9FFE740F6E161C2F213
:103D8000000101200870FFE79DF81F00042868D19A
:103D9000FFE742F2A840C2F2000090F8320020B1E2
:103DA000FFE703208DF86F007DE042F2A840C2F2E9
:103DB000000090F8310020B1FFE704208DF86F007B
:103DC00071E042F2A840C2F2000090F830009DF885
:103DD0006610C840C00720B9FFE705208DF86F00C6
:103DE00061E042F2A840C2F2000090F8340080B9CD
:103DF000FFE79DF8670006280FD1FFE79DF86610E2
:103E000042F2A840C2F2000000EBC100407920B1AC
:103E1000FFE709208DF86F0045E09DF8670007284F
:103E20001BD1FFE700200590FFE70598052813D870
:103E3000FFE7059942F2A840C2F2000000EBC10082
:103E4000407920B1FFE709208DF86F002BE0FFE7F4
:103E5000059801300590E8E7FFE70B208DF86F002B
:103E600021E09DF81F0018B9FFE70020029016E03E
:103E70009DF81F1001200329019008D0FFE79DF84D
:103E80001F000138B0FA80F040090190FFE7019867
:103E9000C1070120002918BF02200290FFE7029805
:103EA0008DF86F00FFE79DF86F001CB080BD00002B
:103EB00080B58AB08DF8270001F026FF089040F603
:103EC000F070C2F20000007888B1FFE7089840F671
:103ED000C861C2F200010968401A652807D3FFE7EC
:103EE00040F6F071C2F2000100200870FFE7089868
:103EF00040F6C861C2F2000108609DF8271040F644
:103F0000F070C2F2000003785A1C027040F6CC62D6
:103F1000C2F20002D15400780C2801DCFFE781E1F5
:103F200040F6CC60C2F200000078A52840F066811F
:103F3000FFE740F6CC60C2F2000040785A2840F01B
:103F40005D81FFE740F6CC60C2F200008078062871
:103F500040F05481FFE740F6CC60C2F200000079E7
:103F6000502840F04B81FFE740F6CC60C2F20000E1
:103F700002900230092102F061FA0299B1F80B10A7
:103F8000884240F03B81FFE740F6CC60C2F200007F
:103F90000530079000208DF81B008DF81A0040F6C0
:103FA000E061C2F2000101200870089840F6DC616F
:103FB000C2F20001086007980078FF2840F0808076
:103FC000FFE70798417800200190D1B9FFE70798F3
:103FD000817800200129019013D1FFE70798C1786B
:103FE0000020019069B9FFE707980179002001904E
:103FF00039B9FFE707984079B0FA80F0400901909D
:10400000FFE7019800F0010140F6C460C2F2000031
:104010000170007880B9FFE740F6E160C2F200006D
:10402000007848B1FFE7FFF757F840F6E161C2F2C8
:1040300000010020087042E040F6C460C2F20000B7
:104040000078D8B3FFE740F6E160C2F200000078E4
:10405000A0B3FFE741F25C10C2F20000007868BB39
:10406000FFE740F27600C2F20000007830BBFFE7C5
:1040700042F2A540C2F200000078F8B9FFE741F231
:104080004C10C2F20000007858B1FFE7089841F2E6
:104090004811C2F200010968401AB0F5967F0DD9A7
:1040A000FFE700228DF8172007996B460DF11700E6
:1040B0001860012006ABFEF70BFBFFE7FFE796E079
:1040C00000200490FFE704980F2848D8FFE70499E0
:1040D00040F6E860C2F2000000EB0110007AC8B3BD
:1040E000FFE7049940F6E860C2F2000000EB01101F
:1040F000807940F6CC61C2F20001C978884229D1AA
:10410000FFE70898049A40F6E861C2F2000101EB6B
:104110000211C968401A00097C281BD8FFE70499DE
:1041200040F6E860C2F2000000EB01100799062299
:10413000FCF748F870B9FFE7049940F6E860C2F26E
:10414000000000EB0110C0798DF81B0001208DF8F4
:104150001A0004E0FFE7049801300490B3E79DF8EB
:104160001A00C0BBFFE740F6E872C2F20002106816
:10417000411C116000F00F0003900798FFF734FC1A
:104180008DF81B00039940F6E860C2F2000000EBD6
:1041900001124FEA011C07990B6840F80C3089881E
:1041A000918040F6CC61C2F20001C978039A00EB1D
:1041B000021291719DF81B10039A00EB0212D1714B
:1041C0000899039A00EB0212D160039900EB0111E8
:1041D00001200872FFE740F6CC60C2F20000C1780F
:1041E00051200DF11B02012300F0AEFAFFE740F66B
:1041F000F071C2F200010020087013E040F6CC61BB
:10420000C2F20001D1F80100D1F80520D1F809303F
:104210008B604A60086040F6F071C2F200010C2029
:104220000870FFE70AB080BD80B59AB08DF86700CE
:1042300001F06AFD18900DF12E003221FCF775F89F
:1042400001208DF82E008DF82F009DF8670088B3AF
:10425000FFE742F2A540C2F20000007850B3FFE74A
:10426000189842F29841C2F200010968401A952854
:1042700007D8FFE742F29840C2F200000068C0B9D8
:10428000FFE742F29C40C2F20000017842F2CC30DB
:10429000C2F20000037842F2CD32C2F20002702076
:1042A00000F052FA189842F29841C2F200010860F8
:1042B000FFE72FE241F24C10C2F20000007890B10B
:1042C000FFE7189841F24811C2F200010968401A4C
:1042D000B0F5967F07D8FFE740F6E161C2F2000132
:1042E00000200870FFE740F6E060C2F200000078AE
:1042F00008B9FFE70EE2189840F6DC61C2F200014F
:104300000968401AB0F5967F1BD9FFE740F6E160D7
:10431000C2F20000007818B1FFE7FEF7DDFEFFE70C
:1043200040F6C461C2F200010020087040F6E0616E
:10433000C2F20001087040F6E161C2F200010870AB
:10434000E8E19DF8670050B1FFE7189840F6EC717E
:10435000C2F200010968401A312801D8FFE7D9E10B
:10436000189840F6EC71C2F20001086018990DF13E
:104370002E00059000F0D0F9059A43200021042377
:1043800000F0E2F905983221FBF7CFFF01208DF80C
:104390002E008DF82F0042F2A840C2F2000090F8E3
:1043A00031108DF8301090F832108DF8311090F8EF
:1043B00033108DF8321090F830008DF8330040F251
:1043C0007600C2F20000007858B1FFE70DF12E0030
:1043D000063042F2A841C2F20001896B00F09CF95C
:1043E000FFE741F25C10C2F200000078002800F004
:1043F0008D80FFE741F29F10C2F20000007809288B
:10440000C0F28480FFE741F26410C2F20000D0F8ED
:104410000110D0F805200E920D910078C00738B138
:10442000FFE79DF82F0040F002008DF82F00FFE716
:1044300041F26410C2F2000000788007002807D51E
:10444000FFE79DF82F0040F004008DF82F00FFE7F4
:10445000189841F2A011C2F200010968401AB0F5A3
:10446000FA7F52D3FFE741F26410C2F200000178F4
:1044700000200906002904900BD5FFE741F29F10A8
:10448000C2F20000017800200A29C8BF0120049070
:10449000FFE7049800F001008DF82D004FF6FF7043
:1044A000ADF82A009DF82D0038B1FFE741F2641005
:1044B000C2F200000930039003E00DF12A000390DE
:1044C000FFE7039A442000210291022300F03CF907
:1044D00002999DF82D000923002818BF0B2341F2F3
:1044E0006410C2F20000C21841F29F10C2F2000034
:1044F0000078C01AC3B2412000F026F9189841F2A2
:10450000A011C2F200010860FFE7FFE741F25C1072
:10451000C2F20000007838B1FFE79DF82F0040F0AC
:1045200010008DF82F00FFE742F2A840C2F2000011
:1045300090F83400E8B1FFE740F27600C2F20000E4
:10454000007878B9FFE741F25C10C2F20000007811
:1045500078B1FFE741F29F10C2F20000007809280D
:1045600007DBFFE79DF82F0040F020008DF82F00BB
:10457000FFE742F2A840C2F2000090F8340038B1E0
:10458000FFE79DF82F0040F040008DF82F00FFE777
:1045900000200990FFE70998052800F29A80FFE7BC
:1045A000099942F2A840C2F2000000EBC100089055
:1045B0000898407920B1FFE70898C079019002E09F
:1045C000FF200190FFE701988DF81F00189906A8B9
:1045D00000F0A2F809988DF81C00099940F6E260F5
:1045E000C2F20000405C9DF81F10884236D0FFE701
:1045F000099940F6E260C2F20000405C7F2811DCBD
:10460000FFE7099940F6E260C2F20000405C8DF8D5
:104610001D0000218DF81E10422006AA072300F07D
:1046200093F8FFE79DF81F007F280EDCFFE79DF859
:104630001F008DF81D0064208DF81E00422000210F
:1046400006AA072300F080F8FFE79DF81F00099AEB
:1046500040F6E261C2F200018854FFE70899087948
:104660004A79897940EA420040EA810000909DF849
:104670002400FEF7D5FC0146009840EAC1010998E4
:1046800000EB40020DF12E0000EB420291730899FD
:10469000C979099A02EB420200EB4202D1730999EF
:1046A00001EB410100EB410010300899096800F06E
:1046B00033F80898407938B1FFE79DF82F0040F0B3
:1046C00002008DF82F00FFE7FFE7099801300990FD
:1046D00061E741F24C10C2F20000007890B1FFE7B0
:1046E000189841F24811C2F200010968401AB0F569
:1046F000967F07D8FFE79DF82F0040F008008DF85F
:104700002F00FFE7402000210DF12E02322300F0A0
:104710001BF8FFE71AB080BD83B002900191002022
:104720000090FFE7009803280BD8FFE70198009A54
:10473000D100C84002998854FFE7009801300090EA
:10474000F0E703B07047000080B5C2B08DF80701F4
:104750008DF8061140928DF8FF30A5208DF80800E5
:104760005A208DF809009DF8FF008DF80A009DF889
:1047700006018DF80B009DF807018DF80C009DF8DF
:10478000FF0040B1FFE702A8053040999DF8FF20E7
:10479000FBF744FDFFE702A8009002309DF8FF10F0
:1047A000033101F04BFE01460098ADF806109DF86C
:1047B00006109DF8FF20024451719DF807109DF8E6
:1047C000FF20024491719DF8FF10073101F090F82D
:1047D00042B080BD80B582B000200190FCF766F841
:1047E00001F0D4FAFDF724FBFDF7D4F8FDF748F902
:1047F000FDF7A0F9FDF7FAF9FDF754FA01F02CF9ED
:10480000FEF7B8FC02F006F8FFE702F097F8FEF7B3
:10481000B3FDFAE780B586B00020ADF8140004902F
:104820008DF80F0041F24711C2F2000108708DF8B7
:104830000E00FFE79DF80E00052875DCFFE700205D
:104840008DF80D008DF80C00FFE79DF80C0041F28B
:104850002C11C2F20001097888422BDAFFE79DF89B
:104860000E1041F22010C2F20000405C9DF80C20B6
:1048700041F24111C2F20001895C884213D1FFE785
:104880009DF80E1042F2A840C2F2000000EBC100F9
:10489000407940B1FFE701208DF80D009DF80C2014
:1048A00004A9885406E0FFE79DF80C0001308DF85C
:1048B0000C00CAE79DF80D0078BBFFE79DF80E10CD
:1048C00041F22010C2F20000405CFF2825D0FFE733
:1048D0009DF80F0030B9FFE701F014FA01208DF8C0
:1048E0000F00FFE79DF80E0002F0D6F99DF80E10BC
:1048F00042F2A840C2F2000000EBC10000210171A9
:104900009DF80E0000F0F0FD9DF80E2041F2201100
:10491000C2F20001FF208854FFE7FFE79DF80E0078
:1049200001308DF80E0085E700208DF80B00FFE7C1
:104930009DF80B0041F22C11C2F200010978884267
:1049400080F2AB80FFE79DF80B1004A8405C0028C4
:1049500040F09C80FFE700208DF80A00FFE79DF8FB
:104960000A00052800F39180FFE742F2A840C2F256
:10497000000090F830009DF80A10C840C0070028D9
:104980007CD0FFE79DF80A1041F22010C2F200002F
:10499000405CFF2872D1FFE79DF80B1041F24110F7
:1049A000C2F20000405C00F00FF90190FFE70198AF
:1049B00044F61F61884204D8FFE701984000019047
:1049C000F5E7FFE7019840F60111C0F23D0188428A
:1049D00004D3FFE7019840080190F3E70198FEF740
:1049E000ADFE20B9FFE70320FEF7B0FB55E09DF8D0
:1049F0000F0030B9FFE701F085F901208DF80F00B5
:104A0000FFE701999DF80A2042F2A840C2F2000097
:104A100040F832109DF80B2041F24111C2F2000122
:104A2000895C9DF80A2000EBC202D1719DF80A1042
:104A300000EBC100012101719DF80A0000F054FD56
:104A40009DF80A0002F05EF88DF803009DF803005F
:104A500028B1FFE79DF80300FEF778FB1DE09DF805
:104A60000B1041F24110C2F20000405C9DF80A2098
:104A700041F22011C2F20001885406E0FFE79DF8E0
:104A80000A0001308DF80A0069E7FFE7FFE79DF8AB
:104A90000B0001308DF80B004AE706B080BD000026
:104AA00080B584B08DF80F0001F02EF9029041F22C
:104AB0004D10C2F20000007888B1FFE7029841F281
:104AC0002811C2F200010968401A062807D3FFE73F
:104AD00041F24D11C2F2000100200870FFE7029878
:104AE00041F22811C2F2000108609DF80F1041F256
:104AF0004D10C2F2000003785A1C027041F22D12D0
:104B0000C2F20002D15400780E285AD1FFE741F2D8
:104B10002D10C2F2000000F0BFF8B8B3FFE741F279
:104B20005C10C2F20000007870B9FFE740F2760036
:104B3000C2F20000007838B9FFE742F2A540C2F2A5
:104B40000000007838B1FFE741F24D11C2F20001D8
:104B50000020087035E0029841F24811C2F20001CD
:104B6000086041F24C11C2F200010120087041F2CC
:104B70002D10C2F2000001790530FEF75FFB41F213
:104B80004D11C2F200010020087019E041F22D1110
:104B9000C2F200010191D1F80100D1F80520D1F84D
:104BA000093091F80DC081F80CC08B604A60086034
:104BB00041F24D11C2F20001087801380870FFE798
:104BC000FFE704B080BD000084B08DF80F009DF8B1
:104BD0000F004AF6AB21CAF6AA21A0FB0132D20887
:104BE00002EB4202A0EB820246F6A060C0F6000093
:104BF00050F8220002909DF80F00A0FB01016FF019
:104C0000040000EBD10001900198002805D4FFE7D3
:104C1000029801998840009005E002980199494264
:104C2000C8400090FFE7009804B0704784B003903C
:104C300002914FF6FF70ADF80600FFE70298411EA3
:104C4000029120B3FFE70398411C03910178BDF85E
:104C5000060080EA0120ADF8060000200090FFE782
:104C60000098072812D8FFE7BDF80620500041F24F
:104C7000210181EA42011204002A48BF0846ADF82A
:104C80000600FFE7009801300090E9E7D6E7BDF89D
:104C9000060004B07047000080B584B0029002980E
:104CA0000078D32813D1FFE70298407891280ED1DD
:104CB000FFE702988078012809D1FFE70298007980
:104CC000062804DCFFE70298C07A18B1FFE700204D
:104CD00003904DE000200190FFE7019805283AD8A5
:104CE000FFE701980299097988420AD3FFE7029900
:104CF00001980844407918B1FFE70020039037E09D
:104D000024E00299019808444079802803DBFFE7FA
:104D1000002003902CE000200090FFE7009801990C
:104D2000884212D2FFE7029A009810444079019914
:104D300011444979884203D1FFE70020039017E02E
:104D4000FFE7009801300090E8E7FFE7FFE70198F0
:104D500001300190C1E7029802300A21FFF766FF97
:104D600002998989401AB0FA80F040090390FFE760
:104D7000039804B080BD000085B004908DF80F103A
:104D80008DF80E209DF80F00012804DCFFE7049841
:104D90001830009003E004981C300090FFE7009862
:104DA00002909DF80F0000F00100C0008DF8070090
:104DB000029800689DF80720FF21914088439DF8E4
:104DC0000E100432914008430299086005B0704704
:104DD00080B586B005910490002003900290019068
:104DE0000090BDF814000090012001900220039073
:104DF00004986946FBF79EFB06B080BD80B58CB079
:104E0000FFE742F2F060C2F2000000880228C0F220
:104E1000E882FFE742F2D000C2F200000078A52845
:104E200008D1FFE742F2D000C2F2000040785A28D1
:104E300003D0FFE7FDF732FCE3E742F2F060C2F295
:104E400000000088042801DCFFE7CAE242F2D0003B
:104E5000C2F2000080788DF82F009DF82F00F12815
:104E60000DDBFFE742F2A841C2F20001012081F808
:104E70003500C86B0130C863FDF710FCC1E79DF831
:104E80002F000730ADF82C0042F2F060C2F20000B3
:104E90000088BDF82C10884201DAFFE7A1E29DF8F6
:104EA0002F00C11C42F2D000C2F200000990023073
:104EB00001F0C4FA0999ADF82A00BDF82C000844A5
:104EC00010F8020C9DF82A1088420ED1FFE7BDF8B9
:104ED0002C0042F2D001C2F20001084410F8010C8B
:104EE0009DF82B1088420DD0FFE742F2A841C2F294
:104EF0000001072081F83500C86B0130C863FDF759
:104F0000CDFB7EE742F2D000C2F20000007901281A
:104F100008DBFFE742F2D000C2F20000007915285A
:104F200010DBFFE742F2D000C2F200000079302827
:104F300035D3FFE742F2D000C2F2000000793428F6
:104F40002DDCFFE741F25C10C2F200000078C0B92E
:104F5000FFE7FEF7C1F840F27601C2F2000100203F
:104F6000087040F6E161C2F20001087041F24C1194
:104F7000C2F20001087041F2AC21C2F200010880C7
:104F8000FFE741F25C11C2F200010120087000F05D
:104F9000BBFE41F26011C2F200010860FFE7BDF8FC
:104FA0002C0041F2AC21C2F200010988884226D1CE
:104FB000FFE700F0A9FE41F2A821C2F20001096852
:104FC000401AC0087C281AD8FFE7BDF82C2042F20E
:104FD000D000C2F2000041F2B011C2F20001FBF7B2
:104FE000F1F860B9FFE741F6B070C2F20000018845
:104FF00041F6B860C2F2000001F024F9DDE10020C2
:105000008DF8290042F2D000C2F200000079342865
:1050100040F09E80FFE79DF82F1001200A2908909C
:1050200027DBFFE79DF82F1042F2D000C2F200000C
:10503000807900063A22002848BF3C220120914294
:10504000089016DCFFE742F2D000C2F2000081793E
:10505000002009060029079008D5FFE79DF82F10CA
:1050600000200C29B8BF01200790FFE7079808909F
:10507000FFE7089800F001008DF828009DF828004F
:10508000002864D1FFE742F2D000C2F2000040796C
:1050900041F25411C2F200010978884209D1FFE7B8
:1050A00041F25411C2F200010020C1F8030008606F
:1050B000FFE741F29F10C2F2000000789DF82F1028
:1050C0000139884212D1FFE79DF82F00A0F10A02B2
:1050D00041F26410C2F20000093042F2D001C2F283
:1050E00000010F31FBF76EF850B1FFE700F00CFE46
:1050F000A0F5FA7041F2A011C2F200010860FFE7CA
:105100009DF82F00411E41F29F10C2F20000017075
:10511000027842F2D000C2F20000811D41F2641018
:10512000C2F20000FBF77AF807208DF8290041F25F
:105130005411C2F200010868D1F8032041F6B861A9
:10514000C2F20001C1F80A20C1F80700FFE7C3E07E
:1051500042F2D000C2F200000079332819D1FFE7F3
:105160009DF82F00002818BF01208DF82800082086
:105170008DF8290042F29D41C2F2000108684A6898
:1051800041F6B861C2F20001C1F80B20C1F8070076
:10519000A1E042F2D000C2F2000000793028C0F055
:1051A0008280FFE742F2D000C2F20000007932288C
:1051B00079D8FFE700208DF828009DF82F00BF2840
:1051C00004DBFFE701208DF828006BE042F2A540E8
:1051D000C2F20000007820B1FFE705208DF828001A
:1051E0005FE0FDF779FF40F27601C2F20001002096
:1051F0000590087040F6E161C2F20001087041F2CA
:105200004C11C2F20001087042F2D001C2F200015A
:1052100006910A7942F2CD30C2F2000000F8012B6B
:105220009DF82F200531FAF7F9FF06989DF82F1009
:10523000013142F2CC32C2F200021170C07842F267
:105240009C41C2F20001087042F2A541C2F2000185
:105250000120087000F058FD05990246069842F2B8
:10526000C833C2F200031A6042F29842C2F200024E
:105270001160017942F29D42C2F200021170FF21D9
:105280005170007930280BD1FFE742F29D41C2F204
:1052900000010020C880C1F8020001208870FFE7EB
:1052A000FFE7FFE716E042F2D001C2F20001087901
:1052B0009DF82F20EC460DF12903CCF80030053184
:1052C00041F6B863C2F200030733FDF701FA8DF827
:1052D0002800FFE7FFE7FFE79DF8280078B1FFE728
:1052E0009DF8280042F2A841C2F2000181F8350081
:1052F000C86B0130C86300208DF82900FFE741F634
:10530000B862C2F200020492A52010705A205070B8
:105310009DF82900811C104600F8021F42F2D001BE
:10532000C2F200010291CB78D3709DF828C080238F
:10533000BCF1000F18BF81231371097951719DF8D9
:10534000281091719DF82910053101F077F8029924
:10535000049BADF82A009DF82A009DF829201A44E4
:10536000D0719DF82B009DF829201A4410729DF8E9
:105370002900093041F6B072C2F200020392108097
:10538000BDF82C2041F2B010C2F20000FAF746FF3F
:10539000BDF82C0041F2AC21C2F20001088000F0FF
:1053A000B3FC03990246049841F2A823C2F2000319
:1053B0001A60098800F046FFFFE7BDF82C1042F2A2
:1053C000F062C2F200021088401A1080BDF82C1062
:1053D00042F2D000C2F2000001441288FAF763FFE3
:1053E0000FE50CB080BD000082B0ADF80600BDF83E
:1053F000060060B1FFE7BDF8061046F20050C1F6A6
:10540000CD5000EB5100B0FBF1F0009002E0002025
:105410000090FFE7009802B07047000080B582B0AE
:105420008DF807008DF806108DF8052000208DF806
:105430000400FFE79DF80400022819DCFFE79DF84F
:10544000043046F68860C0F6000000EBC3019DF80A
:105450000720DA4002F0010250F83300496801F0F9
:1054600085FCFFE79DF8040001308DF80400E1E7BA
:105470009DF80600B0FA80F0420946F6D861C0F601
:1054800000010868496801F071FC9DF80500B0FA58
:1054900080F0420946F6D061C0F60001086849680C
:1054A00001F064FC02B080BD80B584B08DF80F00BF
:1054B0008DF80E109DF80F00009046F6CC51C0F606
:1054C0000001029101EBC00101919DF80E10FDF762
:1054D000D1F8009B01990246029850F833004968C0
:1054E00001F044FC04B080BD80B582B08DF80700A7
:1054F0008DF806109DF8073046F6FC50C0F6000007
:1055000000EBC3019DF80620B2FA82F2520950F86E
:105510003300496801F02AFC02B080BD80B582B03A
:1055200040F29E10C2F20000007808B9FFE732E0B6
:1055300000F0EAFB40F2A001C2F200010968401A43
:105540000190019808B9FFE725E040F29E11C2F2F0
:105550000001002008700198042801D3FFE71AE039
:1055600000F0C8FB009044F20C41C4F2000108684E
:1055700020F02400086044F20042C4F200021068E7
:1055800020F040001060086840F088000860009833
:1055900000F050FEFFE702B080BD000082B040F294
:1055A000A410C2F20000008840F2A211C2F2000171
:1055B0000988884204D1FFE74FF0FF3001901EE0D8
:1055C00040F2A411C2F200010A8840F2A610C2F211
:1055D0000000805C00900A8840F2A830C2F200000F
:1055E00050F8220040F29C02C2F2000210600888CB
:1055F00001306FF35F20088000980190FFE7019869
:1056000002B0704780B5C0B08DF8FF000020029056
:1056100000F07AFB40F29C01C2F200010968401AD6
:10562000032809D8FFE744F20C40C4F200000068E8
:10563000000700280BD5FFE740F6A830C2F20000B3
:10564000008840F6AA31C2F2000108805AE0FFE764
:1056500040F6AA30C2F20000018840F6A830C2F23B
:105660000000028800209142019007D0FFE70299D4
:105670000020F02938BF01200190FFE70198C00702
:10568000B0B1FFE740F6AA31C2F200010A8840F645
:10569000AC30C2F20000805C029B5A1C02920DF1F9
:1056A0000F02D054088801306FF35F200880CFE7E5
:1056B0009DF8FF2002986946086040F2A400C2F2FB
:1056C000000002210DF10F03FEF7C8F840F2A0110F
:1056D000C2F20001088040F29C11C2F200010020D9
:1056E000088040F29C00C2F20000006840F2A00175
:1056F000C2F20001086040F29E11C2F200010120D6
:105700000870FFE740B080BD80B582B000F0F2FACB
:10571000019040F6AC51C2F2000108788DF8030008
:10572000002008709DF8030058B1FFE740F2A21076
:10573000C2F20000008840F2A411C2F20001088009
:10574000FFE7019800F076FD9DF8030002B080BDF0
:1057500080B584B044F20040C4F2000000680390B9
:105760009DF80C0010F02F0F52D0FFE744F20440D8
:10577000C4F2000000688DF80B009DF80C000007D3
:1057800038B1FFE740F6AC51C2F2000101200870C9
:105790003DE09DF80C008006002837D5FFE740F279
:1057A000A210C2F20000008801306FF35F20ADF854
:1057B0000800BDF8080040F2A411C2F200010988F7
:1057C000884207D1FFE740F6AC51C2F20001012048
:1057D00008701AE09DF80B0040F2A211C2F200011D
:1057E00001910A8840F2A611C2F20001885400F02B
:1057F0008BFA01990B8840F2A832C2F2000242F8FB
:105800002300BDF808000880FFE7FFE7FFE7FFE798
:105810009DF80C000006002836D5FFE744F20C4046
:10582000C4F200000068000600282DD5FFE740F212
:105830009C10C2F20000008840F2A011C2F20001E8
:105840000988884212DAFFE740F29C12C2F2000295
:105850001188481C108040F2A400C2F20000405C95
:1058600044F20441C4F2000108600CE044F20C412F
:10587000C4F20001086820F080000860086840F069
:1058800040000860FFE7FFE744F20040C4F2000078
:1058900000684006002829D5FFE744F20C40C4F216
:1058A000000000684006002820D5FFE744F20C40C5
:1058B000C4F2000000680006002817D4FFE744F295
:1058C0000C41C4F20001086820F04800086044F26E
:1058D0000040C4F20000006844F20440C4F200003A
:1058E0000068086840F024000860FFE704B080BD4D
:1058F00080B584B00390ADF80A1000F0FBF9019078
:10590000BDF80A0040F6AA31C2F200010A8840F64A
:10591000A831C2F200010988C94311446FF35F2125
:1059200088420AD9FFE740F6AC51C2F200010120DB
:105930000870019800F07EFC28E00020ADF802001D
:10594000FFE7BDF80200BDF80A1088421ADAFFE747
:105950000398BDF80210405C40F6A831C2F2000185
:105960000B8840F6AC32C2F20002D05408880130F5
:105970006FF35F200880FFE7BDF802000130ADF84B
:105980000200DEE7019800F055FCFFE704B080BD9F
:1059900080B586B0EFF3108072B60590FFE741F254
:1059A0001C00C4F20200016841F0010101600068BE
:1059B00000F0010004900498FFE7FFE741F21C00AB
:1059C000C4F20200016841F002010160006800F0C9
:1059D000020003900398FFE7FFE741F21C00C4F2C6
:1059E0000200016841F004010160006800F0040059
:1059F00002900298FFE740F60C01C4F2000100207B
:105A0000086040F20C41C4F2000108600C21C4F2AD
:105A1000000108608DF80700FFE79DF807000528E2
:105A200015D8FFE79DF8070001F08CF900909DF86C
:105A30000700FCF729FD014600980422FFF79CF9B6
:105A4000FFE79DF8070001308DF80700E5E700F05B
:105A50009DF906B080BD000080B590B0FBF702F95B
:105A60000F9041F20400C4F20200006810F4E06FED
:105A700004D0FFE70F9840000F90FFE70F98282110
:105A8000C4F2000109680131B0FBF1F044F2402199
:105A9000C0F20F0188423DD1FFE70F9840F2284144
:105AA000C4F2000109680131B0FBF1F044F2402179
:105AB000C0F20F0188422DD1FFE70F9840F6280170
:105AC000C4F2000109680131B0FBF1F044F2402159
:105AD000C0F20F0188421DD1FFE72C20C4F2000064
